:020000040040BA
:10000000D8FD0020610A40005D0A40005D0A400002
:100010005D0A40005D0A40005D0A400000000000EB
:100020000000000000000000000000005D0A400029
:100030005D0A4000000000005D0A40005D0A4000CB
:100040005D0A40005D0A40005D0A40005D0A400014
:100050005D0A40005D0A40005D0A40005D0A400004
:100060005D0A40005D0A40005D0A40005D0A4000F4
:100070005D0A40005D0A4000F50C40005D0A40004A
:100080005D0A40005D0A40005D0A40005D0A4000D4
:100090005D0A40005D0A40005D0A40005D0A4000C4
:1000A0005D0A40005D0A40005D0A40005D0A4000B4
:1000B0005D0A40005D0A4000E5064000F906400088
:1000C0005D0A4000A11640005D0A40005D0A400044
:1000D0005D0A40005D0A40005D0A40005D0A400084
:1000E0005D0A40005D0A40005D0A40005D0A400074
:1000F0005D0A40005D0A400010B5054C237833B915
:10010000044B13B10448AFF300800123237010BDEA
:100110006008002000000000E84940000C4B43B19B
:100120000C480D4910B5AFF300800C48036823B9A3
:1001300010BD0A48036833B97047094B002BF7D04C
:10014000BDE810401847064B002BF5D0184700BFFC
:1001500000000000E849400064080020E849400031
:100160000000000010B50E480E4B98473E210020BD
:100170000D4B98470D4CA0470028FCD00C4B9847DE
:100180000C4A0D4B9A620D4CA0470028FCD0102061
:100190000B4B98470B4B98470B48024B984710BDA9
:1001A000000E2707350C40006D084000C1084000D4
:1001B000D1084000013F0F2000040E40E10840003C
:1001C00009084000290B400000D8B805002A37D0A4
:1001D0002DE9F84F934605460F468B44DFF87080B3
:1001E000184EDFF8709006E021464046B0470028E0
:1001F000FAD1BB4521D017F8014B4545F4D04D4508
:100200000DD0114B9D4210D0104B9D42F1D1DFF823
:1002100048A021460D48D0470028FAD1E9E72146F9
:100220004846B0470028FAD1E3E7DFF82CA0214682
:100230000548D0470028FAD1DBE70020BDE8F88F59
:10024000002070470F0A400000000A4000400A40AA
:1002500000060E4000060640310A4000002A3FD04A
:100260002DE9F04F83B006460C4693468B441D4F54
:100270001D4DDFF880A00DE021463846A847002834
:10028000FAD110E021465046A8470028FAD101349F
:100290005C4521D000230193BE42EDD05645F1D0FC
:1002A000124B9E420DD0124B9E42F0D19946DFF880
:1002B000488001A94846C0470028FAD1019B237015
:1002C000E5E79946DFF8308001A94846C047002895
:1002D000FAD1019B2370DAE7002003B0BDE8F08F6C
:1002E0000020704700060E401F0A400000000A4030
:1002F00000400A4000060640450A40002DE9F04152
:1003000080B90C469046002A0FDD8F18084E094D23
:10031000306821462B6898470134BC42F8D14046EA
:10032000BDE8F0814FF0FF38F9E78046F7E700BFFE
:10033000F0CC0020E8CC00200138022815D82DE9A7
:10034000F0410E4614469AB10D46DFF838800C4F46
:10035000D8F8000015F8011B3B68984700280ADB15
:10036000A81B013CF4D1BDE8F0814FF0FF3070478D
:100370001046BDE8F0814FF0FF30BDE8F08100BFCE
:10038000ECCC0020F0CC002010B54FF40042214B03
:100390005A600920204CA0470A20A0470B20A04704
:1003A0000C20A0470D20A0471C4B4FF480021A617F
:1003B000C3F8A0201A63A3F5C06304225A61C3F8EE
:1003C000A0205A66C3F890205A651A62C3F88420A8
:1003D000196F21F004011967596F21F00401596761
:1003E000C3F8C020C3F8D420C3F8B0204FF4C062D3
:1003F0001A66C3F890205A655A62C3F88020196FB4
:1004000021F4C0611967596F21F4C06159675A60BE
:1004100010BD00BF50180E40F108400000140E40FF
:1004200010B4046844F001040460019C04F4805496
:1004300044F4807403F4C0631C4302F007021443C5
:1004400001F070010C4344600323C0F89430036B47
:10045000002BFCDB5DF8044B70474368006B13F422
:10046000805F18BF80F00200C0F340007047012396
:1004700043627047006B704770B582B0026BC36A0D
:10048000134001930024214DA84214BF00250125EB
:100490006E002E440BE0142C24D8019A04F10801BC
:1004A00001238B40134213D10134172C2BD00F2C76
:1004B000F1D8019A0123A3401342F5D0C5EBC6033E
:1004C0002344134A52F82330002BEDD09847EBE732
:1004D000C5EBC60323440E4A52F82330002BE3D069
:1004E0009847E1E7019A04F1090101238B40134287
:1004F000DAD0C5EBC6032344054A52F82330002B5B
:10050000D2D09847D0E702B070BD00BF00400B408A
:10051000F4CC002030B4046E01238B4024EA0304A1
:100520001578002D08BF002323430366446D4B005C
:100530000321994024EA01045178994021434165FF
:1005400030BC704700220260084B4360084B836058
:100550004FF48023C36002610223037501234375B6
:100560008375C275037643768376704700D8B805E5
:10057000808D5B00002303700123437070470000EF
:10058000036B13F0807F01D01920704770B40123F2
:100590000360CB7D002B14BF4FF0004500258B7D01
:1005A000002B14BF4FF4000400240B7D1B0603F046
:1005B00070630A69CE68324313434A7D120702F022
:1005C000405213438A6856004A68B2FBF6F2013A79
:1005D000120292B213432B43234343600B7E002B42
:1005E00014BF4FF0807300230A6813434A7E002A29
:1005F00014BF4FF000720022134383608B7E1B02F6
:1006000003F44073C0F894300E4B984205D00E4B63
:1006100098420CD0002070BC70470C4B03F15C0179
:10062000002243F8042F8B42FBD10020F3E7084B54
:1006300003F15C01002243F8042F8B42FBD1002020
:10064000E9E700BF00000B4000400B40F0CC002069
:100650004CCD00200C4B994207D00F290BD806D067
:10066000012303FA01F141627047436270474FF47E
:10067000004343627047142994BF083109310123B4
:1006800003FA01F141627047FFFF00DF38B5114CFA
:10069000A0420CBF172400240C440F4D45F8242021
:1006A0000AD10E4A4FF00044C2F880411B01DBB270
:1006B00082F81F33146009E0084A4FF08044C2F802
:1006C00080411B01DBB282F81E331460044B984753
:1006D00038BD00BF00400B40F4CC002000E100E03A
:1006E0005506400008B50248024B984708BD00BFB8
:1006F00000000B407904400008B50248024B9847BF
:1007000008BD00BF00400B407904400000B583B035
:10071000134B98420CBF1F201E20124B9847124BC0
:100720009B78FF2B1AD0EFF31083B3FA83F35B09A6
:10073000019372B6BFF35F8F00220C4B1A700199C0
:10074000094A93780133937029B10122074B1A703B
:10075000BFF35F8F62B603B05DF804FBFEE700BF36
:1007600000400B40F1084000E0CC002000000020D9
:10077000012303607047436823F00103436070471F
:1007800049B9436843F480734360436823F010031E
:10079000436000207047436843F4807343604368BC
:1007A00043F010034360F4E7016270474368012996
:1007B00001D90120704723F4981343EA01414160B5
:1007C00000207047436841B907491940120602F0FA
:1007D0007C520A4342600020704723F07C5323F48C
:1007E0007F4343F40011F1E7FF00DFC0012901D985
:1007F00001207047012303FA01F1016100207047D5
:10080000C0F8941000207047174A136B23F0700350
:1008100018431063936E13F0080F0AD14FF400636E
:1008200011498A6E12F0080F03D1013BF9D1012062
:1008300070470D4A136B23F0030343F00203136365
:10084000936E13F0080F0AD14FF4006306498A6EC5
:1008500012F0080F05D1013BF9D1012070470020AB
:1008600070470020704700BF00040E40C8B9114A0D
:10087000136A090289B223F45C1323F0030343F4DF
:100880005C1343F001030B431362936E13F0010FEB
:10089000FBD0084A136A43F09B7343F4803313621E
:1008A000704704490B6A044A1A40044B13430B6215
:1008B000704700BF00040E40FCFFC8FE0200370175
:1008C000024B986E00F48030704700BF00040E4069
:1008D0004FF00052014B9A62704700BF00040E4077
:1008E000024B986E00F00200704700BF00040E40FB
:1008F0002F281ED81F280CD8114B9A69012383403A
:10090000934318D0012303FA00F00D4B1861002027
:10091000704720380A4BD3F80821012383409343C2
:100920000BD0012303FA00F0054BC3F800010020AF
:10093000704701207047002070470020704700BFBB
:1009400000040E4010B489014318022444504FF0B3
:10095000FF319962196A5A605DF8044B704789014A
:10096000052343507047F0B486B002240194082454
:10097000029420240394802404940A9CE40B05949C
:10098000B0EB510F14D84C0CA04217D2012501AF87
:1009900057F82540B1FBF4F4260C84420AD3864272
:1009A0000DD90135052DF3D1002006B0F0BC7047FC
:1009B0000020FAE70020F8E70120F6E700252AB139
:1009C00006A901EB850151F8141C1160002BF3D02E
:1009D0001D600120E9E710B4AC2303600B684A688E
:1009E000B3FBF2F31B095C1E4FF6FE7294420CD867
:1009F00003628B68436040F20223C0F82031502329
:100A0000036000205DF8044B70470120FAE743695A
:100A100013F0020F1ABFC161002001207047436923
:100A200013F0010F1DBF83690B7000200120704778
:100A3000436913F0020F1DBFC1F30801C16100201B
:100A400001207047436913F0010F05D08369C3F398
:100A500008030B600020704701207047FEE700008C
:100A600000B583B0254B264A9A4210D0254B234A25
:100A70009A420CD2013B9B1A23F003030433134424
:100A80001F4951F8040B42F8040B9A42F9D11E4B4E
:100A90001E4A9A420AD2013B9B1A23F003030433F5
:100AA0001344002142F8041B9342FBD1184A194B0E
:100AB00023F07F039360EFF31083B3FA83F35B09B2
:100AC000019372B6BFF35F8F0022134B1A70019926
:100AD000124A136843F470031360BFF34F8FBFF3E0
:100AE0006F8F29B101220C4B1A70BFF35F8F62B672
:100AF0000B4B98470B4B9847FEE700BF00000020C8
:100B0000E84940005C080020D8CD002060080020A3
:100B100000ED00E0000040000000002088ED00E053
:100B2000A5384000091740003B4B1B6B03F0030343
:100B3000012B1DD083B1022B36D0374B1B6B03F03A
:100B40007003702B5FD0344B1A6B3449C2F302121E
:100B50000B68D3400B607047314B5B6913F0800F1B
:100B600014BF4FF400424FF4FA422C4B1A60E4E7F2
:100B7000294B1B6A13F0807F03D02A4A274B1A6047
:100B8000DBE7294A254B1A60234B1B6A03F07003ED
:100B9000102B05D0202BD0D1224A204B1A60CCE755
:100BA000224A1E4B1A60C8E71B4B1B6A13F0807F5A
:100BB00016D01C4A194B1A60174B1B6B03F003032A
:100BC000022BBAD1144A916A926A1448C1F30A41BD
:100BD000036801FB0333D2B2B3FBF2F30360ACE76B
:100BE000114A0E4B1A600C4B1B6A03F07003102B5A
:100BF00005D0202BE0D10B4A084B1A60DCE70B4AEA
:100C0000064B1A60D8E7054A13680949A1FB03138C
:100C10005B081360704700BF00040E400400002012
:100C200010180E40001BB70000093D0000127A00AA
:100C3000ABAAAAAA124B984211D9124B984213D9C7
:100C4000114B984214D9114B984215D9104B984228
:100C500094BF4FF004220F4A0F4B1A6070474FF0B9
:100C600080620D4B1A6070470C4A0B4B1A6070473C
:100C70000B4A094B1A6070470A4A074B1A607047C3
:100C8000FF2C3101FF596202FF869303FFB3C404B6
:100C9000FFE0F50500050004000A0E400001000415
:100CA00000020004000300040A4B1B6853B1094B07
:100CB0001B681A180849914208DB1046054A106063
:100CC00018467047054A034B1A60F0E74FF0FF30B3
:100CD000704700BF7C080020FCFF0120D8FD0020E9
:100CE0004FF0FF3070474FF400534B6000207047C7
:100CF0000020704700B583B001220DF107011048B4
:100D0000104B984772B6BFF35F8F00220E4B1A70DC
:100D10000E4B1B789DF807100D4AD1549B2B0BD01E
:100D200001330A4A13700122074B1A70BFF35F8F19
:100D300062B603B05DF804FB0022044B1A70F2E7C0
:100D400000000A405D024000000000201C09002055
:100D500080080020074B1B8842F28D02934207D87F
:100D6000054A126822F81300024A138801331380DF
:100D7000704700BF74CC00200C0000200D4B1B8876
:100D800001339BB2102B0BD80A4A138000220A4B66
:100D90001A800A4A11680A4B186810601960704777
:100DA0000022044B1A80064A1168064B186810602E
:100DB0001960EBE776CC002074CC00200C000020FA
:100DC0000800002010000020F8B50A4B1B8842F2F2
:100DD0008D0293420AD81C4608DC0027064E42F2D8
:100DE0008E053846B0470134AC42FAD1034B9847E0
:100DF000F8BD00BF74CC0020550D40007D0D4000B3
:100E0000014B1888704700BF76CC0020014B186852
:100E1000704700BF08000020014B1868704700BFF2
:100E200010000020F0B583B005460C460023019366
:100E3000184B98420AD0184B98420FD0174B984243
:100E400014D0174B9D421BD003B0F0BD1F46154E6A
:100E500021463846B0470028FAD1F2E71E46114D28
:100E600021463046A8470028FAD1EDE71E460E4D30
:100E700001A93046A8470028FAD1019B2370E3E777
:100E80001E46094D01A93046A8470028FAD1019B0A
:100E90002370D9E700060E400006064000000A4015
:100EA00000400A401F0A4000450A400070B50C4649
:100EB000184B98420AD0184B984210D0174B9842C2
:100EC00016D0174B98421CD0002070BD1E46154D01
:100ED00021463046A8470028FAD1012070BD1E46A1
:100EE000104D21463046A8470028FAD1012070BD98
:100EF0001E460D4D21463046A8470028FAD1012054
:100F000070BD1E46084D21463046A8470028FAD13C
:100F1000012070BD00060E400006064000000A4099
:100F200000400A400F0A4000310A400008B5044B57
:100F3000186A80B2034B1880034B984708BD00BF66
:100F400000000B40ACCD0020550D4000F0B48842AD
:100F50001ED202EB400403462646002536F8027BEB
:100F600003FB075501339FB2B942F7D80139091A7B
:100F7000013010FA81F102EB4101002034F8023B0C
:100F800018448C42FAD1B5FBF0F080B2F0BC704747
:100F900000252846F7E770B40E4681B1811E002374
:100FA00018461C469DB231F8022FA24284BF284643
:100FB000144601339AB29642F4D870BC7047084682
:100FC000FBE700002DE9F04105460C463A4B1F882F
:100FD00039462046DFF8E880C0470646394604EB2C
:100FE0004700C047384480B2344B1E80D880314619
:100FF00034F81630AB4249D3002301339BB29E42F2
:1010000050D3CA1A34F81220AA42F6D2F31A2B4A45
:101010005380BF1B10D434F81630AB4238D30022B3
:10102000013292B2BA4207DC531834F81330AB42A3
:10103000F6D23244214B9A80024634F81030AB424B
:1010400028D3002301339BB298422ED3D11A34F80F
:101050001110A942F6D2C31A18490B81C0F50256E5
:101060000E36002E18DB34F81030AB4216D30023B6
:1010700001339BB2B34213DC991834F81110A94222
:10108000F6D203440D4A5381BDE8F0810023BDE749
:101090000022CEE70023DEE7BDE8F0810023F0E781
:1010A000BDE8F081BF1BBAD5C6E7C0F502560E36C3
:1010B000002EDCDABDE8F0811400002084CC002092
:1010C000970F4000F0B4049F154C002525806580E3
:1010D000884210D207EB40044E1E361A013010FA37
:1010E00086F607EB46060E4834F8021B05882944AD
:1010F0000180B442F8D19A4210D207EB42015C1E43
:10110000A41A013212FA84F407EB4404044A31F8B9
:10111000023B508803445380A142F8D1F0BC704791
:1011200078CC0020884210D202EB40030139091A22
:10113000013010FA81F102EB4102002033F8021B6A
:10114000084480B29342F9D17047002070470000F4
:101150002DE9F04F8BB0804607900F460891164658
:1011600005921D460693149A634CA0478246149A32
:1011700029463046A0470990B84580F0AE803846F1
:10118000A8EB0A04149A1546424605EB4807431E8D
:101190009B1A013212FA83F3A3EB0A0A00220023FE
:1011A000CDE90023554E564DDFF87081DFF8709180
:1011B000D346BA462046B0473AF8027B02460B4671
:1011C000A847CDE902013846B04702460B46DDE9A3
:1011D0000201A847CDE90201DDE90001494B98472A
:1011E00002460B46DDE90201C047C847CDE90001D0
:1011F00001345C45DED1149A08990798424B984710
:1012000082B20023DDE90001404CA0473B4B9847E8
:101210003F4B984736A3D3E90023394CA0473D4BB9
:1012200098473D4B1880059A13460698824259D23A
:10123000099D5C1B149A114601EB430700F1FF3A2C
:10124000AAEB030A013313FA8AFAAAEB050A002271
:101250000023CDE90023294E294DDFF8C090DFF8A7
:10126000C0802046B04737F802BB02460B46A8476D
:10127000CDE902015846B04702460B46DDE90201BE
:10128000A847CDE90201DDE900011E4B984702465F
:101290000B46DDE90201C847C047CDE90001013432
:1012A0005445DED1149A06990598174B984782B297
:1012B0000023DDE90001154CA047104B9847144B63
:1012C00098470BA3D3E900230D4CA047114B984737
:1012D000114B58800BB0BDE8F08F00230024CDE9FE
:1012E000003488E700230024CDE90034DAE700BFAA
:1012F000D7A3703D0AD702404D0F4000312E400069
:10130000FD2E4000A12E4000251140009D344000DC
:10131000811C40005D34400080CC0020992B4000AF
:101320003D354000000000002DE9F04F2DED028B0F
:1013300085B080468946174602921E460393109A4E
:10134000394CA0470546109A31463846A047044616
:10135000C8450FDA46464F46A8EB05059FED308B92
:10136000DFF8D0A0DFF8DC90002D4DDD013601352F
:10137000BE42F9DB40462D4B98472D4BC3E9000197
:10138000029A13460398824244DA141B109A02EB25
:10139000430502EB400800231E46DFF89090DFF87B
:1013A000A8A02046234B984735F802BB02460B46BF
:1013B000214FB847CDE9000158461E4B98470246D9
:1013C0000B46DDE90001B847CDE900013046C847CA
:1013D00002460B46DDE90001184EB047D0470646ED
:1013E00001344545DDD1109A03990298144B984772
:1013F000B6FBF0F00D4B98470D4BC3E9020105B069
:10140000BDEC028BBDE8F08F2846D04753EC182B7B
:10141000C847ABE700231E46E5E700BFAFF30080F7
:1014200000000000000000404D0F4000112E400061
:1014300098CC0020312E4000FD2E4000992B40001A
:1014400025114000851940005D3440002DE9F0472A
:101450008AB002AF06460D4601461420844B9847D9
:10146000DFF83482B8F80A30B8F80820B8F8041069
:10147000B8F8020000967F4CA047B8F80A30B8F8D8
:101480000820B8F80410B8F8020000967A4CA0477B
:10149000B8F80A30B8F80820B8F80410B8F8020014
:1014A0000096764CA04700233B827B82BB82FB8266
:1014B0003B837B8342F20F73BB83434607F11004E7
:1014C00008F10C08224633F8021B22F8021B4345A0
:1014D000F9D1B7F812A0BB8A0133A3EB0A039BB280
:1014E00003F1FF385B00083323F00703ADEB030D76
:1014F0000DF10809B7F818C07B8B0133A3EB0C037F
:101500009BB2581E5B00083323F00703ADEB030DBD
:101510000DF1080EB8F1000F0CDD002213460AEBA6
:10152000020136F8111029F8121001339BB21A4645
:101530009845F4DC42F2B82329F8183000280CDD75
:10154000002213460CEB020136F811102EF812108F
:1015500001339BB21A469842F4DC41F661632EF8DF
:101560001030474B1A883A815B887B81454B1A883B
:10157000BA815B88FB8107F1200141F60A2321F83B
:101580001A3D02224048414B984707F11E0ADFF8F6
:10159000F8904FF002083D4E424621464846B0477B
:1015A00002345445F8D107F1080407F1100ADFF8B6
:1015B000D8904FF00208354E424621464846B04783
:1015C0000234A245F8D1DFF8D4802F4E08224146DC
:1015D00030462E4CA047082208EB02013046A047B7
:1015E0002B4B1B88FA339BB241F24702934239D806
:1015F000274A138007F1200142F2B82321F81C3D4D
:10160000214E02223046214CA047DFF8848002227E
:1016100041463046A047DFF87C90022249463046DA
:10162000A047B9F80040B8F800309C420DD2B1464E
:10163000DFF85880164E022205EB84014846C04769
:101640000134A4B23388A342F5D841F24702934251
:1016500002BF00230E4A13800E4A13802037BD4676
:10166000BDE8F08741F24702094B1A80C2E700BF8C
:10167000C50F4000C5104000511140002913400023
:1016800078CC002080CC002000060E40CD01400028
:1016900090CC00207CCC002084CC002098CC002072
:1016A00008B51148114B984710F0010F00D108BD43
:1016B0000D480F4B984778B10E4B1B78002BF6D195
:1016C0000D4B984701230D4A13700A4A13700021ED
:1016D0000B480C4B984708BD064B1B78002BE6D0F7
:1016E0000022044B1A70E2E700C00B407504400072
:1016F0005B044000A8CC0020C90D40007ECC002037
:10170000000009405F0940002DE9F0478CB06F4BA5
:1017100098476F4B98470720DFF83082C0476D4CE1
:101720006D4B1C606D4A6E4B1A606E4A6E4B1A60B0
:101730006E4D05954FF4E13306934FF40069CDF8F3
:101740001C900720C04705A92046694B9847694E61
:10175000336800219868684CA047336800215868B6
:10176000A0472020C047654C2046654B984720463F
:10177000644B984700212046634B98470F22002175
:101780002046624B984700212046614B9847002134
:101790002046604B98474FF4857120465E4B984732
:1017A00040F61C4120465D4B984700275C4B1F804C
:1017B000A4F5004420465B4B984705A85A4B984730
:1017C00002A85A4B984705A92046DFF8A8A1D047A0
:1017D000574E05A93046D04702AA06212046DFF819
:1017E00098A1D04702AA39463046D0477766C6F856
:1017F0006C9006236366C4F86C90736823F08F03C3
:10180000736003970DF1300949F8207D1520C0471A
:1018100000954B4603AA29464648DFF86081C04739
:10182000DFF85C81049A42F4D82239464046424BA4
:101830009847039BB5FBF3F3404AA2FB03235A0CE2
:10184000C8F814201B0CC8F81C30636823F08F0301
:1018500043F0030363600123736140226261384AED
:1018600010212046374DA847E369E365636813F00C
:10187000800F01D108222260334B1A6B002AFCDA58
:101880002120324B9847324C002300934FF4806361
:101890000322702120462F4DA84702222E4B5A606A
:1018A00020462E4B98472E4D2E4C2F4FA84723787D
:1018B000002BFBD000232370B84706462B4B9847DC
:1018C000014630462A4B9847F0E700BF65014000CB
:1018D0008903400000060E40F0CC0020AD0E400011
:1018E000ECCC0020250E4000E8CC002000D8B80544
:1018F000D7094000180000209139400000800B40BB
:10190000710740007707400081074000C50740008D
:10191000AD074000ED07400001084000A907400066
:10192000ACCD00200D074000450540007505400086
:1019300000400B4090D003004509400083DE1B436C
:101940002D0F40008D06400000000B40F1084000C4
:1019500000C00B402104400000E100E06F044000A3
:10196000010E40007ECC00200D0E4000190E4000FC
:101970004D144000810540001505400067094000F6
:10198000000009402DE9F04FDFF8F0928DB00646D7
:101990000F4614461D4600F0D3F999F90080B8F1BE
:1019A000FF3FCDE9000136D022462B46204629468E
:1019B00001F03EFD834670BB32463B463046394619
:1019C00001F036FD002282460023002840F0A0806E
:1019D0003046394601F0FAFC10B3002200232046BD
:1019E000294601F0F3FC834600286AD001229C4B73
:1019F000029200210022CDF828A0CDE90467CDE9AC
:101A00000645CDE908120393B8F1000F45D0954C77
:101A10000023CDE90034DDE900010DB0BDE8F08F11
:101A2000DDE9000100F092FF8046002800F08B8085
:101A30004FF0000A4FF0000B52465B46DDE9000113
:101A400001F0C4FC0028E6D03046394600F07EFFA5
:101A50000028E0D02046294600F078FF0028DAD0A0
:101A600099F900307E4A039204210022022BCDE92D
:101A70000467CDE90645CDE908AB02910A9203D08F
:101A800002A800F069FF68B901F006FF2223036095
:101A900008E000230024CDE9083402A800F05CFF30
:101AA000002830D00A9B1BB101F0F6FE0A9B0360B0
:101AB000DDE90834CDE90034DDE900010DB0BDE811
:101AC000F08F2046294600F041FF0028A3D00022D5
:101AD00000232046294601F083FC00289BD099F979
:101AE00000305F4ACDF828B00121CDE90467CDE987
:101AF000064502910392002BCBD05B490020022BBC
:101B0000CDE90801C9D101F0C7FE21230360C9E76F
:101B10002046294601F05AFC00283FF47CAF514B87
:101B20004F49CDF828B001200022B8F1020FCDE9CD
:101B30000467CDE9064502900391CDE90823ACD1B5
:101B4000CDE9002367E73046394600F0FFFE002864
:101B50003FF46EAF2046294600F0F8FE00283FF41F
:101B600067AFDDE900231046194601F061FC00284B
:101B700058D1032399F900800293394B0A900393BB
:101B8000CDE90467CDE906450022002330463946F9
:101B9000B8F1000F26D1354F4FF06046CDE9086708
:101BA00001F01EFC00283FF46BAF0022304B2046B2
:101BB000294601F0A3F904460D4600F0D5FE024681
:101BC0000B462046294601F001FC40BB294B99F900
:101BD00000804FF06042CDE90823B8F1020F7FF496
:101BE0004FAF51E7244F0026CDE9086701F0F8FB1D
:101BF0000028F2D000221E4B2046294601F07EF933
:101C000004460D4600F0B0FE02460B46204629462B
:101C100001F0DCFB18B9144B0022CDE9082399F937
:101C20000080DAE799F900900D4BCDF82880012269
:101C3000CDE90467CDE9064502920393B9F1000F9F
:101C40003FF427AF002200231046194601F080FA26
:101C5000B9F1020FCDE908013FF455AF1DE700BF10
:101C60009C4940000000F03F0000F0FFFFFFEF47FD
:101C70000000E03FFFFFEFC70000F07F16000020EC
:101C80002DE9F04F8BB004460D4600F09FFD294B27
:101C900093F900A0BAF1FF3F06460F4612D0224644
:101CA0002B462046294601F0C3FB834650B94FF02E
:101CB00000084FF0000942464B462046294601F0F5
:101CC0008FFB20B9304639460BB0BDE8F08F1A4B78
:101CD000CDF820B00122CDE90445CDE902458DE8DB
:101CE0000C00BAF1000F17D042464B464046494619
:101CF00001F02EFABAF1020FCDE906010ED101F082
:101D0000CBFD21230360089B73B9DDE906673046EC
:101D100039460BB0BDE8F08FCDE90689684600F082
:101D20001BFE0028EFD1EAE701F0B6FD089B036037
:101D3000EBE700BF16000020A049400000000000B3
:101D40002DE9F04F23F0004757EA020493B037D053
:101D5000674C21F00046A64283460D4629DC9A4690
:101D6000964625D0A74224DC614CA74279D0002DAD
:101D700089468046CDE9002377DB0024BEF1000FC1
:101D80002CD15B4B9F4200F08B805A4B9F4261D01D
:101D9000BAF1804F00F0BA83574B9A451ED1002DFF
:101DA0001CDB4046494613B0BDE8F04F00F00EBDC5
:101DB00058B106F1404606F5801656EA0B0306D1E7
:101DC0004C49002013B0BDE8F08FB742CCDD4B4842
:101DD00013B0BDE8F04F00F0C1BD002440464946B5
:101DE00000F0B0FDBBF1000F19D126B1414B25F039
:101DF00040429A4213D1BAF1000FC0F2BC83002DC9
:101E0000E0DA06F1404606F5801656EA040300F0D3
:101E10008F84012CD6D101F100431946D2E7ED0F92
:101E2000013D54EA05034ED0354B9F426EDD03F170
:101E300004739F4240F3E883324B9E424EDDBAF179
:101E4000000F4EDD28A3D3E900231046194601F008
:101E500055F8B7E7BAF1000FC0F23C844046494656
:101E6000B0E7BEF1000F82D0A3E7274B9F4228DCEA
:101E7000A3F154739F4280DD3B15A3F2FF33142B73
:101E800040F33E84C3F134032EFA03F202FA03F363
:101E90009E457FF472AF02F00102C2F102046DE7C9
:101EA00006F1404303F5801353EA0B0388D0154B2A
:101EB0009E4240F33283BAF1000F12DBDDE90001EC
:101EC00080E702245AE742464B464046494600F026
:101ED00061FE02460B4601F03BF973E7BAF1000FD1
:101EE000B0DB002000216DE79C7500883CE4377E64
:101EF0000000F07F0000F03F0000E03FA4494000F8
:101F00000000E041FFFFEF3FFFFF3F43B6F5801FBA
:101F10004FF0000205DAD44B00F0F0FF6FF034020E
:101F20000E463315D14FC6F31306A3F2FF33134405
:101F300046F07F5ABE421A460D934AF4401A40F3C7
:101F40002183CB4B9E4240F3FD83134601330D9317
:101F5000C84B0022CDE9062300270026CDE90867FB
:101F6000CDE90E67AAF5801A00270246534651466E
:101F7000CDE90A23DDE9062300F00CFEDDE90623A6
:101F800080468946DDE90A0100F006FE02460B465E
:101F90000020B84901F0DCF80A460146CDE91012EC
:101FA000134649460246404600F0A8FF4FEA6A033E
:101FB00043F000538C46834603F50023CDE904BC6F
:101FC000DA468B46D9190023CDE902AB0293DDE94D
:101FD00002AB002006460F4602460B4650465946C5
:101FE00000F08CFF02460B464046494600F0D2FD09
:101FF000DDE90623804689463046394600F0CAFDB1
:1020000002460B46DDE90A0100F0C4FD52465B467C
:1020100000F074FF02460B464046494600F0BAFD08
:10202000DDE9102300F06AFFDDE90467CDE9060170
:1020300032463B463046394600F060FF78A3D3E98C
:10204000002306460F4600F059FF77A3D3E900238B
:1020500000F0A2FD32463B4600F050FF74A3D3E9E6
:10206000002300F099FD32463B4600F047FF72A383
:10207000D3E9002300F090FD32463B4600F03EFFDE
:102080006FA3D3E9002300F087FD32463B4600F002
:1020900035FF6DA3D3E9002300F07EFD3246804674
:1020A00089463B463046394600F028FF02460B463B
:1020B0004046494600F022FF524606460F465B4620
:1020C000DDE9040100F068FDDDE9062300F016FFFC
:1020D00032463B4600F060FD5246804689465B46EC
:1020E0005046594600F00AFF0022634BCDE90A0131
:1020F00000F052FD42464B4600F04EFD02980F465E
:10210000064632463B465046594600F0F7FE00224E
:1021100082468B46584B3046394600F03BFDDDE9A0
:102120000A2300F037FD02460B464046494600F0C0
:1021300031FDDDE9042300F0E1FE324680468946A8
:102140003B46DDE9060100F0D9FE02460B4640465B
:10215000494600F021FD8046894602460B4650461E
:102160005946CDE904AB00F017FDDDE902AB38A319
:10217000D3E9002350460F4600F0C0FEDDE90423FA
:10218000CDE902013946504600F004FD02460B46F7
:102190004046494600F0FEFC2FA3D3E9002300F09F
:1021A000ADFE2FA3D3E90023804689465046394629
:1021B00000F0A4FE02460B464046494600F0ECFC07
:1021C000DDE90E2300F0E8FC80460D98894600F01A
:1021D0002FFE424606460F464B46DDE9020100F05F
:1021E000DBFCDDE9082300F0D7FC32463B4600F07B
:1021F000D3FC32463B4650468B4600F0CBFCDDE933
:10220000082300F0C7FCDDE9022300F0C3FC02460E
:102210000B464046494600F0BDFC80462EE000BF1C
:10222000EF4E454A287ECA3F65DBC9934A86CD3FBB
:1022300001411DA96074D13F4D268F515555D53FA1
:10224000FFAB6FDBB66DDB3F033333333333E33F39
:10225000000000E009C7EE3FFD033ADC09C7EE3F8E
:10226000F5015B14E02F3EBE000040438E98030052
:1022700079B60B000000F03F000008408946013CA1
:1022800054EA0503DDE9000114BFD94CD94C002301
:10229000CDE9043403460C46CDE902340023029311
:1022A000DDE9024522462B4600F074FC52465B46AF
:1022B00000F024FEDDE9002306460F46404649466D
:1022C00000F01CFE02460B463046394600F064FC26
:1022D0002246804689462B4650465946CDE900891C
:1022E00000F00CFE0B46024606460F4640464946A5
:1022F00000F052FCC04B994204460D468A4640F31A
:10230000168101F13F4303F5E003034340F0EA8106
:10231000A3A3D3E90023DDE9000100F03DFC324630
:10232000804689463B462046294600F033FC02465B
:102330000B464046494601F071F8002840F0D28132
:10234000A8464FEA28534FF48012A3F2FE3342FA14
:1023500003F35344C3F30A52A84DA2F2FF321541CE
:10236000C3F3130423EA05010020C2F1140B44F463
:102370008014BAF1000F02460B4644FA0BFB3046BC
:102380003946B8BFCBF1000B00F004FC02460B4607
:1023900006460F46DDE9000100F0FEFB4FEA0B5A4E
:1023A0000D46002480A3D3E900232046294600F0EF
:1023B000A5FD3246804689463B462046294600F028
:1023C000E9FB02460B46DDE9000100F0E3FB78A3E0
:1023D000D3E9002300F092FD77A3D3E9002306465A
:1023E0000F462046294600F089FD02460B4630463E
:1023F000394600F0D1FB06460F4602460B464046E2
:10240000494600F0C9FB42464B4604460D4600F0E3
:10241000C1FB02460B463046394600F0BBFB224664
:10242000804689462B462046294600F067FD64A376
:10243000D3E9002306460F4600F060FD62A3D3E90E
:10244000002300F0A7FB32463B4600F057FD60A397
:10245000D3E9002300F0A0FB32463B4600F04EFDDE
:102460005DA3D3E9002300F095FB32463B4600F024
:1024700045FD5BA3D3E9002300F08EFB32463B46CB
:1024800000F03CFD02460B462046294600F082FB48
:1024900006460F4602460B462046294600F02EFD12
:1024A0000022CDE900014FF080433046394600F06C
:1024B00071FB02460B46DDE9000100F049FE424691
:1024C00006460F464B462046294600F017FD424679
:1024D0004B4600F061FB02460B463046394600F0A1
:1024E00059FB22462B4600F055FB02460B460020C6
:1024F0003F4900F04FFB8A44BAF5801FC0F2338198
:102500005146DDE9042300F0F9FC5BE44246404615
:102510004B46494600F0F2FC54E4BAF1000FBFF616
:10252000E0ACDDE90034184604F100414AE4344BE4
:1025300021F00048984540F3F280324B0B440343AE
:102540000CD132463B4600F025FB02460B46DDE946
:10255000000100F04FFF00283FF4F3AEDDE9040175
:1025600021A3D3E9002300F0C9FC1FA3D3E9002372
:1025700000F0C4FC26E402460B4600201C4900F093
:10258000E7FD3CE400220023CDE90823CDE90E233A
:10259000174B00220027CDE90623E6E4AFF30080C5
:1025A000FE822B654715973C00000000432EE63F56
:1025B000EF39FAFE422EE63F396CA80C615C20BE72
:1025C000D0A4BE726937663EF16BD2C541BDBB3E39
:1025D0002CDE25AF6A56113F93BDBE166CC1663F17
:1025E0003E5555555555C53F59F3F8C21F6EA501C7
:1025F0000000F03F0000F0BFFFFF8F40FFFF0F0023
:10260000FFCB904000346F3F6B4B9E427FF766AC30
:102610006A4B9E423FF713AC0022684B00F0BAFAB7
:1026200057A3D3E9002306460F4600F067FC56A3E4
:10263000D3E90023804689463046394600F05EFCE7
:10264000002282468B465E4B3046394600F056FCEF
:1026500002460B464EA1D1E9000100F09BFA32463A
:102660003B4600F04BFC02460B460020554900F06B
:1026700091FA3246CDE902013B463046394600F038
:102680003DFC02460B46DDE9020100F037FC42A3A7
:10269000D3E9002300F032FC02460B46504659466F
:1026A00000F078FA02460B4606460F464046494679
:1026B00000F072FA42464B46002082468B4600F0FC
:1026C00069FA02460B463046394600F063FA804606
:1026D0008946D4E542464B460020384900F038FD93
:1026E000FFF770BBDDE904012DA3D3E9002300F05F
:1026F00005FC2BA3D3E9002300F000FCFFF762BB2D
:10270000BEF1000F7FF469ABC3F1140347FA03F283
:1027100002FA03F39F422AD07446FFF736BB294BD7
:1027200098453FF70EAEDDE902239246934638E620
:1027300002460B4600F02EFA02460B4600F008FD5A
:10274000FFF740BB18A3D3E90023CDE9082318A362
:10275000D3E90023CDE90E231B4B00224FF4802741
:10276000CDE9062301E45A4600F08AF9C9E602F0F1
:102770000102C2F10204FFF708BB00BFAFF3008003
:10278000000000604715F73F44DF5DF80BAE543E94
:10279000555555555555D53FFE822B654715F73F85
:1027A0009C7500883CE4377E0000004003B8E23F9F
:1027B00006D0CF43EBFD4C3EFEFFEF3F0000F03F65
:1027C0000000D03F0000E03F0000F83F2DE9F84353
:1027D0005B4F8F4305460C4600F0928000290B4664
:1027E00002466FDD0F157BD0A7F2FF37C3F313034B
:1027F000F80743F480135CD403EBD27100260B443A
:102800007F105200B64616204FF400110EEB010463
:102810009C424FEAD2754FEA420203DC1B1B04EBD9
:10282000010E0E44013805EB43034FEA5101EDD18F
:10283000844620244FF0004109E020D003EBD275FC
:10284000013C4FEA51012B444FEA420220D073452C
:1028500001EB0C05F1DD002D05EB010C09DBF04669
:102860009542A3EB0E0300D9013B521B0844C64618
:10287000E4E7BCF1000FF2DB0EF10108F0E795424E
:10288000DCD8002D05EB010C44DB98460023ECE777
:10289000134313D14008731003F17F5303F5001362
:1028A000F20703EB075948BF40F000404946BDE836
:1028B000F8835B0003EBD27352009DE7411C2DD0DF
:1028C0000130E7E7064621F000473E43EFD069BB01
:1028D0000F46D30A153F5205002BFAD0DE0220D452
:1028E000002400E004465B00DD0204F10100F9D59C
:1028F000C0F1200122FA01F10B433F1B824073E734
:1029000002460B4600F0FAFA2A46234600F044F944
:10291000BDE8F883BCF1000FAEDAB6E70136204619
:10292000B9E7002020214FF0FF34E3E702460B46D1
:1029300000F030F902460B4600F00AFCB7E700BF92
:102940000000F07F21F00041704700BF41F00041DE
:1029500001F58010C00F704700207047002001492A
:10296000704700BF0000F87FF0B5C1F30A5EAEF219
:10297000FF36132E83B002460B460C464FEAD17544
:1029800007462EDC002E49DB3A49314103EA0100BB
:1029900010432BD049080B4053EA02070CD04FF4E8
:1029A0008023132E24EA010143FA06F444EA0104C9
:1029B0000CBF4FF0004700272F4B03EBC505214606
:1029C000D5E90045384622462B4600F0E5F8CDE92A
:1029D000000122462B46DDE9000100F0DBF803B0E0
:1029E000F0BD332E06DDB6F5806F40D01046194697
:1029F00003B0F0BDAEF2134E4FF0FF3121FA0EF1ED
:102A00000842F3D049080842D6D04FF0804320EA6C
:102A1000010143FA0EFE4EEA0107CDE721F0004125
:102A20000143E3D0C3F31301134E0143C1F1000C82
:102A300006EBC506D6E900674CEA010C4FEA1C3CE0
:102A40005C0C64040CF4002343EA040132463B4668
:102A500000F0A2F8CDE9000132463B46DDE9000175
:102A600000F098F821F0004444EAC571C0E700F096
:102A700093F8BDE7FFFF0F00A849400000000000E9
:102A8000F8B5C1F30A5604460D460B4617460EBB71
:102A900021F000430343864625D00022344B00F04A
:102AA0002DFA344A974204460D460B462ADBC1F301
:102AB0000A56363E3E4440F2FE72964228DC002E14
:102AC00012DD23F0FF4323F4E00343EA06552046DA
:102AD0002946F8BD40F2FF729642EBD102460B4602
:102AE00000F05AF8F8BDF8BD16F1350F1DDA4CF2BA
:102AF00050339F4222462B4625DC19A1D1E9000123
:102B000000F03CF816A3D3E9002300F0F7F9F8BD74
:102B100022462B4614A1D1E9000100F02FF812A3A0
:102B2000D3E9002300F0EAF9F8BD23F0FF4323F4D2
:102B3000E003363643EA06552046294600220E4B6E
:102B400000F0DCF9F8BD08A1D1E9000100F016F8A9
:102B500005A3D3E9002300F0D1F9F8BDAFF300805D
:102B600059F3F8C21F6EA5019C7500883CE4377EBE
:102B700000005043B03CFFFF0000903C03F00043D6
:102B800021F0004242EA0301704700BF81F000419A
:102B900002E000BF83F0004330B54FEA41044FEA42
:102BA000430594EA050F08BF90EA020F1FBF54EADD
:102BB000000C55EA020C7FEA645C7FEA655C00F079
:102BC000E2804FEA5454D4EB5555B8BF6D420CDD4A
:102BD0002C4480EA020281EA030382EA000083EACD
:102BE000010180EA020281EA0303362D88BF30BD6D
:102BF00011F0004F4FEA01314FF4801C4CEA1131C3
:102C000002D0404261EB410113F0004F4FEA033321
:102C10004CEA133302D0524263EB430394EA050FAC
:102C200000F0A780A4F10104D5F1200E0DDB02FA1B
:102C30000EFC22FA05F2801841F1000103FA0EF2AF
:102C4000801843FA05F359410EE0A5F120050EF175
:102C5000200E012A03FA0EFC28BF4CF0020C43FAA6
:102C600005F3C01851EBE37101F0004507D54FF0B3
:102C7000000EDCF1000C7EEB00006EEB0101B1F503
:102C8000801F1BD3B1F5001F0CD349085FEA300049
:102C90004FEA3C0C04F101044FEA445212F5800F54
:102CA00080F09A80BCF1004F08BF5FEA500C50F1F1
:102CB000000041EB045141EA050130BD5FEA4C0CD4
:102CC000404141EB010111F4801FA4F10104E9D15D
:102CD00091F0000F04BF01460020B1FA81F308BF54
:102CE0002033A3F10B03B3F120020CDA0C3208DD20
:102CF00002F1140CC2F10C0201FA0CF021FA02F1FB
:102D00000CE002F11402D8BFC2F1200C01FA02F16A
:102D100020FA0CFCDCBF41EA0C019040E41AA2BF8F
:102D200001EB0451294330BD6FEA04041F3C1CDA57
:102D30000C340EDC04F11404C4F1200220FA04F077
:102D400001FA02F340EA030021FA04F345EA030121
:102D500030BDC4F10C04C4F1200220FA02F001FAE3
:102D600004F340EA0300294630BD21FA04F0294665
:102D700030BD94F0000F83F4801306BF81F48011FE
:102D80000134013D4EE77FEA645C18BF7FEA655C71
:102D900029D094EA050F08BF90EA020F05D054EA43
:102DA000000C04BF1946104630BD91EA030F1EBF48
:102DB0000021002030BD5FEA545C05D1400049414C
:102DC00028BF41F0004130BD14F580043CBF01F53F
:102DD000801130BD01F0004545F0FE4141F4700125
:102DE0004FF0000030BD7FEA645C1ABF1946104600
:102DF0007FEA655C1CBF0B46024650EA013406BF01
:102E000052EA033591EA030F41F4002130BD00BFBF
:102E100090F0000F04BF0021704730B54FF480647C
:102E200004F132044FF000054FF0000150E700BFFD
:102E300090F0000F04BF0021704730B54FF480645C
:102E400004F1320410F0004548BF40424FF0000149
:102E50003EE700BF42004FEAE2014FEA31014FEA8C
:102E600002701FBF12F07F4393F07F4F81F06051DB
:102E7000704792F0000F14BF93F07F4F704730B54A
:102E80004FF4607401F0004521F0004120E700BFDD
:102E900050EA010208BF704730B54FF000050AE064
:102EA00050EA010208BF704730B511F0004502D565
:102EB000404261EB41014FF4806404F132045FEA67
:102EC000915C3FF4DCAE4FF003025FEADC0C18BF0C
:102ED00003325FEADC0C18BF033202EBDC02C2F102
:102EE000200300FA03FC20FA02F001FA03FE40EA94
:102EF0000E0021FA02F11444C1E600BF70B54FF094
:102F0000FF0C4CF4E06C1CEA11541DBF1CEA135575
:102F100094EA0C0F95EA0C0F00F0DEF82C4481EADD
:102F2000030621EA4C5123EA4C5350EA013518BFFD
:102F300052EA033541F4801143F4801338D0A0FBEA
:102F400002CE4FF00005E1FB02E506F00042E0FB97
:102F500003E54FF00006E1FB03569CF0000F18BF9D
:102F60004EF0010EA4F1FF04B6F5007F64F5407445
:102F700004D25FEA4E0E6D4146EB060642EAC621D8
:102F800041EA55514FEAC52040EA5E504FEACE2E45
:102F9000B4F1FD0C88BFBCF5E06F1ED8BEF1004F48
:102FA00008BF5FEA500E50F1000041EB045170BDC4
:102FB00006F0004646EA010140EA020081EA030108
:102FC000B4EB5C04C2BFD4EB0C0541EA045170BD04
:102FD00041F480114FF0000E013C00F3AB8014F17E
:102FE000360FDEBF002001F0004170BDC4F10004C7
:102FF000203C35DA0C341BDC04F11404C4F1200548
:1030000000FA05F320FA04F001FA05F240EA0200A2
:1030100001F0004221F0004110EBD37021FA04F6D8
:1030200042EB06015EEA430E08BF20EAD37070BD92
:10303000C4F10C04C4F1200500FA04F320FA05F0F1
:1030400001FA04F240EA020001F0004110EBD370F3
:1030500041F100015EEA430E08BF20EAD37070BD63
:10306000C4F1200500FA05F24EEA020E20FA04F33C
:1030700001FA05F243EA020321FA04F001F00041EB
:1030800021FA04F220EA020000EBD3705EEA430E5C
:1030900008BF20EAD37070BD94F0000F0FD101F08B
:1030A0000046400041EB010111F4801F08BF013CC4
:1030B000F7D041EA060195F0000F18BF704703F002
:1030C0000046520043EB030313F4801F08BF013D89
:1030D000F7D043EA0603704794EA0C0F0CEA135545
:1030E00018BF95EA0C0F0CD050EA410618BF52EAFF
:1030F0004306D1D181EA030101F000414FF0000005
:1031000070BD50EA410606BF1046194652EA430612
:1031100019D094EA0C0F02D150EA013613D195EA86
:103120000C0F05D152EA03361CBF104619460AD1CE
:1031300081EA030101F0004141F0FE4141F47001D8
:103140004FF0000070BD41F0FE4141F4780170BDC8
:1031500070B54FF0FF0C4CF4E06C1CEA11541DBF2D
:103160001CEA135594EA0C0F95EA0C0F00F0A7F82F
:10317000A4EB050481EA030E52EA03354FEA01315C
:1031800000F088804FEA03334FF0805545EA13136F
:1031900043EA12634FEA022245EA111545EA106537
:1031A0004FEA00260EF000419D4208BF964244F1CE
:1031B000FD0404F5407402D25B084FEA3202B61AED
:1031C00065EB03055B084FEA32024FF480104FF4C1
:1031D000002CB6EB020E75EB030E22BFB61A754635
:1031E00040EA0C005B084FEA3202B6EB020E75EBC8
:1031F000030E22BFB61A754640EA5C005B084FEA30
:103200003202B6EB020E75EB030E22BFB61A7546FC
:1032100040EA9C005B084FEA3202B6EB020E75EB07
:10322000030E22BFB61A754640EADC0055EA060EC8
:1032300018D04FEA051545EA16754FEA06164FEA0B
:10324000C30343EA52734FEAC2025FEA1C1CC0D1B7
:1032500011F4801F0BD141EA00014FF000004FF044
:10326000004CB6E711F4801F04BF01430020B4F105
:10327000FD0C88BFBCF5E06F3FF6AFAEB5EB030CBD
:1032800004BFB6EB020C5FEA500C50F1000041EBBA
:10329000045170BD0EF0004E4EEA113114EB5C0487
:1032A000C2BFD4EB0C0541EA045170BD41F480115A
:1032B0004FF0000E013C90E645EA060E8DE60CEA62
:1032C000135594EA0C0F08BF95EA0C0F3FF43BAF7F
:1032D00094EA0C0F0AD150EA01347FF434AF95EA36
:1032E0000C0F7FF425AF104619462CE795EA0C0F1A
:1032F00006D152EA03353FF4FDAE1046194622E7E7
:1033000050EA410618BF52EA43067FF4C5AE50EAC0
:1033100041047FF40DAF52EA43057FF4EBAE12E7B0
:103320004FF0FF3C06E000BF4FF0010C02E000BF91
:103330004FF0010C4DF804CD4FEA410C7FEA6C5C74
:103340004FEA430C18BF7FEA6C5C1BD001B050EA17
:10335000410C0CBF52EA430C91EA030F02BF90EA02
:10336000020F0020704710F1000F91EA030F58BFC1
:10337000994208BF90422CBFD8176FEAE37040F023
:10338000010070474FEA410C7FEA6C5C02D150EAC1
:10339000013C07D14FEA430C7FEA6C5CD6D152EA7C
:1033A000033CD3D05DF8040B704700BF8446104641
:1033B00062468C461946634600E000BF01B5FFF740
:1033C000B7FF002848BF10F1000F01BD4DF808ED10
:1033D000FFF7F4FF0CBF012000205DF808FB00BFE1
:1033E0004DF808EDFFF7EAFF34BF012000205DF83B
:1033F00008FB00BF4DF808EDFFF7E0FF94BF012088
:1034000000205DF808FB00BF4DF808EDFFF7CEFF88
:1034100094BF012000205DF808FB00BF4DF808EDC7
:10342000FFF7C4FF34BF012000205DF808FB00BF98
:103430004FEA410C7FEA6C5C02D150EA013C0AD1B0
:103440004FEA430C7FEA6C5C02D152EA033C02D1A2
:103450004FF0000070474FF0010070474A0011D252
:1034600012F5001211D20DD56FF47873B3EB6252DE
:103470000ED44FEAC12343F0004343EA505323FAEA
:1034800002F070474FF00000704750EA013002D15F
:103490004FF0FF3070474FF0000070477BB972B9B2
:1034A0000029BEBF00204FF0004106E008BF002801
:1034B0001CBF6FF000414FF0FF3000F0EBB9ADF1F1
:1034C000080C6DE904CE002909DB002B1ADB00F0A3
:1034D00073F8DDF804E0DDE9022304B070474042F0
:1034E00061EB4101002B1BDB00F066F8DDF804E026
:1034F000DDE9022304B0404261EB4101524263EB3B
:1035000043037047524263EB430300F055F8DDF884
:1035100004E0DDE9022304B0404261EB4101704761
:10352000524263EB430300F047F8DDF804E0DDE9C5
:10353000022304B0524263EB4303704738B505469B
:103540000C462846214600220023FFF749FF28B9F0
:1035500028462146BDE8384000F00AB8284604F164
:10356000004100F005F8404261EB410138BD00BF69
:10357000D0B500220E4B06460F46FFF7BFFCFFF703
:103580006DFF0446FFF744FC00220A4BFFF7B6FC30
:1035900002460B4630463946FFF7FCFAFFF75EFF5E
:1035A0002346002242EA000210461946D0BD00BF61
:1035B0000000F03D0000F0412DE9F0478C460D463B
:1035C0000446089E002B51D18A4217466DD9B2FAA3
:1035D00082FEBEF1000F0BD0CEF1200C01FA0EF5E9
:1035E00020FA0CFC02FA0EF74CEA050C00FA0EF475
:1035F0004FEA174A250CBCFBFAF81FFA87F90AFBB9
:1036000018CC45EA0C4508FB09F3AB420AD9ED1981
:1036100008F1FF3280F02381AB4240F22081A8F113
:1036200002083D44ED1AA4B2B5FBFAF00AFB1055AE
:1036300044EA054400FB09F9A14509D9E41900F160
:10364000FF3380F00A81A14540F2078102383C44F3
:10365000A4EB090440EA08400021002E61D024FABE
:103660000EF4002334607360BDE8F0878B4207D905
:10367000002E54D0002186E821000846BDE8F087DE
:10368000B3FA83F1002940F08E80AB4202D382422C
:1036900000F2FA80841A65EB03050120AC46002E87
:1036A0003FD086E81010BDE8F08712B90127B7FBBC
:1036B000F2F7B7FA87FEBEF1000F34D1EB1B3A0CDC
:1036C0001FFA87FC0121B3FBF2F8250C02FB18332B
:1036D00045EA03450CFB08F3AB4207D9ED1908F1A5
:1036E000FF3002D2AB4200F2D1808046ED1AA3B285
:1036F000B5FBF2F002FB105543EA05440CFB00FC5D
:10370000A44507D9E41900F1FF3302D2A44500F221
:10371000B8801846A4EB0C0440EA08409DE7314607
:103720003046BDE8F087CEF1200405FA0EF307FA23
:103730000EF720FA04F83A0C25FA04F448EA0308D4
:10374000B4FBF2F14FEA184502FB11441FFA87FC63
:1037500045EA044501FB0CF3AB4200FA0EF409D92B
:10376000ED1901F1FF3080F08A80AB4240F2878092
:1037700002393D44EB1A1FFA88F5B3FBF2F002FB65
:10378000103345EA034500FB0CF3AB4207D9ED19B2
:1037900000F1FF386FD2AB426DD902383D44EB1ACD
:1037A00040EA01418FE7C1F1200722FA07F88B4078
:1037B00005FA01F448EA030320FA07FE4FEA134C26
:1037C000FD404EEA040EB5FBFCF94FEA1E440CFB2B
:1037D00019551FFA83F844EA054509FB08F4AC4281
:1037E00002FA01F200FA01FA08D9ED1809F1FF30E6
:1037F00043D2AC4241D9A9F102091D442D1B1FFA45
:103800008EFEB5FBFCF00CFB10554EEA054400FBA8
:1038100008F8A04507D9E41800F1FF3529D2A045E2
:1038200027D902381C4440EA0940A4EB0804A0FB55
:1038300002894C45C6464D4615D312D056B1BAEB57
:103840000E0364EB050404FA07F7CB401F43CC409A
:10385000376074600021BDE8F0871846F8E69046AE
:10386000E0E6C245EAD2B8EB020E69EB0305013887
:10387000E4E72846D7E7404691E78146BEE70146A0
:1038800078E702383C4445E7084608E7A8F1020813
:103890003D442BE7704700BF014B1868704700BFDD
:1038A0001800002070B50F4E0F4D761BB61018BFD4
:1038B000002405D0013455F8043B9847A642F9D1BD
:1038C0000A4E0B4D761B01F079F8B61018BF002494
:1038D00006D0013455F8043B9847A642F9D170BD93
:1038E00070BD00BFC8494000C8494000D0494000F1
:1038F000C849400070B4860746D0541E002A41D003
:10390000CAB2034602E014F1FF343BD303F8012BA3
:103910009D07F8D1032C2ED9CDB245EA05250F2CF1
:1039200045EA054519D903F110022646103E0F2E2F
:1039300042F8105C42F80C5C42F8085C42F8045C07
:1039400002F11002F2D8A4F1100222F00F0204F0EA
:103950000F041032032C13440DD91E462246043A9C
:10396000032A46F8045BFAD8221F22F0030204322D
:10397000134404F003042CB1C9B21C4403F8011B26
:103980009C42FBD170BC704714460346C2E700BF9F
:1039900000290CBF022200224FF4806300F000B81F
:1039A0002DE9F043614C256883B004460F469046EC
:1039B0001E4615B1AB6B002B64D0B8F1020F06D0D8
:1039C000B8F1010F00F29F80002EC0F29C80636E60
:1039D000D80734D52146284600F05AF9216B41B169
:1039E00004F14003994202D0284600F04BFA00232C
:1039F0002363B4F90C300022A26162601A063AD443
:103A000023F44A6323F00303B8F1020FA3811DD00E
:103A100001AB6A462146284600F04CFBA3891843B7
:103A2000A081002E32D1009E304600F071FB074687
:103A300000286BD0A38943F08003A38128E0A389E9
:103A40009905C7D4A06D00F031FBC3E70025616E76
:103A5000002604F1430243F002030120A660CE07D2
:103A6000A38122602261606101D498053ED5284679
:103A700003B0BDE8F0832169284600F003FAB4F9E9
:103A80000C30BDE7284600F05BF996E7002FCBD05D
:103A9000AB6B002B33D0009BB4F90C2027609E4207
:103AA0001CBF42F40062A281B8F1010F04BF42F0D2
:103AB0000102A28192B212F00803276166610ED062
:103AC000D1071AD5656E7642002315F00105A6616F
:103AD000A36009D00025284603B0BDE8F083A360A9
:103AE000656E15F00105F5D19305C0D4A06D00F009
:103AF000DFFA284603B0BDE8F083A660F0E7284669
:103B000000F01EF9C7E74FF0FF35B0E7DDF8009091
:103B1000B14504D0484600F0FBFA074620B9B4F995
:103B20000C304FF0FF3592E74E4683E71800002037
:103B3000024B13B1024800F005B8704700000000C6
:103B4000B13D4000002301461A46184600F010BE61
:103B5000B1F90C309AB22DE9F0410D4611078046BB
:103B60003AD46A6843F40063002AAB816FDDAC6A23
:103B7000002C49D000229BB2D8F80060C8F8002081
:103B800013F4805267D02A6D5F0705D569682B6BE7
:103B9000521A0BB1EB6BD21A0023E9694046A047D9
:103BA000441C3CD0B5F90C302A692A6023F4006328
:103BB0000022AB81DB046A6047D4296BC8F800603F
:103BC00011B305F14003994202D0404600F05AF982
:103BD00000202863BDE8F0812E69AEB12C682E600C
:103BE00091070CBF6B690023A41BAB600AE023465E
:103BF00032466F6AE9694046B8470028A4EB0004E2
:103C0000064404DD002CF2DC0020BDE8F081AB8925
:103C100043F04003AB814FF0FF30BDE8F081D8F8AE
:103C200000401D2CF3D8194BE340DB4313F0010394
:103C3000EDD1B5F90C206B6022F400632969AB81EA
:103C4000DA042960B9D5002CB7D12865B5E7EA6B4D
:103C5000002A8CDCD8E70123E9694046A047431CD1
:103C6000024602D0AB89AC6A8EE7D8F80030002B50
:103C7000F8D01D2B01D0162B02D1C8F80060C3E785
:103C8000AB8943F04003AB81BDE8F08101004020E7
:103C900038B50D46044608B1836BBBB1B5F90C00CD
:103CA00088B16B6EDB0701D4810517D52046294604
:103CB000FFF74EFF6B6EDA07044602D4AB899B0513
:103CC00007D5204638BD0446204638BD00F038F8F8
:103CD000E4E7A86D00F0ECF9204638BDA86D00F0CF
:103CE000E5F9E3E7014900F0B3B900BF59484000E6
:103CF00010B5002304468181C28103604360836064
:103D00004366036143618361194608225C30FFF713
:103D1000F1FD07480749084A084B2062E4616162E7
:103D2000A262E36204F15800BDE8104000F0BAB9A5
:103D3000BD464000E14640001D4740003D47400071
:103D400010B50446124800F0B1F9A26BD2B904F5DF
:103D50003B731048C4F8E8320321C4F8E022E06362
:103D6000C4F8E41260680421FFF7C2FF01220921B0
:103D7000A068FFF7BDFF02221221E068FFF7B8FF3D
:103D80000123A3630248BDE8104000F091B900BFD1
:103D9000BCCD0020E53C4000014800F087B900BFE1
:103DA000D0CD0020014800F083B900BFD0CD002065
:103DB00038B50A4C0A4D641BA4100AD004F18043A4
:103DC000013B05EB8305013C55F804399847002C6D
:103DD000F9D1BDE8384000F0FBBD00BFE04940002C
:103DE000DC494000F8B5244F0C46064600F048FC7C
:103DF000BB685D68C4F57E610F3125F00305294479
:103E000021F47F6121F00F01A1F58054B4F5805FAA
:103E100007DB0021304600F03FFCBB682B44984292
:103E200004D0304600F032FC0020F8BD614230463C
:103E300000F032FC01300DD0104BBA6819682D1B10
:103E400045F001053046091B5560196000F01EFC65
:103E50000120F8BD0021304600F01EFCBA68831A2C
:103E60000F2BDEDD064C0549246843F00103001BDF
:103E700053600860D5E700BF4C040020ACCC0020A4
:103E800054080020002944D02DE9F0410D46804619
:103E900000F0F6FB55F8047C694927F00103A5F111
:103EA0000804E2188E685068B24220F003005ED029
:103EB000FE0750600BD455F8087CE41B01F1080E96
:103EC000A56875453B446DD0E768EF60BD60151887
:103ED0006D68ED073ED543F001026260E350B3F533
:103EE000007F17D2DB08581C9A104D6851F83070CB
:103EF000A7600123934001EBC0022B43083AE26024
:103F00004B6041F83040FC604046BDE8F04100F0B5
:103F1000BDBB70475A0A042A52D89A0902F13907E0
:103F2000FF0002F13805C819CA59083890424FD02D
:103F3000516821F003018B4232D292689042F7D14E
:103F4000C368A060E3609C60C4604046BDE8F04187
:103F500000F09CBB95683B4FBD42034440D0D06805
:103F6000E86043F0010285606260E350B7E7FF0755
:103F7000034407D455F8082CA41A1344A068E26837
:103F8000C2609060304A126843F001009342606062
:103F90008C60B9D32D4B40461968FFF723FFB3E778
:103FA0001046CDE711184968C90744D49168D26812
:103FB000CA60034443F0010091606060E350A3E7EE
:103FC000142A16D802F15C07FF0002F15B05AAE78C
:103FD000AA1001234D6893402B434B600346B0E782
:103FE00043F001024C610C61E560A5606260E35042
:103FF0008AE7542A06D81A0B02F16F07FF0002F174
:104000006E0590E7B2F5AA7F06D8DA0B02F17807C1
:10401000FF0002F1770586E740F25450824206D84D
:104020009A0C02F17D07FF0002F17C057BE74FF45B
:104030007E777E2577E743F001016160136063E7D7
:104040004C0400205404002058080020DCCC002040
:104050002DE9F84310F538771FD0884606464FF013
:1040600000097D68BC68013D11D4A389012B05F1CD
:10407000FF3508D9B4F90E3001332146304602D05D
:10408000C04749EA00096B1C04F16804EDD13F68A0
:10409000002FE6D14846BDE8F883B9464846BDE85A
:1040A000F88300BF704700BF704700BF704700BF74
:1040B000704700BF70B50C46B1F90E10002990B0E2
:1040C00015461E4614DB01AA00F028FC00280FDB71
:1040D000029A02F47042A2F50052B2FA82F2520938
:1040E0004FF480634FF4006032602B6010B070BDFD
:1040F000A289002312F08000336004D040221846C9
:104100002A6010B070BD4FF480632B6010B070BD9A
:10411000024B0146186800F003B800BF18000020E9
:104120002DE9F04F01F10B06162E83B0054640F243
:104130009E8036F0070600F1BD80B14200F2BA80E1
:1041400000F09EFAB6F5FC7FC0F09382730A00F08F
:10415000B880042B00F27981B30903F1390003F12F
:10416000380EC300BF4F3B44A3F108015C68A14275
:1041700006D10CE0002A80F2AA80E468A14206D0B1
:10418000636823F003039A1B0F2AF3DD70463C6932
:10419000DFF8E4E2744500F0AB81636823F00303C9
:1041A0009A1B0F2A00F39081002AC7F814E0C7F881
:1041B00010E080F29D80B3F5007F80F06181DB0824
:1041C00003F1010C99107A6857F83C80C4F8088014
:1041D00001238B4007EBCC0113430839E1607B607E
:1041E00047F83C40C8F80C408210012494409C429F
:1041F00000F28B801C4206D120F0030064001C42B8
:1042000000F10400FAD007EBC009CC468046DCF888
:104210000C309C4507D16DE1002A80F27B81DB6880
:104220009C4500F06781596821F003018A1B0F2A21
:10423000F2DDD3F80CC0D3F8088000939C1928460F
:1042400046F0010642F001055E60C8F80CC0CCF8EB
:1042500008807C613C61C4F80CE0C4F808E065604B
:104260005A5000F013FA009B03F108041EE01029D5
:1042700020D800F005FA102618230220794F3B447D
:10428000A3F108025C68944200F03D816368E16834
:10429000A66823F00303234428465A68F16042F0DD
:1042A00001028E605A6000F0F1F90834204603B034
:1042B000BDE8F08F00240C2320462B6003B0BDE83E
:1042C000F08F40204FF400734FF03F0E4AE7234435
:1042D000E1685A68A66842F00102F16028468E60E3
:1042E0005A6000F0D3F90834204603B0BDE8F08FDF
:1042F000234428465A6842F001025A6000F0C6F989
:104300000834204603B0BDE8F08FBC68636823F032
:104310000308B04504D3A8EB06030F2B00F38580F8
:10432000DFF85891504BD9F800201B680132334414
:1043300004EB080A00F0558103F580530F3323F492
:104340007F6B2BF00F0B5946284600F0A5F9411C56
:10435000024600F0FC80824500F2F780434B19686A
:104360005944196000F04D81D9F8000001301BBF9D
:10437000A2EB0A0A5144C9F80020196012F00701A3
:1043800000F01581C1F10800C1F5805102440831E7
:1043900002EB0B09C9F30B09A1EB090949462846B1
:1043A0000193009200F078F9431C9DE80C0000F0A6
:1043B0004381801A484440F001001968BA604944BA
:1043C000BC425060196017D0B8F10F0F40F2FB806B
:1043D0006068A8F10C0222F0070204EB020E00F064
:1043E00001004FF0050C10430F2A6060CEF804C0A6
:1043F000CEF808C000F217811D4BBC681A689142C4
:1044000088BF19601B4B1A689142626888BF1960A7
:1044100022F003029642A2EB060301D80F2B04DC24
:10442000284600F033F9002440E7A21943F00103C5
:1044300046F0010666602846BA60536000F026F92F
:104440000834204603B0BDE8F08F142B71D9542BEB
:1044500000F2A380330B03F16F0003F16E0EC30073
:1044600080E600BF4C040020DCCC0020ACCC002057
:10447000D4CC0020D8CC00205404002054080020C4
:104480005A0A042A5BD9142A00F2AE8002F15C01B8
:10449000C9005B3207EB010C7958ACF1080C8C4574
:1044A00000F088804A6822F00302934273D2896840
:1044B0008C45F7D1DCF80C207B68E260C4F808C0BA
:1044C0009460CCF80C408FE6A11946F0010C42F044
:1044D0000106C4F804C0284679613961C1F80CE0CE
:1044E000C1F808E04E60E25000F0D0F80834DDE694
:1044F0007B6879E608F1010818F0030F0CF1080C4D
:104500007FF485AE2DE0DC68A34208BF02303FF4A3
:104510003EAEBBE619441C464A68DB6854F8086F97
:1045200042F001024A602846F3609E6000F0AEF857
:10453000BCE603F15C0003F15B0EC30012E69A09CE
:1045400002F13901C9003832A4E7BC4254D0BC683A
:10455000626822F003025DE759F80839994540F096
:10456000868010F0030F00F1FF30F5D17B6823EA5D
:1045700004037B6064009C423FF6C7AE002C3FF40E
:10458000C4AE1C4240467FF43EAE64001C4200F1C3
:104590000400FAD037E68C468CE7B3F5AA7F15D82D
:1045A000F30B03F1780003F1770EC300DAE54FF463
:1045B0008051EDE67B689210012101FA02F213436B
:1045C0007B60624679E70123536029E740F2545249
:1045D000934222D8B30C03F17D0003F17C0EC3009B
:1045E000C0E503F1100BAEE6542A29D81A0B02F1EC
:1045F0006F01C9006E324DE7204B196859441960AC
:10460000B2E6CAF30B0000287FF4AEAE08EB0B0352
:10461000BA6843F001035360EEE67F204FF47E73E7
:104620004FF07E0E9EE504F1080128460093FFF747
:1046300029FC009B1968DFE601204FF00009BCE669
:10464000B2F5AA7F05D8DA0B02F17801C9007732FA
:1046500020E740F254518A4205D89A0C02F17D01BC
:10466000C9007C3216E74FF47E717E2212E77B6828
:1046700080E7F00806F1080300E600BFACCC00209C
:104680000148FFF713BD00BFC0CD00200148FFF770
:104690000FBD00BFC0CD002038B5074C0023054634
:1046A00008462360FCF700FB431C00D038BD23689C
:1046B000002BFBD02B6038BDD4CD002010B50C46AC
:1046C000B1F90E1000F054F9002803DB236D034408
:1046D000236510BDA38923F48053A38110BD00BFBF
:1046E0002DE9F0411646B1F90C201F46D3050C46C2
:1046F000054607D500220223B1F90E1000F022F979
:10470000B4F90C20B4F90E1022F48052A2813B4679
:1047100032462846BDE8F04100F014B810B50C460A
:10472000B1F90E1000F00EF9A389421C0EBF23F45C
:10473000805343F480532065A38110BDB1F90E105E
:1047400000F078B870B50D46084C114606461A467A
:10475000284600232360FBF7EFFD431C00D070BD0B
:104760002368002BFBD0336070BD00BFD4CD002088
:104770002DE9F8432C4D0646286898460F46914689
:10478000FFF794FC294B1C68D4F84831002B3ED02D
:104790005A681F2A1CDC02F1010E76B103EB82017C
:1047A0000124C1F88890D3F8880194402043022E58
:1047B000C3F88801C1F8088123D00232C3F804E0AD
:1047C000286843F82270FFF773FC0020BDE8F883E7
:1047D000174B0BB34FF4C870FFF79AFC0346D8B1E0
:1047E000D4F848210260002141600A46C4F848011B
:1047F0004FF0010EC0F88811C0F88C11002EDCD0EB
:10480000CCE7D3F88C110C43C3F88C41D5E704F501
:10481000A673C4F84831BBE72868FFF749FC4FF09E
:10482000FF30BDE8F88300BF48040020B8494000CD
:104830001141400038B5074C002305460846236067
:10484000FCF74EFA431C00D038BD2368002BFBD088
:104850002B6038BDD4CD002070B559B105460C464B
:1048600010B1836B002B3CD0636ED80705D5B4F92B
:104870000C302BB90026304670BDA38999053CD574
:1048800021462846FFF764F9E36A064633B1E16939
:10489000284698470028B8BF4FF0FF36A3891A066C
:1048A00022D4216B41B104F14003994202D0284641
:1048B000FFF7E8FA00232363616C21B12846FFF774
:1048C000E1FA00236364FFF767FA636E0022DB07F7
:1048D000A2810ED5A06DFFF7E7FBFFF763FA304624
:1048E00070BDFFF72DFABFE721692846FFF7CAFA26
:1048F000D7E7A06DFFF7DCFBECE7A06DFFF7D6FB79
:10490000B4F90C30002BBBD1666E16F00106B1D1A4
:10491000A06DFFF7CDFB304670BD00BF38B50B462C
:10492000074C05461146184600232360FCF7DBF9C7
:10493000431C00D038BD2368002BFBD02B6038BD52
:10494000D4CD002070B50D46084C114606461A46D7
:10495000284600232360FCF7CBF9431C00D070BD30
:104960002368002BFBD0336070BD00BFD4CD002086
:1049700070B50D46084C114606461A4628460023D7
:104980002360FBF7BBFC431C00D070BD2368002BE9
:10499000FBD0336070BD00BFD4CD0020706F7700B6
:1049A00073717274000000000000000000003043CA
:1049B00000000000000030C320000020F8B500BF58
:1049C000F8BC08BC9E467047313B40001D014000CA
:1049D000F8B500BFF8BC08BC9E467047F90040001F
:0849E000D8EBFF7F010000008D
:1049E8000100000000093D003C4A00202009002089
:1049F800588B002046100100200000200000000015
:104A0800000000000C03002074030020DC030020D9
:104A1800000000000000000000000000000000008E
:104A2800000000000000000000000000000000007E
:104A3800000000000000000000000000000000006E
:104A4800000000000000000000000000000000005E
:104A5800000000000000000000000000000000004E
:104A6800000000000000000000000000000000003E
:104A7800000000000000000000000000000000002E
:104A8800000000000000000000000000000000001E
:104A9800000000000000000000000000000000000E
:104AA80000000000000000000100000000000000FD
:104AB8000E33CDAB34126DE6ECDE05000B000000C2
:104AC80000000000000000000000000000000000DE
:104AD80000000000000000000000000000000000CE
:104AE80000000000000000000000000000000000BE
:104AF80000000000000000000000000000000000AE
:104E28000000000000000000B0CD002000000000DD
:104E3800000000004C0400204C0400205404002012
:104E4800540400205C0400205C040020640400205A
:104E5800640400206C0400206C040020740400200A
:104E6800740400207C0400207C04002084040020BA
:104E7800840400208C0400208C040020940400206A
:104E8800940400209C0400209C040020A40400201A
:104E9800A4040020AC040020AC040020B4040020CA
:104EA800B4040020BC040020BC040020C40400207A
:104EB800C4040020CC040020CC040020D40400202A
:104EC800D4040020DC040020DC040020E4040020DA
:104ED800E4040020EC040020EC040020F40400208A
:104EE800F4040020FC040020FC0400200405002039
:104EF800040500200C0500200C05002014050020E6
:104F0800140500201C0500201C0500202405002095
:104F1800240500202C0500202C0500203405002045
:104F2800340500203C0500203C05002044050020F5
:104F3800440500204C0500204C05002054050020A5
:104F4800540500205C0500205C0500206405002055
:104F5800640500206C0500206C0500207405002005
:104F6800740500207C0500207C05002084050020B5
:104F7800840500208C0500208C0500209405002065
:104F8800940500209C0500209C050020A405002015
:104F9800A4050020AC050020AC050020B4050020C5
:104FA800B4050020BC050020BC050020C405002075
:104FB800C4050020CC050020CC050020D405002025
:104FC800D4050020DC050020DC050020E4050020D5
:104FD800E4050020EC050020EC050020F405002085
:104FE800F4050020FC050020FC0500200406002034
:104FF800040600200C0600200C06002014060020E1
:10500800140600201C0600201C0600202406002090
:10501800240600202C0600202C0600203406002040
:10502800340600203C0600203C06002044060020F0
:10503800440600204C0600204C06002054060020A0
:10504800540600205C0600205C0600206406002050
:10505800640600206C0600206C0600207406002000
:10506800740600207C0600207C06002084060020B0
:10507800840600208C0600208C0600209406002060
:10508800940600209C0600209C060020A406002010
:10509800A4060020AC060020AC060020B4060020C0
:1050A800B4060020BC060020BC060020C406002070
:1050B800C4060020CC060020CC060020D406002020
:1050C800D4060020DC060020DC060020E4060020D0
:1050D800E4060020EC060020EC060020F406002080
:1050E800F4060020FC060020FC060020040700202F
:1050F800040700200C0700200C07002014070020DC
:10510800140700201C0700201C070020240700208B
:10511800240700202C0700202C070020340700203B
:10512800340700203C0700203C07002044070020EB
:10513800440700204C0700204C070020540700209B
:10514800540700205C0700205C070020640700204B
:10515800640700206C0700206C07002074070020FB
:10516800740700207C0700207C07002084070020AB
:10517800840700208C0700208C070020940700205B
:10518800940700209C0700209C070020A40700200B
:10519800A4070020AC070020AC070020B4070020BB
:1051A800B4070020BC070020BC070020C40700206B
:1051B800C4070020CC070020CC070020D40700201B
:1051C800D4070020DC070020DC070020E4070020CB
:1051D800E4070020EC070020EC070020F40700207B
:1051E800F4070020FC070020FC070020040800202A
:1051F800040800200C0800200C08002014080020D7
:10520800140800201C0800201C0800202408002086
:10521800240800202C0800202C0800203408002036
:10522800340800203C0800203C08002044080020E6
:0C52380044080020FFFFFFFF0000020000
:0400000500400A614C
:00000001FF
