:020000040040BA
:1000000020BE00202D0B4000290B4000290B400092
:10001000290B4000290B4000290B40000000000084
:10002000000000000000000000000000290B40005C
:10003000290B400000000000290B4000290B400064
:10004000290B4000290B4000290B4000290B4000E0
:10005000290B4000290B4000290B4000290B4000D0
:10006000290B4000290B4000290B4000290B4000C0
:10007000290B4000290B4000C50D4000290B400012
:10008000290B4000290B4000290B4000290B4000A0
:10009000290B4000290B400001184000290B4000AB
:1000A000290B4000290B4000290B4000290B400080
:1000B000290B4000290B4000E5064000F9064000EE
:1000C000290B400031174000290B4000290B40004C
:1000D000290B4000290B4000290B4000290B400050
:1000E000290B4000290B4000290B4000290B400040
:1000F000290B4000290B400010B5054C237833B97B
:10010000044B13B10448AFF300800123237010BDEA
:10011000C009002000000000D46840000C4B43B12F
:100120000C480D4910B5AFF300800C48036823B9A3
:1001300010BD0A48036833B97047094B002BF7D04C
:10014000BDE810401847064B002BF5D0184700BFFC
:1001500000000000D4684000C4090020D4684000BA
:100160000000000010B50E480E4B98473E210020BD
:100170000D4B98470D4CA0470028FCD00C4B9847DE
:100180000C4A0D4B9A620D4CA0470028FCD0102061
:100190000B4B98470B4B98470B48024B984710BDA9
:1001A000000E2707010D4000CD0840002109400046
:1001B00031094000013F0F2000040E40410940007A
:1001C00069084000F50B400000D8B805002A37D078
:1001D0002DE9F84F934605460F468B44DFF87080B3
:1001E000184EDFF8709006E021464046B0470028E0
:1001F000FAD1BB4521D017F8014B4545F4D04D4508
:100200000DD0114B9D4210D0104B9D42F1D1DFF823
:1002100048A021460D48D0470028FAD1E9E72146F9
:100220004846B0470028FAD1E3E7DFF82CA0214682
:100230000548D0470028FAD1DBE70020BDE8F88F59
:1002400000207047DB0A400000000A4000400A40DE
:1002500000060E4000060640FD0A4000002A3FD07E
:100260002DE9F04F83B006460C4693468B441D4F54
:100270001D4DDFF880A00DE021463846A847002834
:10028000FAD110E021465046A8470028FAD101349F
:100290005C4521D000230193BE42EDD05645F1D0FC
:1002A000124B9E420DD0124B9E42F0D19946DFF880
:1002B000488001A94846C0470028FAD1019B237015
:1002C000E5E79946DFF8308001A94846C047002895
:1002D000FAD1019B2370DAE7002003B0BDE8F08F6C
:1002E0000020704700060E40EB0A400000000A4064
:1002F00000400A4000060640110B40002DE9F04185
:1003000080B90C469046002A0FDD8F18084E094D23
:10031000306821462B6898470134BC42F8D14046EA
:10032000BDE8F0814FF0FF38F9E78046F7E700BFFE
:10033000388D0020308D00200138022815D82DE995
:10034000F0410E4614469AB10D46DFF838800C4F46
:10035000D8F8000015F8011B3B68984700280ADB15
:10036000A81B013CF4D1BDE8F0814FF0FF3070478D
:100370001046BDE8F0814FF0FF30BDE8F08100BFCE
:10038000348D0020388D002010B54FF40042214BF1
:100390005A600920204CA0470A20A0470B20A04704
:1003A0000C20A0470D20A0471C4B4FF480021A617F
:1003B000C3F8A0201A63A3F5C06304225A61C3F8EE
:1003C000A0205A66C3F890205A651A62C3F88420A8
:1003D000196F21F004011967596F21F00401596761
:1003E000C3F8C020C3F8D420C3F8B0204FF4C062D3
:1003F0001A66C3F890205A655A62C3F88020196FB4
:1004000021F4C0611967596F21F4C06159675A60BE
:1004100010BD00BF50180E405109400000140E409E
:1004200010B4046844F001040460019C04F4805496
:1004300044F4807403F4C0631C4302F007021443C5
:1004400001F070010C4344600323C0F89430036B47
:10045000002BFCDB5DF8044B70474368006B13F422
:10046000805F18BF80F00200C0F340007047012396
:1004700043627047006B704770B582B0026BC36A0D
:10048000134001930024214DA84214BF00250125EB
:100490006E002E440BE0142C24D8019A04F10801BC
:1004A00001238B40134213D10134172C2BD00F2C76
:1004B000F1D8019A0123A3401342F5D0C5EBC6033E
:1004C0002344134A52F82330002BEDD09847EBE732
:1004D000C5EBC60323440E4A52F82330002BE3D069
:1004E0009847E1E7019A04F1090101238B40134287
:1004F000DAD0C5EBC6032344054A52F82330002B5B
:10050000D2D09847D0E702B070BD00BF00400B408A
:100510003C8D002030B4046E01238B4024EA030498
:100520001578002D08BF002323430366446D4B005C
:100530000321994024EA01045178994021434165FF
:1005400030BC704700220260084B4360084B836058
:100550004FF48023C36002610223037501234375B6
:100560008375C275037643768376704700D8B805E5
:10057000808D5B00002303700123437070470000EF
:10058000036B13F0807F01D01920704770B40123F2
:100590000360CB7D002B14BF4FF0004500258B7D01
:1005A000002B14BF4FF4000400240B7D1B0603F046
:1005B00070630A69CE68324313434A7D120702F022
:1005C000405213438A6856004A68B2FBF6F2013A79
:1005D000120292B213432B43234343600B7E002B42
:1005E00014BF4FF0807300230A6813434A7E002A29
:1005F00014BF4FF000720022134383608B7E1B02F6
:1006000003F44073C0F894300E4B984205D00E4B63
:1006100098420CD0002070BC70470C4B03F15C0179
:10062000002243F8042F8B42FBD10020F3E7084B54
:1006300003F15C01002243F8042F8B42FBD1002020
:10064000E9E700BF00000B4000400B40388D002060
:10065000948D00200C4B994207D00F290BD806D05F
:10066000012303FA01F141627047436270474FF47E
:10067000004343627047142994BF083109310123B4
:1006800003FA01F141627047FFFF00DF38B5114CFA
:10069000A0420CBF172400240C440F4D45F8242021
:1006A0000AD10E4A4FF00044C2F880411B01DBB270
:1006B00082F81F33146009E0084A4FF08044C2F802
:1006C00080411B01DBB282F81E331460044B984753
:1006D00038BD00BF00400B403C8D002000E100E031
:1006E0005506400008B50248024B984708BD00BFB8
:1006F00000000B407904400008B50248024B9847BF
:1007000008BD00BF00400B407904400000B583B035
:10071000134B98420CBF1F201E20124B9847124BC0
:100720009B78FF2B1AD0EFF31083B3FA83F35B09A6
:10073000019372B6BFF35F8F00220C4B1A700199C0
:10074000094A93780133937029B10122074B1A703B
:10075000BFF35F8F62B603B05DF804FBFEE700BF36
:1007600000400B4051094000288D0020000000206F
:1007700000B583B0124B98420CBF1F201E20114BB6
:100780009847114B9B7803B9FEE7EFF31083B3FA58
:1007900083F35B09019372B6BFF35F8F00220B4BAB
:1007A0001A700199084A9378013B937029B101228C
:1007B000064B1A70BFF35F8F62B603B05DF804FB9F
:1007C00000400B40A5094000288D002000000020BB
:1007D000012303607047436823F0010343607047BF
:1007E00049B9436843F480734360436823F01003BE
:1007F000436000207047436843F48073436043685C
:1008000043F010034360F4E7016270474368012935
:1008100001D90120704723F4981343EA0141416054
:1008200000207047436841B907491940120602F099
:100830007C520A4342600020704723F07C5323F42B
:100840007F4343F40011F1E7FF00DFC0012901D924
:1008500001207047012303FA01F101610020704774
:10086000C0F8941000207047174A136B23F07003F0
:1008700018431063936E13F0080F0AD14FF400630E
:1008800011498A6E12F0080F03D1013BF9D1012002
:1008900070470D4A136B23F0030343F00203136305
:1008A000936E13F0080F0AD14FF4006306498A6E65
:1008B00012F0080F05D1013BF9D10120704700204B
:1008C00070470020704700BF00040E40C8B9114AAD
:1008D000136A090289B223F45C1323F0030343F47F
:1008E0005C1343F001030B431362936E13F0010F8B
:1008F000FBD0084A136A43F09B7343F480331362BE
:10090000704704490B6A044A1A40044B13430B62B4
:10091000704700BF00040E40FCFFC8FE0200370114
:10092000024B986E00F48030704700BF00040E4008
:100930004FF00052014B9A62704700BF00040E4016
:10094000024B986E00F00200704700BF00040E409A
:100950002F281ED81F280CD8114B9A6901238340D9
:10096000934318D0012303FA00F00D4B18610020C7
:10097000704720380A4BD3F8082101238340934362
:100980000BD0012303FA00F0054BC3F8000100204F
:10099000704701207047002070470020704700BF5B
:1009A00000040E402F2822D81F280ED8114B9A6918
:1009B00001238340934301D000207047012303FAB1
:1009C00000F00C4B5861002070472038094BD3F8D9
:1009D000082101238340934301D000207047012365
:1009E00003FA00F0034BC3F8040100207047012014
:1009F000704700BF00040E4010B489014318022460
:100A000044504FF0FF319962196A5A605DF8044B07
:100A10007047890105234350704700EB8111CA617B
:100A2000704700EB81114A62704700EB81118A62C6
:100A30007047F0B486B00224019408240294202464
:100A40000394802404940A9CE40B0594B0EB510FAA
:100A500014D84C0CA04217D2012501AF57F82540FD
:100A6000B1FBF4F4260C84420AD386420DD9013539
:100A7000052DF3D1002006B0F0BC70470020FAE746
:100A80000020F8E70120F6E700252AB106A901EBCE
:100A9000850151F8141C1160002BF3D01D6001205A
:100AA000E9E710B4AC2303600B684A68B3FBF2F3C8
:100AB0001B095C1E4FF6FE7294420CD803628B68D1
:100AC000436040F20223C0F820315023036000202D
:100AD0005DF8044B70470120FAE7436913F0020FF9
:100AE0001ABFC161002001207047436913F0010F54
:100AF0001DBF83690B70002001207047436913F00C
:100B0000020F1DBFC1F30801C16100200120704721
:100B1000436913F0010F05D08369C3F308030B6029
:100B20000020704701207047FEE7000000B583B049
:100B3000254B264A9A4210D0254B234A9A420CD282
:100B4000013B9B1A23F00303043313441F4951F85C
:100B5000040B42F8040B9A42F9D11E4B1E4A9A42EA
:100B60000AD2013B9B1A23F00303043313440021F0
:100B700042F8041B9342FBD1184A194B23F07F0320
:100B80009360EFF31083B3FA83F35B09019372B6BA
:100B9000BFF35F8F0022134B1A700199124A13683A
:100BA00043F470031360BFF34F8FBFF36F8F29B10E
:100BB00001220C4B1A70BFF35F8F62B60B4B984744
:100BC0000B4B9847FEE700BF00000020D4684000B0
:100BD000C0090020208E0020C009002000ED00E0A8
:100BE000000040000000002088ED00E0653A400071
:100BF000651840003B4B1B6B03F00303012B1DD01A
:100C000083B1022B36D0374B1B6B03F07003702B74
:100C10005FD0344B1A6B3449C2F302120B68D340D5
:100C20000B607047314B5B6913F0800F14BF4FF4BA
:100C300000424FF4FA422C4B1A60E4E7294B1B6A3E
:100C400013F0807F03D02A4A274B1A60DBE7294A3A
:100C5000254B1A60234B1B6A03F07003102B05D041
:100C6000202BD0D1224A204B1A60CCE7224A1E4BBF
:100C70001A60C8E71B4B1B6A13F0807F16D01C4A12
:100C8000194B1A60174B1B6B03F00303022BBAD1ED
:100C9000144A916A926A1448C1F30A41036801FB3D
:100CA0000333D2B2B3FBF2F30360ACE7114A0E4B4D
:100CB0001A600C4B1B6A03F07003102B05D0202B1D
:100CC000E0D10B4A084B1A60DCE70B4A064B1A606E
:100CD000D8E7054A13680949A1FB03135B081360B1
:100CE000704700BF00040E400400002010180E40A2
:100CF000001BB70000093D0000127A00ABAAAAAAA7
:100D0000124B984211D9124B984213D9114B984269
:100D100014D9114B984215D9104B984294BF4FF0FB
:100D200004220F4A0F4B1A6070474FF080620D4B40
:100D30001A6070470C4A0B4B1A6070470B4A094BFC
:100D40001A6070470A4A074B1A607047FF2C31013E
:100D5000FF596202FF869303FFB3C404FFE0F50569
:100D600000050004000A0E40000100040002000417
:100D7000000300040A4B1B6853B1094B1B681A1887
:100D80000849914208DB1046054A10601846704732
:100D9000054A034B1A60F0E74FF0FF30704700BF81
:100DA000DC090020FCFF012020BE00204FF0FF30B6
:100DB00070474FF400534B6000207047012070478C
:100DC0000020704700B583B001220DF107011048E3
:100DD000104B984772B6BFF35F8F00220E4B1A700C
:100DE0000E4B1B789DF807100D4AD1549B2B0BD04E
:100DF00001330A4A13700122074B1A70BFF35F8F49
:100E000062B603B05DF804FB0022044B1A70F2E7EF
:100E100000000A405D024000000000207C0A002023
:100E2000E0090020094B1B8842F28D02934208D84A
:100E3000074A127832B1074A22F813000133034AF5
:100E400013807047044A22F81300F7E7B88C00209B
:100E5000BC8C00209C4B0020800A0020064A13888E
:100E6000013313800022054B1A80054A137883F062
:100E700001031370704700BFBA8C0020B88C0020AB
:100E8000BC8C0020F8B50A4B1B8842F28D029342BD
:100E90000AD81C4608DC0027064E42F28E0538466A
:100EA000B0470134AC42FAD1034B9847F8BD00BFBC
:100EB000B88C0020250E40005D0E4000014B1888C4
:100EC000704700BFBA8C0020044B1878044B054AC9
:100ED000002814BF10461846704700BFBC8C002085
:100EE0009C4B0020800A0020F0B583B005460C46DC
:100EF00000230193184B98420AD0184B98420FD008
:100F0000174B984214D0174B9D421BD003B0F0BD35
:100F10001F46154E21463846B0470028FAD1F2E761
:100F20001E46114D21463046A8470028FAD1EDE76C
:100F30001E460E4D01A93046A8470028FAD1019B54
:100F40002370E3E71E46094D01A93046A847002853
:100F5000FAD1019B2370D9E700060E400006064037
:100F600000000A4000400A40EB0A4000110B40001C
:100F700070B50C46184B98420AD0184B984210D0C6
:100F8000174B984216D0174B98421CD0002070BDCA
:100F90001E46154D21463046A8470028FAD10120AB
:100FA00070BD1E46104D21463046A8470028FAD194
:100FB000012070BD1E460D4D21463046A847002831
:100FC000FAD1012070BD1E46084D21463046A84783
:100FD0000028FAD1012070BD00060E400006064030
:100FE00000000A4000400A40DB0A4000FD0A4000C1
:100FF00008B5074B1B781BB9064A13680133136009
:10100000054B186A80B2054B1880054B984708BD00
:10101000E88C0020EC8C002000000B40F48D0020B8
:10102000250E4000F0B488421ED202EB4004034675
:101030002646002536F8027B03FB075501339FB295
:10104000B942F7D80139091A013010FA81F102EBDF
:101050004101002034F8023B18448C42FAD1B5FB20
:10106000F0F080B2F0BC704700252846F7E770B476
:101070000E4681B1811E002318461C469DB231F8F0
:10108000022FA24284BF2846144601339AB29642E8
:10109000F4D870BC70470846FBE700002DE9F0412A
:1010A00005460C463A4B1F8839462046DFF8E88053
:1010B000C0470646394604EB4700C047384480B273
:1010C000344B1E80D880314634F81630AB4249D3B9
:1010D000002301339BB29E4250D3CA1A34F8122027
:1010E000AA42F6D2F31A2B4A5380BF1B10D434F80D
:1010F0001630AB4238D30022013292B2BA4207DC3A
:10110000531834F81330AB42F6D23244214B9A8054
:10111000024634F81030AB4228D3002301339BB28F
:1011200098422ED3D11A34F81110A942F6D2C31A1C
:1011300018490B81C0F502560E36002E18DB34F824
:101140001030AB4216D3002301339BB2B34213DC01
:10115000991834F81110A942F6D203440D4A53816C
:10116000BDE8F0810023BDE70022CEE70023DEE7E3
:10117000BDE8F0810023F0E7BDE8F081BF1BBAD5E0
:10118000C6E7C0F502560E36002EDCDABDE8F08167
:101190000C000020CC8C00206F104000F0B4049FA5
:1011A000154C002525806580884210D207EB40044D
:1011B0004E1E361A013010FA86F607EB46060E4828
:1011C00034F8021B058829440180B442F8D19A42C0
:1011D00010D207EB42015C1EA41A013212FA84F409
:1011E00007EB4404044A31F8023B5088034453801F
:1011F000A142F8D1F0BC7047C08C0020884210D2C8
:1012000002EB40030139091A013010FA81F102EBB7
:101210004102002033F8021B084480B29342F9D106
:1012200070470020704700002DE9F04F8BB08046DA
:1012300007900F460891164605921D460693149A8C
:10124000634CA0478246149A29463046A04709902D
:10125000B84580F0AE803846A8EB0A04149A1546CB
:10126000424605EB4807431E9B1A013212FA83F3EC
:10127000A3EB0A0A00220023CDE90023554E564D68
:10128000DFF87081DFF87091D346BA462046B04748
:101290003AF8027B02460B46A847CDE902013846E0
:1012A000B04702460B46DDE90201A847CDE902013D
:1012B000DDE90001494B984702460B46DDE9020192
:1012C000C047C847CDE9000101345C45DED1149A1E
:1012D00008990798424B984782B20023DDE9000144
:1012E000404CA0473B4B98473F4B984736A3D3E928
:1012F0000023394CA0473D4B98473D4B1880059A39
:1013000013460698824259D2099D5C1B149A1146D5
:1013100001EB430700F1FF3AAAEB030A013313FA8A
:101320008AFAAAEB050A00220023CDE90023294E00
:10133000294DDFF8C090DFF8C0802046B04737F86D
:1013400002BB02460B46A847CDE902015846B0470A
:1013500002460B46DDE90201A847CDE90201DDE9BD
:1013600000011E4B984702460B46DDE90201C847C3
:10137000C047CDE9000101345445DED1149A0699E5
:101380000598174B984782B20023DDE90001154C00
:10139000A047104B9847144B98470BA3D3E9002361
:1013A0000D4CA047114B9847114B58800BB0BDE82E
:1013B000F08F00230024CDE9003488E700230024C7
:1013C000CDE90034DAE700BFD7A3703D0AD7024069
:1013D00025104000F12F4000BD304000613040003A
:1013E000FD1140005D364000451E40001D364000A6
:1013F000C88C0020592D4000FD3640000000000040
:101400002DE9F04F2DED028B85B0804689461746B9
:1014100002921E460393109A394CA0470546109A33
:1014200031463846A0470446C8450FDA46464F467F
:10143000A8EB05059FED308BDFF8D0A0DFF8DC903E
:10144000002D4DDD01360135BE42F9DB40462D4B06
:1014500098472D4BC3E90001029A13460398824234
:1014600044DA141B109A02EB430502EB40080023F8
:101470001E46DFF89090DFF8A8A02046234B98473F
:1014800035F802BB02460B46214FB847CDE90001B3
:1014900058461E4B984702460B46DDE90001B84707
:1014A000CDE900013046C84702460B46DDE90001A0
:1014B000184EB047D047064601344545DDD1109A55
:1014C00003990298144B9847B6FBF0F00D4B9847E0
:1014D0000D4BC3E9020105B0BDEC028BBDE8F08FF6
:1014E0002846D04753EC182BC847ABE700231E46CD
:1014F000E5E700BFAFF300800000000000000040FF
:1015000025104000D12F4000D88C0020F12F400042
:10151000BD304000592D4000FD114000491B4000E6
:101520001D3640002DE9F04F8BB002AF82460146D8
:101530001420754B9847754D6B892A89A98868884E
:10154000CDF800A0724CA0476B892A89A9886888C9
:10155000CDF800A06F4CA0476B892A89A9886888BC
:10156000CDF800A06C4CA04700233B827B82BB825D
:10157000FB823B837B8342F20F73BB832B4607F1D5
:1015800010040C35224633F8021B22F8021BAB4232
:10159000F9D1B7F812C0B7F8149009F10109A9EB15
:1015A0000C091FFA89F909F1FF314FEA49030833A1
:1015B00023F00703ADEB030D02AEB7F818E0B7F860
:1015C0001A8008F10108A8EB0E081FFA88F808F144
:1015D000FF304FEA4803083323F00703ADEB030D58
:1015E00002AD00290CDD002213460CEB020B3AF889
:1015F0001BB026F812B001339BB21A469942F4DCB4
:1016000042F2B82326F8113000280CDD00221346E0
:101610000EEB02013AF8111025F8121001339BB2BB
:101620001A469842F4DC41F6616325F810303B4BD2
:101630001A883A815B887B81394B1A88BA815B882A
:10164000FB8107F11E0BDFF8E0A00222214635489E
:10165000D04702345C45F8D1B9F1000F15D03446BB
:1016600009F1FF391FFA89F909F1010906EB490669
:10167000DFF8B0B04FF0020ADFF8AC9052462146D6
:101680005846C8470234B442F8D1B8F1000F14D01C
:101690002C4608F1FF381FFA88F808F1010805EB1D
:1016A0004805DFF880904FF002081F4E4246214661
:1016B0004846B0470234A542F8D107F1080407F1C3
:1016C0001009DFF860800226174D32462146404659
:1016D000A8470234A145F8D1144E124D08223146D4
:1016E0002846114CA0470822B1182846A04707F108
:1016F000200141F60A2321F81A3D02222846A0477C
:101700002437BD46BDE8F08F9D104000CC8C0020F2
:101710009D1140002912400001144000C08C00209F
:10172000C88C002000060E40CD014000D88C00205F
:1017300070B52448244B984710F0010F00D170BDBC
:101740002048224B9847002833D0214B1B78002B90
:10175000F5D1204A1370204A136001221C4B1A70E5
:101760001E4B1B6833B900211D481E4B98471E4B6A
:10177000984770BD1D4B4FF48004C3F88040BFF301
:101780004F8FBFF36F8FC3F880411C60144D102240
:1017900001212846164B98471648174B98470121B8
:1017A0002846104EB04700212846B047134B5C63D3
:1017B00070BD074B1B78002BC1D00022044B1A7060
:1017C000BDE700BF00C00B40750440005B04400053
:1017D000F08C0020E88C0020EC8C00200800002019
:1017E00000000940130A4000850E400000E100E0BF
:1017F000230A400000000B400D07400000140E407B
:1018000010B501240D4B1C700D4B19680D480E4B83
:1018100098474FF480030D4A13630D4AC2F8803095
:10182000BFF34F8FBFF36F8F1022214609480A4B39
:1018300098470A480A4B984710BD00BFE88C002023
:10184000EC8C002018674000B53A400000140E40B0
:1018500000E100E0000009402B0A400000000B40BE
:101860007107400080B58CB0864B9847864B9847EF
:101870000720DFF8AC82C047844D854B1D60854A48
:10188000854B1A60854A864B1A60864C05944FF446
:10189000E13306934FF40069CDF81C900720C04750
:1018A00005A92846804B9847804E336800219868E8
:1018B0007F4DA847336800215868A8472020C047BB
:1018C0007C4D28467C4B984728467C4B9847002106
:1018D00028467B4B98470F2200212846794B984792
:1018E00000212846784B984700212846774B984797
:1018F0004FF485712846764B984740F61C412846A0
:10190000744B9847744B4FF480021A61C3F8A020BF
:101910000026724B1E80A5F500452846704B98475F
:1019200005A8704B984702A86F4B984705A9284611
:10193000DFF80CA2D0476D4F05A93846D04702AA60
:1019400006212846DFF8FCA1D04702AA31463846D6
:10195000D0477E66C7F86C9006236B66C5F86C901E
:101960007B6823F08F037B6003960CAF47F8206DF4
:101970001520C0471620C04700943B4603AA2146C5
:101980005B485C4FB8475C4F049A42F4D82231461A
:1019900038465A4B9847039BB4FBF3F3584AA2FBD3
:1019A00003235A0C7A611B0CFB616B6823F08F03D5
:1019B00043F003036B60534B1E685EB30022039237
:1019C0000CAB43F8202D009403AA21463046494D24
:1019D000A847049A42F4804201213846474B984771
:1019E000039AB4FBF2F2B2FBF6F201213846464B01
:1019F0009847464B4FF48002C3F88020BFF34F8FC7
:101A0000BFF36F8FC3F880211A601022012138467E
:101A10003F4B98470123354A53613E4C4022626157
:101A20003D4A102120463D4DA847E369E3656368C0
:101A300013F0800F01D108222260364B1A6B002A66
:101A4000FCDA2120364B9847364C002300934FF4A4
:101A50008063032270212046334DA84702222B4B7E
:101A60005A602046314B9847314D324C324EA84790
:101A70002378002BFBD000232370B0472F4B9847CF
:101A8000F5E700BF650140008903400000060E40F5
:101A9000388D0020710F4000348D0020E90E400089
:101AA000308D002000D8B805A30A400010000020A7
:101AB000793B400000800B40D1074000D707400031
:101AC000E1074000250840000D0840004D08400097
:101AD000610840000908400000140E40F48D002009
:101AE0000D074000450540007505400000400B40D3
:101AF00090D00300330A400000000940F90940007B
:101B000083DE1B43080000201B0A400000E100E0C8
:101B1000230A400000000B40F10F40008D064000FA
:101B20005109400000C00B40210440006F044000F8
:101B3000BD0E4000C48C0020C90E40002515400099
:101B400081054000150540002DE9F04FDFF8F092C7
:101B50008DB006460F4614461D4600F0D1F999F99E
:101B60000080B8F1FF3FCDE9000136D022462B4678
:101B70002046294601F03CFD834670BB32463B4679
:101B80003046394601F034FD002282460023002809
:101B900040F0A0803046394601F0F8FC10B3002236
:101BA00000232046294601F0F1FC834600286AD034
:101BB00001229C4B029200210022CDF828A0CDE901
:101BC0000467CDE90645CDE908120393B8F1000F8B
:101BD00045D0954C0023CDE90034DDE900010DB07E
:101BE000BDE8F08FDDE9000100F090FF804600289D
:101BF00000F08B804FF0000A4FF0000B52465B461E
:101C0000DDE9000101F0C2FC0028E6D0304639468B
:101C100000F07CFF0028E0D02046294600F076FF47
:101C20000028DAD099F900307E4A0392042100227C
:101C3000022BCDE90467CDE90645CDE908AB029159
:101C40000A9203D002A800F067FF68B901F004FF10
:101C50002223036008E000230024CDE9083402A811
:101C600000F05AFF002830D00A9B1BB101F0F4FEAF
:101C70000A9B0360DDE90834CDE90034DDE90001A9
:101C80000DB0BDE8F08F2046294600F03FFF002848
:101C9000A3D0002200232046294601F081FC002821
:101CA0009BD099F900305F4ACDF828B00121CDE9E9
:101CB0000467CDE9064502910392002BCBD05B4926
:101CC0000020022BCDE90801C9D101F0C5FE212376
:101CD0000360C9E72046294601F058FC00283FF47C
:101CE0007CAF514B4F49CDF828B001200022B8F10C
:101CF000020FCDE90467CDE9064502900391CDE9D5
:101D00000823ACD1CDE9002367E73046394600F01F
:101D1000FDFE00283FF46EAF2046294600F0F6FE97
:101D200000283FF467AFDDE900231046194601F0B3
:101D30005FFC002858D1032399F900800293394BA6
:101D40000A900393CDE90467CDE9064500220023FC
:101D500030463946B8F1000F26D1354F4FF0604676
:101D6000CDE9086701F01CFC00283FF46BAF0022AE
:101D7000304B2046294601F0A1F904460D4600F0FB
:101D8000D3FE02460B462046294601F0FFFB40BB2E
:101D9000294B99F900804FF06042CDE90823B8F152
:101DA000020F7FF44FAF51E7244F0026CDE90867BB
:101DB00001F0F6FB0028F2D000221E4B20462946F7
:101DC00001F07CF904460D4600F0AEFE02460B46DB
:101DD0002046294601F0DAFB18B9144B0022CDE960
:101DE000082399F90080DAE799F900900D4BCDF8B6
:101DF00028800122CDE90467CDE9064502920393CC
:101E0000B9F1000F3FF427AF002200231046194616
:101E100001F07EFAB9F1020FCDE908013FF455AFA8
:101E20001DE700BF206740000000F03F0000F0FF0A
:101E3000FFFFEF470000E03FFFFFEFC70000F07F2C
:101E40000E0000202DE9F04F8BB004460D4600F047
:101E50009DFD294B93F900A0BAF1FF3F06460F46BE
:101E600012D022462B462046294601F0C1FB83466C
:101E700050B94FF000084FF0000942464B4620464B
:101E8000294601F08DFB20B9304639460BB0BDE83C
:101E9000F08F1A4BCDF820B00122CDE90445CDE9F1
:101EA00002458DE80C00BAF1000F17D042464B46B0
:101EB0004046494601F02CFABAF1020FCDE906017D
:101EC0000ED101F0C9FD21230360089B73B9DDE940
:101ED0000667304639460BB0BDE8F08FCDE906897C
:101EE000684600F019FE0028EFD1EAE701F0B4FDE2
:101EF000089B0360EBE700BF0E0000202467400052
:101F00002DE9F04F23F0004757EA020493B037D091
:101F1000674C21F00046A64283460D4629DC9A46CE
:101F2000964625D0A74224DC614CA74279D0002DEB
:101F300089468046CDE9002377DB0024BEF1000FFF
:101F40002CD15B4B9F4200F08B805A4B9F4261D05B
:101F5000BAF1804F00F0BA83574B9A451ED1002D3D
:101F60001CDB4046494613B0BDE8F04F00F00EBD03
:101F700058B106F1404606F5801656EA0B0306D125
:101F80004C49002013B0BDE8F08FB742CCDD4B4880
:101F900013B0BDE8F04F00F0C1BD002440464946F3
:101FA00000F0B0FDBBF1000F19D126B1414B25F077
:101FB00040429A4213D1BAF1000FC0F2BC83002D07
:101FC000E0DA06F1404606F5801656EA040300F012
:101FD0008F84012CD6D101F100431946D2E7ED0FD1
:101FE000013D54EA05034ED0354B9F426EDD03F1AF
:101FF00004739F4240F3E883324B9E424EDDBAF1B8
:10200000000F4EDD28A3D3E900231046194601F046
:1020100055F8B7E7BAF1000FC0F23C844046494694
:10202000B0E7BEF1000F82D0A3E7274B9F4228DC28
:10203000A3F154739F4280DD3B15A3F2FF33142BB1
:1020400040F33E84C3F134032EFA03F202FA03F3A1
:102050009E457FF472AF02F00102C2F102046DE707
:1020600006F1404303F5801353EA0B0388D0154B68
:102070009E4240F33283BAF1000F12DBDDE900012A
:1020800080E702245AE742464B464046494600F064
:1020900061FE02460B4601F03BF973E7BAF1000F0F
:1020A000B0DB002000216DE79C7500883CE4377EA2
:1020B0000000F07F0000F03F0000E03F1C674000A0
:1020C0000000E041FFFFEF3FFFFF3F43B6F5801FF9
:1020D0004FF0000205DAD44B00F0F0FF6FF034024D
:1020E0000E463315D14FC6F31306A3F2FF33134444
:1020F00046F07F5ABE421A460D934AF4401A40F306
:102100002183CB4B9E4240F3FD83134601330D9355
:10211000C84B0022CDE9062300270026CDE9086739
:10212000CDE90E67AAF5801A0027024653465146AC
:10213000CDE90A23DDE9062300F00CFEDDE90623E4
:1021400080468946DDE90A0100F006FE02460B469C
:102150000020B84901F0DCF80A460146CDE910122A
:10216000134649460246404600F0A8FF4FEA6A037C
:1021700043F000538C46834603F50023CDE904BCAD
:10218000DA468B46D9190023CDE902AB0293DDE98B
:1021900002AB002006460F4602460B465046594603
:1021A00000F08CFF02460B464046494600F0D2FD47
:1021B000DDE90623804689463046394600F0CAFDEF
:1021C00002460B46DDE90A0100F0C4FD52465B46BB
:1021D00000F074FF02460B464046494600F0BAFD47
:1021E000DDE9102300F06AFFDDE90467CDE90601AF
:1021F00032463B463046394600F060FF78A3D3E9CB
:10220000002306460F4600F059FF77A3D3E90023C9
:1022100000F0A2FD32463B4600F050FF74A3D3E924
:10222000002300F099FD32463B4600F047FF72A3C1
:10223000D3E9002300F090FD32463B4600F03EFF1C
:102240006FA3D3E9002300F087FD32463B4600F040
:1022500035FF6DA3D3E9002300F07EFD32468046B2
:1022600089463B463046394600F028FF02460B4679
:102270004046494600F022FF524606460F465B465E
:10228000DDE9040100F068FDDDE9062300F016FF3A
:1022900032463B4600F060FD5246804689465B462A
:1022A0005046594600F00AFF0022634BCDE90A016F
:1022B00000F052FD42464B4600F04EFD02980F469C
:1022C000064632463B465046594600F0F7FE00228D
:1022D00082468B46584B3046394600F03BFDDDE9DF
:1022E0000A2300F037FD02460B464046494600F0FF
:1022F00031FDDDE9042300F0E1FE324680468946E7
:102300003B46DDE9060100F0D9FE02460B46404699
:10231000494600F021FD8046894602460B4650465C
:102320005946CDE904AB00F017FDDDE902AB38A357
:10233000D3E9002350460F4600F0C0FEDDE9042338
:10234000CDE902013946504600F004FD02460B4635
:102350004046494600F0FEFC2FA3D3E9002300F0DD
:10236000ADFE2FA3D3E90023804689465046394667
:1023700000F0A4FE02460B464046494600F0ECFC45
:10238000DDE90E2300F0E8FC80460D98894600F058
:102390002FFE424606460F464B46DDE9020100F09D
:1023A000DBFCDDE9082300F0D7FC32463B4600F0B9
:1023B000D3FC32463B4650468B4600F0CBFCDDE971
:1023C000082300F0C7FCDDE9022300F0C3FC02464D
:1023D0000B464046494600F0BDFC80462EE000BF5B
:1023E000EF4E454A287ECA3F65DBC9934A86CD3FFA
:1023F00001411DA96074D13F4D268F515555D53FE0
:10240000FFAB6FDBB66DDB3F033333333333E33F77
:10241000000000E009C7EE3FFD033ADC09C7EE3FCC
:10242000F5015B14E02F3EBE000040438E98030090
:1024300079B60B000000F03F000008408946013CDF
:1024400054EA0503DDE9000114BFD94CD94C00233F
:10245000CDE9043403460C46CDE90234002302934F
:10246000DDE9024522462B4600F074FC52465B46ED
:1024700000F024FEDDE9002306460F4640464946AB
:1024800000F01CFE02460B463046394600F064FC64
:102490002246804689462B4650465946CDE900895A
:1024A00000F00CFE0B46024606460F4640464946E3
:1024B00000F052FCC04B994204460D468A4640F358
:1024C000168101F13F4303F5E003034340F0EA8145
:1024D000A3A3D3E90023DDE9000100F03DFC32466F
:1024E000804689463B462046294600F033FC02469A
:1024F0000B464046494601F071F8002840F0D28171
:10250000A8464FEA28534FF48012A3F2FE3342FA52
:1025100003F35344C3F30A52A84DA2F2FF3215410C
:10252000C3F3130423EA05010020C2F1140B44F4A1
:102530008014BAF1000F02460B4644FA0BFB3046FA
:102540003946B8BFCBF1000B00F004FC02460B4645
:1025500006460F46DDE9000100F0FEFB4FEA0B5A8C
:102560000D46002480A3D3E900232046294600F02D
:10257000A5FD3246804689463B462046294600F066
:10258000E9FB02460B46DDE9000100F0E3FB78A31E
:10259000D3E9002300F092FD77A3D3E90023064698
:1025A0000F462046294600F089FD02460B4630467C
:1025B000394600F0D1FB06460F4602460B46404620
:1025C000494600F0C9FB42464B4604460D4600F022
:1025D000C1FB02460B463046394600F0BBFB2246A3
:1025E000804689462B462046294600F067FD64A3B5
:1025F000D3E9002306460F4600F060FD62A3D3E94D
:10260000002300F0A7FB32463B4600F057FD60A3D5
:10261000D3E9002300F0A0FB32463B4600F04EFD1C
:102620005DA3D3E9002300F095FB32463B4600F062
:1026300045FD5BA3D3E9002300F08EFB32463B4609
:1026400000F03CFD02460B462046294600F082FB86
:1026500006460F4602460B462046294600F02EFD50
:102660000022CDE900014FF080433046394600F0AA
:1026700071FB02460B46DDE9000100F049FE4246CF
:1026800006460F464B462046294600F017FD4246B7
:102690004B4600F061FB02460B463046394600F0DF
:1026A00059FB22462B4600F055FB02460B46002004
:1026B0003F4900F04FFB8A44BAF5801FC0F23381D6
:1026C0005146DDE9042300F0F9FC5BE44246404654
:1026D0004B46494600F0F2FC54E4BAF1000FBFF655
:1026E000E0ACDDE90034184604F100414AE4344B23
:1026F00021F00048984540F3F280324B0B440343ED
:102700000CD132463B4600F025FB02460B46DDE984
:10271000000100F04FFF00283FF4F3AEDDE90401B3
:1027200021A3D3E9002300F0C9FC1FA3D3E90023B0
:1027300000F0C4FC26E402460B4600201C4900F0D1
:10274000E7FD3CE400220023CDE90823CDE90E2378
:10275000174B00220027CDE90623E6E4AFF3008003
:10276000FE822B654715973C00000000432EE63F94
:10277000EF39FAFE422EE63F396CA80C615C20BEB0
:10278000D0A4BE726937663EF16BD2C541BDBB3E77
:102790002CDE25AF6A56113F93BDBE166CC1663F55
:1027A0003E5555555555C53F59F3F8C21F6EA50105
:1027B0000000F03F0000F0BFFFFF8F40FFFF0F0061
:1027C000FFCB904000346F3F6B4B9E427FF766AC6F
:1027D0006A4B9E423FF713AC0022684B00F0BAFAF6
:1027E00057A3D3E9002306460F4600F067FC56A323
:1027F000D3E90023804689463046394600F05EFC26
:10280000002282468B465E4B3046394600F056FC2D
:1028100002460B464EA1D1E9000100F09BFA324678
:102820003B4600F04BFC02460B460020554900F0A9
:1028300091FA3246CDE902013B463046394600F076
:102840003DFC02460B46DDE9020100F037FC42A3E5
:10285000D3E9002300F032FC02460B4650465946AD
:1028600000F078FA02460B4606460F4640464946B7
:1028700000F072FA42464B46002082468B4600F03A
:1028800069FA02460B463046394600F063FA804644
:102890008946D4E542464B460020384900F038FDD1
:1028A000FFF770BBDDE904012DA3D3E9002300F09D
:1028B00005FC2BA3D3E9002300F000FCFFF762BB6B
:1028C000BEF1000F7FF469ABC3F1140347FA03F2C2
:1028D00002FA03F39F422AD07446FFF736BB294B16
:1028E00098453FF70EAEDDE902239246934638E65F
:1028F00002460B4600F02EFA02460B4600F008FD99
:10290000FFF740BB18A3D3E90023CDE9082318A3A0
:10291000D3E90023CDE90E231B4B00224FF480277F
:10292000CDE9062301E45A4600F08AF9C9E602F02F
:102930000102C2F10204FFF708BB00BFAFF3008041
:10294000000000604715F73F44DF5DF80BAE543ED2
:10295000555555555555D53FFE822B654715F73FC3
:102960009C7500883CE4377E0000004003B8E23FDD
:1029700006D0CF43EBFD4C3EFEFFEF3F0000F03FA3
:102980000000D03F0000E03F0000F83F2DE9F84391
:102990005B4F8F4305460C4600F0928000290B46A2
:1029A00002466FDD0F157BD0A7F2FF37C3F3130389
:1029B000F80743F480135CD403EBD27100260B4478
:1029C0007F105200B64616204FF400110EEB0104A2
:1029D0009C424FEAD2754FEA420203DC1B1B04EB18
:1029E000010E0E44013805EB43034FEA5101EDD1CE
:1029F000844620244FF0004109E020D003EBD2753B
:102A0000013C4FEA51012B444FEA420220D073456A
:102A100001EB0C05F1DD002D05EB010C09DBF046A7
:102A20009542A3EB0E0300D9013B521B0844C64656
:102A3000E4E7BCF1000FF2DB0EF10108F0E795428C
:102A4000DCD8002D05EB010C44DB98460023ECE7B5
:102A5000134313D14008731003F17F5303F50013A0
:102A6000F20703EB075948BF40F000404946BDE874
:102A7000F8835B0003EBD27352009DE7411C2DD01D
:102A80000130E7E7064621F000473E43EFD069BB3F
:102A90000F46D30A153F5205002BFAD0DE0220D490
:102AA000002400E004465B00DD0204F10100F9D5DA
:102AB000C0F1200122FA01F10B433F1B824073E772
:102AC00002460B4600F0FAFA2A46234600F044F983
:102AD000BDE8F883BCF1000FAEDAB6E70136204658
:102AE000B9E7002020214FF0FF34E3E702460B4610
:102AF00000F030F902460B4600F00AFCB7E700BFD1
:102B00000000F07F21F00041704700BF41F000411C
:102B100001F58010C00F7047002070470020014968
:102B2000704700BF0000F87FF0B5C1F30A5EAEF257
:102B3000FF36132E83B002460B460C464FEAD17582
:102B400007462EDC002E49DB3A49314103EA0100F9
:102B500010432BD049080B4053EA02070CD04FF426
:102B60008023132E24EA010143FA06F444EA010407
:102B70000CBF4FF0004700272F4B03EBC505214644
:102B8000D5E90045384622462B4600F0E5F8CDE968
:102B9000000122462B46DDE9000100F0DBF803B01E
:102BA000F0BD332E06DDB6F5806F40D010461946D5
:102BB00003B0F0BDAEF2134E4FF0FF3121FA0EF12B
:102BC0000842F3D049080842D6D04FF0804320EAAB
:102BD000010143FA0EFE4EEA0107CDE721F0004164
:102BE0000143E3D0C3F31301134E0143C1F1000CC1
:102BF00006EBC506D6E900674CEA010C4FEA1C3C1F
:102C00005C0C64040CF4002343EA040132463B46A6
:102C100000F0A2F8CDE9000132463B46DDE90001B3
:102C200000F098F821F0004444EAC571C0E700F0D4
:102C300093F8BDE7FFFF0F00306740000000000081
:102C4000F8B5C1F30A5604460D460B4617460EBBAF
:102C500021F000430343864625D00022344B00F088
:102C60002DFA344A974204460D460B462ADBC1F33F
:102C70000A56363E3E4440F2FE72964228DC002E52
:102C800012DD23F0FF4323F4E00343EA0655204618
:102C90002946F8BD40F2FF729642EBD102460B4640
:102CA00000F05AF8F8BDF8BD16F1350F1DDA4CF2F8
:102CB00050339F4222462B4625DC19A1D1E9000161
:102CC00000F03CF816A3D3E9002300F0F7F9F8BDB3
:102CD00022462B4614A1D1E9000100F02FF812A3DF
:102CE000D3E9002300F0EAF9F8BD23F0FF4323F411
:102CF000E003363643EA06552046294600220E4BAD
:102D000000F0DCF9F8BD08A1D1E9000100F016F8E7
:102D100005A3D3E9002300F0D1F9F8BDAFF300809B
:102D200059F3F8C21F6EA5019C7500883CE4377EFC
:102D300000005043B03CFFFF0000903C03F0004314
:102D400021F0004242EA0301704700BF81F00041D8
:102D500002E000BF83F0004330B54FEA41044FEA80
:102D6000430594EA050F08BF90EA020F1FBF54EA1B
:102D7000000C55EA020C7FEA645C7FEA655C00F0B7
:102D8000E2804FEA5454D4EB5555B8BF6D420CDD88
:102D90002C4480EA020281EA030382EA000083EA0B
:102DA000010180EA020281EA0303362D88BF30BDAB
:102DB00011F0004F4FEA01314FF4801C4CEA113101
:102DC00002D0404261EB410113F0004F4FEA033360
:102DD0004CEA133302D0524263EB430394EA050FEB
:102DE00000F0A780A4F10104D5F1200E0DDB02FA5A
:102DF0000EFC22FA05F2801841F1000103FA0EF2EE
:102E0000801843FA05F359410EE0A5F120050EF1B3
:102E1000200E012A03FA0EFC28BF4CF0020C43FAE4
:102E200005F3C01851EBE37101F0004507D54FF0F1
:102E3000000EDCF1000C7EEB00006EEB0101B1F541
:102E4000801F1BD3B1F5001F0CD349085FEA300087
:102E50004FEA3C0C04F101044FEA445212F5800F92
:102E600080F09A80BCF1004F08BF5FEA500C50F12F
:102E7000000041EB045141EA050130BD5FEA4C0C12
:102E8000404141EB010111F4801FA4F10104E9D19B
:102E900091F0000F04BF01460020B1FA81F308BF92
:102EA0002033A3F10B03B3F120020CDA0C3208DD5E
:102EB00002F1140CC2F10C0201FA0CF021FA02F139
:102EC0000CE002F11402D8BFC2F1200C01FA02F1A9
:102ED00020FA0CFCDCBF41EA0C019040E41AA2BFCE
:102EE00001EB0451294330BD6FEA04041F3C1CDA96
:102EF0000C340EDC04F11404C4F1200220FA04F0B6
:102F000001FA02F340EA030021FA04F345EA03015F
:102F100030BDC4F10C04C4F1200220FA02F001FA21
:102F200004F340EA0300294630BD21FA04F02946A3
:102F300030BD94F0000F83F4801306BF81F480113C
:102F40000134013D4EE77FEA645C18BF7FEA655CAF
:102F500029D094EA050F08BF90EA020F05D054EA81
:102F6000000C04BF1946104630BD91EA030F1EBF86
:102F70000021002030BD5FEA545C05D1400049418A
:102F800028BF41F0004130BD14F580043CBF01F57D
:102F9000801130BD01F0004545F0FE4141F4700163
:102FA0004FF0000030BD7FEA645C1ABF194610463E
:102FB0007FEA655C1CBF0B46024650EA013406BF3F
:102FC00052EA033591EA030F41F4002130BD00BFFE
:102FD00090F0000F04BF0021704730B54FF48064BB
:102FE00004F132044FF000054FF0000150E700BF3C
:102FF00090F0000F04BF0021704730B54FF480649B
:1030000004F1320410F0004548BF40424FF0000187
:103010003EE700BF42004FEAE2014FEA31014FEACA
:1030200002701FBF12F07F4393F07F4F81F0605119
:10303000704792F0000F14BF93F07F4F704730B588
:103040004FF4607401F0004521F0004120E700BF1B
:1030500050EA010208BF704730B54FF000050AE0A2
:1030600050EA010208BF704730B511F0004502D5A3
:10307000404261EB41014FF4806404F132045FEAA5
:10308000915C3FF4DCAE4FF003025FEADC0C18BF4A
:1030900003325FEADC0C18BF033202EBDC02C2F140
:1030A000200300FA03FC20FA02F001FA03FE40EAD2
:1030B0000E0021FA02F11444C1E600BF70B54FF0D2
:1030C000FF0C4CF4E06C1CEA11541DBF1CEA1355B4
:1030D00094EA0C0F95EA0C0F00F0DEF82C4481EA1C
:1030E000030621EA4C5123EA4C5350EA013518BF3C
:1030F00052EA033541F4801143F4801338D0A0FB29
:1031000002CE4FF00005E1FB02E506F00042E0FBD5
:1031100003E54FF00006E1FB03569CF0000F18BFDB
:103120004EF0010EA4F1FF04B6F5007F64F5407483
:1031300004D25FEA4E0E6D4146EB060642EAC62116
:1031400041EA55514FEAC52040EA5E504FEACE2E83
:10315000B4F1FD0C88BFBCF5E06F1ED8BEF1004F86
:1031600008BF5FEA500E50F1000041EB045170BD02
:1031700006F0004646EA010140EA020081EA030146
:10318000B4EB5C04C2BFD4EB0C0541EA045170BD42
:1031900041F480114FF0000E013C00F3AB8014F1BC
:1031A000360FDEBF002001F0004170BDC4F1000405
:1031B000203C35DA0C341BDC04F11404C4F1200586
:1031C00000FA05F320FA04F001FA05F240EA0200E1
:1031D00001F0004221F0004110EBD37021FA04F617
:1031E00042EB06015EEA430E08BF20EAD37070BDD1
:1031F000C4F10C04C4F1200500FA04F320FA05F030
:1032000001FA04F240EA020001F0004110EBD37031
:1032100041F100015EEA430E08BF20EAD37070BDA1
:10322000C4F1200500FA05F24EEA020E20FA04F37A
:1032300001FA05F243EA020321FA04F001F0004129
:1032400021FA04F220EA020000EBD3705EEA430E9A
:1032500008BF20EAD37070BD94F0000F0FD101F0C9
:103260000046400041EB010111F4801F08BF013C02
:10327000F7D041EA060195F0000F18BF704703F040
:103280000046520043EB030313F4801F08BF013DC7
:10329000F7D043EA0603704794EA0C0F0CEA135583
:1032A00018BF95EA0C0F0CD050EA410618BF52EA3D
:1032B0004306D1D181EA030101F000414FF0000043
:1032C00070BD50EA410606BF1046194652EA430651
:1032D00019D094EA0C0F02D150EA013613D195EAC5
:1032E0000C0F05D152EA03361CBF104619460AD10D
:1032F00081EA030101F0004141F0FE4141F4700117
:103300004FF0000070BD41F0FE4141F4780170BD06
:1033100070B54FF0FF0C4CF4E06C1CEA11541DBF6B
:103320001CEA135594EA0C0F95EA0C0F00F0A7F86D
:10333000A4EB050481EA030E52EA03354FEA01319A
:1033400000F088804FEA03334FF0805545EA1313AD
:1033500043EA12634FEA022245EA111545EA106575
:103360004FEA00260EF000419D4208BF964244F10C
:10337000FD0404F5407402D25B084FEA3202B61A2B
:1033800065EB03055B084FEA32024FF480104FF4FF
:10339000002CB6EB020E75EB030E22BFB61A754673
:1033A00040EA0C005B084FEA3202B6EB020E75EB06
:1033B000030E22BFB61A754640EA5C005B084FEA6E
:1033C0003202B6EB020E75EB030E22BFB61A75463B
:1033D00040EA9C005B084FEA3202B6EB020E75EB46
:1033E000030E22BFB61A754640EADC0055EA060E07
:1033F00018D04FEA051545EA16754FEA06164FEA4A
:10340000C30343EA52734FEAC2025FEA1C1CC0D1F5
:1034100011F4801F0BD141EA00014FF000004FF082
:10342000004CB6E711F4801F04BF01430020B4F143
:10343000FD0C88BFBCF5E06F3FF6AFAEB5EB030CFB
:1034400004BFB6EB020C5FEA500C50F1000041EBF8
:10345000045170BD0EF0004E4EEA113114EB5C04C5
:10346000C2BFD4EB0C0541EA045170BD41F4801198
:103470004FF0000E013C90E645EA060E8DE60CEAA0
:10348000135594EA0C0F08BF95EA0C0F3FF43BAFBD
:1034900094EA0C0F0AD150EA01347FF434AF95EA74
:1034A0000C0F7FF425AF104619462CE795EA0C0F58
:1034B00006D152EA03353FF4FDAE1046194622E725
:1034C00050EA410618BF52EA43067FF4C5AE50EAFF
:1034D00041047FF40DAF52EA43057FF4EBAE12E7EF
:1034E0004FF0FF3C06E000BF4FF0010C02E000BFD0
:1034F0004FF0010C4DF804CD4FEA410C7FEA6C5CB3
:103500004FEA430C18BF7FEA6C5C1BD001B050EA55
:10351000410C0CBF52EA430C91EA030F02BF90EA40
:10352000020F0020704710F1000F91EA030F58BFFF
:10353000994208BF90422CBFD8176FEAE37040F061
:10354000010070474FEA410C7FEA6C5C02D150EAFF
:10355000013C07D14FEA430C7FEA6C5CD6D152EABA
:10356000033CD3D05DF8040B704700BF844610467F
:1035700062468C461946634600E000BF01B5FFF77E
:10358000B7FF002848BF10F1000F01BD4DF808ED4E
:10359000FFF7F4FF0CBF012000205DF808FB00BF1F
:1035A0004DF808EDFFF7EAFF34BF012000205DF879
:1035B00008FB00BF4DF808EDFFF7E0FF94BF0120C6
:1035C00000205DF808FB00BF4DF808EDFFF7CEFFC7
:1035D00094BF012000205DF808FB00BF4DF808ED06
:1035E000FFF7C4FF34BF012000205DF808FB00BFD7
:1035F0004FEA410C7FEA6C5C02D150EA013C0AD1EF
:103600004FEA430C7FEA6C5C02D152EA033C02D1E0
:103610004FF0000070474FF0010070474A0011D290
:1036200012F5001211D20DD56FF47873B3EB62521C
:103630000ED44FEAC12343F0004343EA505323FA28
:1036400002F070474FF00000704750EA013002D19D
:103650004FF0FF3070474FF0000070477BB972B9F0
:103660000029BEBF00204FF0004106E008BF00283F
:103670001CBF6FF000414FF0FF3000F0EBB9ADF12F
:10368000080C6DE904CE002909DB002B1ADB00F0E1
:1036900073F8DDF804E0DDE9022304B0704740422E
:1036A00061EB4101002B1BDB00F066F8DDF804E064
:1036B000DDE9022304B0404261EB4101524263EB79
:1036C00043037047524263EB430300F055F8DDF8C3
:1036D00004E0DDE9022304B0404261EB41017047A0
:1036E000524263EB430300F047F8DDF804E0DDE904
:1036F000022304B0524263EB4303704738B50546DA
:103700000C462846214600220023FFF749FF28B92E
:1037100028462146BDE8384000F00AB8284604F1A2
:10372000004100F005F8404261EB410138BD00BFA7
:10373000D0B500220E4B06460F46FFF7BFFCFFF741
:103740006DFF0446FFF744FC00220A4BFFF7B6FC6E
:1037500002460B4630463946FFF7FCFAFFF75EFF9C
:103760002346002242EA000210461946D0BD00BF9F
:103770000000F03D0000F0412DE9F0478C460D4679
:103780000446089E002B51D18A4217466DD9B2FAE1
:1037900082FEBEF1000F0BD0CEF1200C01FA0EF527
:1037A00020FA0CFC02FA0EF74CEA050C00FA0EF4B3
:1037B0004FEA174A250CBCFBFAF81FFA87F90AFBF7
:1037C00018CC45EA0C4508FB09F3AB420AD9ED19C0
:1037D00008F1FF3280F02381AB4240F22081A8F152
:1037E00002083D44ED1AA4B2B5FBFAF00AFB1055ED
:1037F00044EA054400FB09F9A14509D9E41900F19F
:10380000FF3380F00A81A14540F2078102383C4431
:10381000A4EB090440EA08400021002E61D024FAFC
:103820000EF4002334607360BDE8F0878B4207D943
:10383000002E54D0002186E821000846BDE8F0871C
:10384000B3FA83F1002940F08E80AB4202D382426A
:1038500000F2FA80841A65EB03050120AC46002EC5
:103860003FD086E81010BDE8F08712B90127B7FBFA
:10387000F2F7B7FA87FEBEF1000F34D1EB1B3A0C1A
:103880001FFA87FC0121B3FBF2F8250C02FB183369
:1038900045EA03450CFB08F3AB4207D9ED1908F1E3
:1038A000FF3002D2AB4200F2D1808046ED1AA3B2C3
:1038B000B5FBF2F002FB105543EA05440CFB00FC9B
:1038C000A44507D9E41900F1FF3302D2A44500F260
:1038D000B8801846A4EB0C0440EA08409DE7314646
:1038E0003046BDE8F087CEF1200405FA0EF307FA62
:1038F0000EF720FA04F83A0C25FA04F448EA030813
:10390000B4FBF2F14FEA184502FB11441FFA87FCA1
:1039100045EA044501FB0CF3AB4200FA0EF409D969
:10392000ED1901F1FF3080F08A80AB4240F28780D0
:1039300002393D44EB1A1FFA88F5B3FBF2F002FBA3
:10394000103345EA034500FB0CF3AB4207D9ED19F0
:1039500000F1FF386FD2AB426DD902383D44EB1A0B
:1039600040EA01418FE7C1F1200722FA07F88B40B6
:1039700005FA01F448EA030320FA07FE4FEA134C64
:10398000FD404EEA040EB5FBFCF94FEA1E440CFB69
:1039900019551FFA83F844EA054509FB08F4AC42BF
:1039A00002FA01F200FA01FA08D9ED1809F1FF3024
:1039B00043D2AC4241D9A9F102091D442D1B1FFA83
:1039C0008EFEB5FBFCF00CFB10554EEA054400FBE7
:1039D00008F8A04507D9E41800F1FF3529D2A04521
:1039E00027D902381C4440EA0940A4EB0804A0FB94
:1039F00002894C45C6464D4615D312D056B1BAEB96
:103A00000E0364EB050404FA07F7CB401F43CC40D8
:103A1000376074600021BDE8F0871846F8E69046EC
:103A2000E0E6C245EAD2B8EB020E69EB03050138C5
:103A3000E4E72846D7E7404691E78146BEE70146DE
:103A400078E702383C4445E7084608E7A8F1020851
:103A50003D442BE7704700BF014B1868704700BF1B
:103A60001000002070B50F4E0F4D761BB61018BF1A
:103A7000002405D0013455F8043B9847A642F9D1FB
:103A80000A4E0B4D761B02F00FFFB61018BF002434
:103A900006D0013455F8043B9847A642F9D170BDD1
:103AA00070BD00BFB4684000B4684000BC6840000E
:103AB000B46840000FB400B5074983B004AB086890
:103AC00053F8042B8168019300F0E8F903B05DF826
:103AD00004EB04B0704700BF1000002070B48607EC
:103AE00046D0541E002A41D0CAB2034602E014F167
:103AF000FF343BD303F8012B9D07F8D1032C2ED9BB
:103B0000CDB245EA05250F2C45EA054519D903F143
:103B100010022646103E0F2E42F8105C42F80C5C54
:103B200042F8085C42F8045C02F11002F2D8A4F1F9
:103B3000100222F00F0204F00F041032032C134481
:103B40000DD91E462246043A032A46F8045BFAD8E9
:103B5000221F22F003020432134404F003042CB1A8
:103B6000C9B21C4403F8011B9C42FBD170BC7047D6
:103B700014460346C2E700BF00290CBF0222002200
:103B80004FF4806300F000B82DE9F043614C2568E4
:103B900083B004460F4690461E4615B1AB6B002B12
:103BA00064D0B8F1020F06D0B8F1010F00F29F8087
:103BB000002EC0F29C80636ED80734D5214628467B
:103BC00001F00AF9216B41B104F14003994202D09E
:103BD000284601F07FFA00232363B4F90C30002259
:103BE000A26162601A063AD423F44A6323F0030305
:103BF000B8F1020FA3811DD001AB6A4621462846C9
:103C000001F006FDA3891843A081002E32D1009E49
:103C1000304601F075FD074600286BD0A38943F0BC
:103C20008003A38128E0A3899905C7D4A06D01F082
:103C3000EBFCC3E70025616E002604F1430243F06C
:103C400002030120A660CE07A38122602261606189
:103C500001D498053ED5284603B0BDE8F08321691C
:103C6000284601F037FAB4F90C30BDE7284601F0D8
:103C70000BF996E7002FCBD0AB6B002B33D0009B1A
:103C8000B4F90C2027609E421CBF42F40062A2815E
:103C9000B8F1010F04BF42F00102A28192B212F00A
:103CA0000803276166610ED0D1071AD5656E76428A
:103CB000002315F00105A661A36009D00025284660
:103CC00003B0BDE8F083A360656E15F00105F5D182
:103CD0009305C0D4A06D01F099FC284603B0BDE85F
:103CE000F083A660F0E7284601F0CEF8C7E74FF072
:103CF000FF35B0E7DDF80090B14504D0484601F04B
:103D0000FFFC074620B9B4F90C304FF0FF3592E7BD
:103D10004E4683E710000020000000000000000075
:103D20000000000000000000000000000000000093
:103D30000000000000000000000000000000000083
:103D400090F800F06DE9024520F007016FF0000CDB
:103D500010F0070491F820F040F049804FF0000483
:103D60006FF00700D1E9002391F840F000F108005E
:103D700082FA4CF2A4FA8CF283FA4CF3A2FA8CF396
:103D80004BBBD1E9022382FA4CF200F10800A4FAFD
:103D90008CF283FA4CF3A2FA8CF3E3B9D1E9042351
:103DA00082FA4CF200F10800A4FA8CF283FA4CF388
:103DB000A2FA8CF37BB9D1E9062301F1200182FA42
:103DC0004CF200F10800A4FA8CF283FA4CF3A2FA48
:103DD0008CF3002BC6D0002A04BF04301A4612BA56
:103DE000B2FA82F2FDE8024500EBD2007047D1E959
:103DF000002304F00305C4F100004FEAC50514F0E8
:103E0000040F91F840F00CFA05F562EA05021CBFB8
:103E100063EA050362464FF00004A9E72DE9F84F75
:103E20004B6E9C0493462FD59368126853B30E468D
:103E3000074602F1080919E920045FEA9A0817D039
:103E4000043D002401E0A04510D0324655F8041F7F
:103E5000384601F0BBF8431C04F10104F3D1002300
:103E6000CBF80830CBF80430BDE8F88FDBF8083029
:103E70002AF0030AA3EB0A03CBF8083009F108097A
:103E8000002BD8D10020EAE701F00AFA0023CBF892
:103E90000830CBF80430BDE8F88F00BF2DE9F04FB3
:103EA000ADB01D468B4690460793069018B1836BC4
:103EB000002B00F0F380DBF86430BBF90C00DF0767
:103EC00081B202D48E0540F1FC808C040AD4DBF868
:103ED000643040F4005123F40053ABF80C10CBF8DD
:103EE000643089B2080740F1B380DBF81030002B52
:103EF00000F0AE8001F01A030A2B00F0B580002319
:103F00000DF170090B93119310930393CDF83C902E
:103F1000CA46CDF810B098F800304446FBB1252BC6
:103F200002D11CE0252B03D014F8013F002BF9D15E
:103F3000A4EB08059DB1109B119ACAF800800133CB
:103F40002A44072BCAF80450119210937ADD002AF4
:103F500040F0B084039B10922B44CA46039323780D
:103F6000002B00F0E08300204FF000038DF8373085
:103F700004F1010862780546064603464FF0FF3417
:103F800008F10108A2F12001582900F2DE82DFE8E1
:103F900011F02102DC02DC022902DC02DC02DC027C
:103FA000DC02DC02DC0289029502DC02A200BD0216
:103FB000DC029F01A401A401A401A401A401A401A5
:103FC000A401A401A401DC02DC02DC02DC02DC02AC
:103FD000DC02DC02DC02DC02DC02B201DC02DC021C
:103FE000DC02DC02DC02DC02DC02DC02DC02DC02E1
:103FF0009701DC02DC02DC02DC02DC029B01DC0259
:10400000DC025302DC02DC02DC02DC02DC02DC0249
:10401000DC02DC02DC02DC025A021B02DC02DC02F3
:10402000DC026E021B02DC02DC027302DC02F50120
:1040300082010902D702DC029A02DC02A700DC023C
:10404000DC022E020AF1080A039B2B44039386E745
:104050005946069800F0ACFD18BBBBF80C1001F0F7
:104060001A030A2B7FF44BAFBBF90E30002BFFF67F
:1040700046AFDBF86430DB0705D48F0503D4DBF8EB
:10408000580001F0C3FA2B4642465946069800F004
:104090004DFD039003982DB0BDE8F08F00F0F4FEC5
:1040A00009E7DBF86430D90704D4BBF80C309A0573
:1040B00040F1AA844FF0FF33039303982DB0BDE87D
:1040C000F08FDBF8580001F09FFABBF90C0081B2C9
:1040D000FBE67642079243F0040398F800204FE78E
:1040E00008969E0600F150840799DD060A4600F105
:1040F000EF83580640F1EC830E880431002701223B
:1041000007914FF000018DF837100025611C00F079
:10411000168123F08001029156EA070140F01481D4
:10412000002C40F05C83002A40F0B78313F00103B9
:10413000059300F057840DF1B00B30230BF8413D8F
:10414000059BA342B8BF234601930DB101330193F0
:10415000029B13F00203099302D0019B02330193E7
:10416000029B13F084030A9340F01782089B019A84
:104170009D1A002D40F31182102D40F39084109B66
:10418000119AC44ED6461027A2461946069C07E04F
:1041900001F1020C0EF1080E0146103D102D11DD4B
:1041A000481C1032072811928EE8C0001090EFDDF5
:1041B000002A40F0E481103D102D11464FF0010C13
:1041C000CE46EDDC54466146F2462A440729119258
:1041D000CAF80060CAF80450109100F3EC829DF810
:1041E00037500AF1080A481C002D40F0DE81099B77
:1041F000002B00F0F88102320EA902230728119249
:1042000010908AE80A0040F3EA81002A40F08C838B
:104210000A9B802B4FF001001146CA4640F0E7810F
:10422000089B019D5E1B002E40F3E181102E9A4DEC
:1042300040F35084D4461027A246069C07E001F1C3
:10424000020E0CF1080C0146103E102E11DD481C28
:104250001032072811928CE8A0001090EFDD002AA0
:1042600040F09D82103E102E4FF0010E1146CC46BC
:10427000EDDC5446E2463244BEF1070F11928AE863
:104280006000CDF840E000F369830AF1080A0EF1FE
:1042900001007146ABE1089613F0200240F08C83D8
:1042A00013F0100140F01A8313F0400200F016835F
:1042B00007980A460146043106880791002720E73F
:1042C000089643F01003E7E7089643F0100308E769
:1042D00043F0800398F8002052E6A2F13001002656
:1042E00018F8012B06EB860601EB4606A2F1300119
:1042F0000929F5D946E60896002840F0088443F0DD
:1043000010039E0600F14C83DD0600F1F38258068F
:1043100040F1F082079DB5F900602A46F717043294
:10432000304639460792002871F10002C0F25D83E1
:10433000611C9DF837504FF001027FF4EAAE56EA57
:10434000070100F04D820293012A00F08C82022ABC
:1043500040F05C820B98CB46330906F00F0143EA2C
:1043600007733A091E461746435C0BF8013D56EAAF
:104370000703F1D1A9EB0B030593E1E6002840F018
:10438000C083990600F16783DA0600F1F1805B06CD
:1043900040F1EE80079A136804320792BDF80C20B2
:1043A0001A80B8E507983D4A08960B92066878226D
:1043B000302104308DF8392043F0020307900027A4
:1043C0008DF8381002229CE60896002899D08DF8C6
:1043D000375096E798F80020002D7FF4D1AD0120EA
:1043E0002025CDE543F0010398F80020C8E50896A4
:1043F000002840F0938329490B919F0600F1E88241
:104400000798DE06014600F170825D0640F16D827C
:104410000431068807910027D80740F1228256EA26
:10442000070100F01E8230218DF8392043F002038D
:104430008DF83810022264E60896002840F06B835D
:1044400017490B91D9E7079908960A688DF8482013
:104450004FF000000A468DF8370004320120019029
:10446000079205900DF1480B0293002470E643F08B
:10447000400398F8002083E598F800206C2A03BFD9
:1044800098F8012043F0200308F1010843F01003DD
:1044900076E500BF746740008467400058674000BD
:1044A0004467400007990E680A46002E02F1040294
:1044B000FFF60FAE079298F8002061E598F800200B
:1044C00001202B255CE507990896D1F800B04FF044
:1044D00000028DF837200E1DBBF1000F00F0E582C1
:1044E000671C00F0C482224600215846019301F067
:1044F000D7FB019B002800F0E582A0EB0B020592A0
:10450000079602939DF83750002419E698F800208A
:104510002A2A08F1010700F0E982A2F130010929F5
:10452000B8464FF000043FF62DAD18F8012B04EB10
:10453000840401EB4404A2F130010929F5D921E5F5
:1045400043F0200398F800201AE50896002840F070
:10455000DB82002A00F0E78001218DF848204FF02F
:10456000000201918DF8372005910DF1480B7BE792
:10457000079A136804320792039A1A60CBE40FAAD1
:1045800004992046FFF74AFC002840F03981109931
:10459000119A01F1010CCE46FFE51099119A481CC1
:1045A0009DF83750002D3FF422AE01320DF1370552
:1045B0000121072811921090CAF80050CAF804107F
:1045C00040F30881002A40F0BC81099B002B3FF496
:1045D0001FAE0EAB022208461C931D92CA4601462E
:1045E0000AF1080A01300A9B802B3FF419AE059BA3
:1045F000E41A002C2EDD102CB34D1EDDD6461026FD
:10460000069FDDF810A006E0881C0EF1080E194682
:10461000103C102C10DD4B1C1032072B11928EE831
:1046200060001093F0DD002A65D1103C102C4FF093
:1046300001001146CE46EEDCF246224407281192D4
:10464000CAF80050CAF80440109000F385800AF1BF
:10465000080A01300599CAF800B00A4407281192E7
:10466000CAF80410109040F38280002A40F01881AC
:10467000029B1092580735D5089B01995C1A002CB3
:1046800040F3E780CA46102C40F3188210998F4EF1
:10469000069FDDF810B0102506E0881C0AF1080A14
:1046A0001946103C102C11DD4B1C1032072B1192B7
:1046B000CAF80060CAF804501093EEDD42BB103C0B
:1046C000102C4FF001001146CA46EDDC22440728A9
:1046D0001192CAF80060CAF80440109051DD002A17
:1046E00040F09B81039B089A01998A42ACBF9B18BA
:1046F0005B1803934EE00FAA51463846FFF78EFB36
:10470000002840F03F811099119A481CCE467FE75F
:104710000FAA59463846FFF781FB60B91099119AE4
:10472000481CCA46BDE7119BDDF810B0002B40F0D5
:10473000D48100231093DBF8643013F0010FBBF831
:104740000C3002D19A0540F1DE805B063FF5B2AC39
:1047500003982DB0BDE8F08F002A40F00681059A3D
:104760001D9201231192CDF870B01093CA460AF140
:10477000080A029B590704D5089B01995C1A002C72
:1047800081DC039B089901988142ACBF5B181B1820
:10479000039372BB00231093CA46FFF7BCBB0FAA5A
:1047A00004992046FFF73AFB50BB1099119A01F18A
:1047B000010ECC4648E5002A40F040819DF83710B4
:1047C000002900F01B8101220DF1370110461D92D6
:1047D0001C91CA4601460AF1080A013007E5029B0E
:1047E000012A00F09880022A0DD1029300260027AA
:1047F000B0E50FAA04990698FFF710FB0028C9D06E
:10480000DDF810B097E7029300260027494600E044
:104810005946F20842EA4772F80806F007030746CD
:104820001646303356EA070201F8013C01F1FF3B1E
:10483000EED1029AD6077FF59DAD302B3FF49AADAD
:10484000023930230BF8013CA9EB010305938B4699
:1048500076E4039B089A8A42ACBF9B185B180393CB
:1048600098E702224DE4002F08BF0A2E52D3CB4610
:10487000304639460A22002301F036FF30320BF869
:10488000012D3046394600230A2201F02DFF06464D
:104890000F4656EA0703EBD16CE50594CB464FE48F
:1048A0000FAA04990698FFF7B9FA0028A8D1119A1F
:1048B000CA465EE70FAA04990698FFF7AFFA0028E8
:1048C0009ED1CA46FFF7C0BB8467400074674000B2
:1048D0000431166807910122002712E40798014667
:1048E00004310668079100270BE40E680431079134
:1048F000002791E507990E680A46F71704320792D8
:10490000304639460FE5DBF8580000F07FFEBBF873
:104910000C301AE7029B02930DF1B00B30360123E5
:104920000BF8416D05930BE40FAA04990698FFF765
:1049300075FA00287FF464AF1099119A481CCA4692
:1049400051E60FAA04990698FFF768FA00287FF449
:1049500057AF1099119A481CCA4648E4002A40F003
:10496000918001201146CA4641E60FAA0499069893
:10497000FFF754FA00287FF443AF1098119A0130E2
:10498000CA4667E6D346D6E6079E073626F00702F4
:1049900002F10801D2E9006707910122FFF7B1BBDC
:1049A000079E073626F00706D6E9000106F1080241
:1049B000079206460F46B6E4079E073626F0070222
:1049C00002F10801D2E9006707910022FFF799BBC5
:1049D000079E073626F0070101F108000790D1E98C
:1049E000006719E5CB46FFF7ABBB2D25764267EB99
:1049F00047078DF837500122FFF788BB099BB3B9F1
:104A000011460120CA46F2E5DBF8580000F0FEFD31
:104A10004FF0FF330393FFF750BB0FAA049906989A
:104A2000FFF7FCF900287FF4EBAE119AA9E60EAB74
:104A300002221C931D920120CA46D0E50FAA0499B8
:104A40000698FFF7EBF900287FF4DAAE1099119A77
:104A5000481CCA46A4E5079A03991368CD1708466F
:104A6000043229460792C3E90001FFF754BA5846B9
:104A700007960293FFF764F9002405909DF83750DC
:104A8000FFF75EBB0FAA04990698FFF7C7F9002845
:104A90007FF4B6AE1099119A481CCA46A7E5109942
:104AA000119A204E0131FFF790BB062C28BF062437
:104AB000059407960194DFF870B0D5E41098194E6C
:104AC000013003E605949DF837500796029304469B
:104AD000FFF736BB8646FFF7CEBB06980FAA5946AE
:104AE000FFF79CF900283FF424AE24E6079998F8D4
:104AF00001200C68043144EAE474B8460791FFF7DA
:104B00003FBA8DF837503CE48DF8375021E58DF8E9
:104B10003750FFF7F4BB8DF8375091E48DF83750DC
:104B200069E400BF746740006C6740002DE9F04104
:104B30000C46ADF58D6D8989666EE589199621F073
:104B400002010646E069ADF80C1017464FF480618B
:104B5000626AADF80E5098461AAD0023079016A869
:104B600009920693009504950291059100F048FD85
:104B700043463A4669463046FFF790F9051E07DB83
:104B80003046694600F028F9002818BF4FF0FF357D
:104B9000BDF80C305B0603D5A38943F04003A38125
:104BA000169800F02FFD28460DF58D6DBDE8F081BB
:104BB00038B5304B1B6805460C4613B19A6B002A7A
:104BC00038D0B4F90C2093B218070CD52069A8B1DD
:104BD00013F001021ED0636900225B42A361A26050
:104BE000F0B1002038BDD9063CD5580726D420693D
:104BF00042F00803A3819BB20028E9D103F420729C
:104C0000B2F5007FE4D02846214600F02FFDA389AD
:104C10002069DDE7990758BF6269A2600028E0D1EA
:104C2000B4F90C301A06DDD543F04003A3814FF0F0
:104C3000FF3038BD184600F027F9C2E7216B51B1AB
:104C400004F14003994204D0284600F043FAB4F935
:104C50000C200023236300232069636022F02402D8
:104C60002060C5E742F0400209232B604FF0FF307F
:104C7000A28138BD10000020024B13B1024800F0A1
:104C800005B8704700000000F94E400000230146BF
:104C90001A46184601F000BCB1F90C309AB22DE961
:104CA000F0410D46110780463AD46A6843F4006328
:104CB000002AAB816FDDAC6A002C49D000229BB288
:104CC000D8F80060C8F8002013F4805267D02A6D2D
:104CD0005F0705D569682B6B521A0BB1EB6BD21AC3
:104CE0000023E9694046A047441C3CD0B5F90C308C
:104CF0002A692A6023F400630022AB81DB046A6026
:104D000047D4296BC8F8006011B305F140039942FC
:104D100002D0404600F0DEF900202863BDE8F081B3
:104D20002E69AEB12C682E6091070CBF6B69002311
:104D3000A41BAB600AE0234632466F6AE96940462D
:104D4000B8470028A4EB0004064404DD002CF2DC84
:104D50000020BDE8F081AB8943F04003AB814FF008
:104D6000FF30BDE8F081D8F800401D2CF3D8194B76
:104D7000E340DB4313F00103EDD1B5F90C206B6088
:104D800022F400632969AB81DA042960B9D5002CCB
:104D9000B7D12865B5E7EA6B002A8CDCD8E7012398
:104DA000E9694046A047431C024602D0AB89AC6A81
:104DB0008EE7D8F80030002BF8D01D2B01D0162B31
:104DC00002D1C8F80060C3E7AB8943F04003AB8170
:104DD000BDE8F0810100402038B50D46044608B119
:104DE000836BBBB1B5F90C0088B16B6EDB0701D4E6
:104DF000810517D520462946FFF74EFF6B6EDA076F
:104E0000044602D4AB899B0507D5204638BD04462D
:104E1000204638BD00F038F8E4E7A86D00F0F6FB56
:104E2000204638BDA86D00F0EFFBE3E7014900F034
:104E3000AFBB00BF8165400010B5002304468181EF
:104E4000C2810360436083604366036143618361A1
:104E5000194608225C30FEF741FE07480749084A18
:104E6000084B2062E4616162A262E36204F15800CF
:104E7000BDE8104000F0C4BBC5624000E9624000DC
:104E8000256340004563400010B50446124800F019
:104E9000BBFBA26BD2B904F53B731048C4F8E832EF
:104EA0000321C4F8E022E063C4F8E412606804213E
:104EB000FFF7C2FF01220921A068FFF7BDFF022210
:104EC0001221E068FFF7B8FF0123A3630248BDE8A1
:104ED000104000F09BBB00BF048E00202D4E400010
:104EE000014800F091BB00BF188E0020014800F07F
:104EF0008DBB00BF188E002038B50A4C0A4D641BCC
:104F0000A4100AD004F18043013B05EB8305013C6A
:104F100055F804399847002CF9D1BDE8384001F024
:104F2000CDBC00BFCC684000C86840002DE9F04708
:104F300082B080468946144600F054FB012836D0E2
:104F40004A4604F15C0301A9404601F057FA421CAD
:104F5000064625D0A8B39DF804E000250DF1040A0B
:104F600009E023685A1C226083F800E00135B5424D
:104F700027D215F80AE0A368013B002BA360F0DA02
:104F8000A769BB4271462246404602DBBEF10A0FCA
:104F9000E7D101F0DBF9431CE8D102B0BDE8F087AE
:104FA000A38943F04003A38102B0BDE8F08709F173
:104FB000FF33FE2BC4D85FFA89FE06468DF804E065
:104FC000CBE7484602B0BDE8F08700BF30B5536E6E
:104FD00013F0010FB2F90C30144683B005469AB2B3
:104FE00001D190051CD5900406D4626E43F40053A1
:104FF00042F40052A381626628462246FFF796FFDC
:10500000636EDA07054602D4A3899B0502D52846BC
:1050100003B030BDA06D00F0F9FA284603B030BDF2
:10502000A06D019100F0F0FAB4F90C3001999AB238
:10503000D9E700BFF8B5244F0C46064600F07EFFC6
:10504000BB685D68C4F57E610F3125F00305294416
:1050500021F47F6121F00F01A1F58054B4F5805F48
:1050600007DB0021304601F01BF9BB682B44984256
:1050700004D0304600F068FF0020F8BD61423046A1
:1050800001F00EF901300DD0104BBA6819682D1BD4
:1050900045F001053046091B5560196000F054FFCA
:1050A0000120F8BD0021304601F0FAF8BA68831AF1
:1050B0000F2BDEDD064C0549246843F00103001B7D
:1050C00053600860D5E700BFB0050020F48C0020D5
:1050D000B8090020002944D02DE9F0410D46804652
:1050E00000F02CFF55F8047C694927F00103A5F175
:1050F0000804E2188E685068B24220F003005ED0C7
:10510000FE0750600BD455F8087CE41B01F1080E33
:10511000A56875453B446DD0E768EF60BD60151824
:105120006D68ED073ED543F001026260E350B3F5D0
:10513000007F17D2DB08581C9A104D6851F8307068
:10514000A7600123934001EBC0022B43083AE260C1
:105150004B6041F83040FC604046BDE8F04100F053
:10516000F3BE70475A0A042A52D89A0902F1390745
:10517000FF0002F13805C819CA59083890424FD0CB
:10518000516821F003018B4232D292689042F7D1EC
:10519000C368A060E3609C60C4604046BDE8F04125
:1051A00000F0D2BE95683B4FBD42034440D0D0686A
:1051B000E86043F0010285606260E350B7E7FF07F3
:1051C000034407D455F8082CA41A1344A068E268D5
:1051D000C2609060304A126843F001009342606000
:1051E0008C60B9D32D4B40461968FFF723FFB3E716
:1051F0001046CDE711184968C90744D49168D268B0
:10520000CA60034443F0010091606060E350A3E78B
:10521000142A16D802F15C07FF0002F15B05AAE729
:10522000AA1001234D6893402B434B600346B0E71F
:1052300043F001024C610C61E560A5606260E350DF
:105240008AE7542A06D81A0B02F16F07FF0002F111
:105250006E0590E7B2F5AA7F06D8DA0B02F178075F
:10526000FF0002F1770586E740F25450824206D8EB
:105270009A0C02F17D07FF0002F17C057BE74FF4F9
:105280007E777E2577E743F001016160136063E775
:10529000B0050020B8050020BC090020248D0020A6
:1052A0009368002B73D02DE9F04F8B8983B00C46A7
:1052B00019070090164626D5226922B313F0020082
:1052C00035682CD04FF00009B04FC846B246B845FB
:1052D00043464A4628BF3B460098B8F1000F50D0DD
:1052E000E169666AB047002858DDDAF808301B1A11
:1052F0008144A8EB0008CAF80830002BE7D1002051
:1053000003B0BDE8F08F21460098FFF751FC00285C
:1053100040F03381A389356813F00200D2D113F035
:10532000010945D14F46019637B39A05D4F8088054
:1053300040F183804745C346C0F0AB8013F4906FC3
:1053400040F0AC802068BA465A46494600F092FDCB
:10535000A2682368A2EB08025B44A2602360019A62
:105360009368A3EB0A03D144A7EB0A079360002BD1
:10537000C5D0A389002FD8D1D5F800906F68083523
:10538000D2E7D5F80090D5F8048008359FE70020D3
:10539000704721460098FFF71FFD70B3B4F90C3039
:1053A00043F040034FF0FF30A38103B0BDE8F08F1E
:1053B000814633464E46A8469A464D464EB380B384
:1053C000206823696269B145CB4628BFB34698423D
:1053D0005F4604D9A36813449B4500F3A680934518
:1053E0004BDB1346676AE16900982A46B847071EF7
:1053F000D4DDB9EB0709CCD00120DAF80830DB1B8B
:105400003D44F61BCAF80830002B3FF478AF002E5D
:10541000D5D108F1080313E9600098460833002E3F
:10542000F9D032460A21284600F03AFC002800F064
:10543000A1800130A0EB0509C2E7206823699842EA
:1054400002D863699F425DD2B84528BFB84642463C
:10545000494600F00FFDA3682268A3EB080342440D
:10546000A36022600BB1C24679E721460098FFF79E
:10547000B3FC002892D1C24671E75A46294600F093
:10548000F9FCA2682368A2EB0B025B44A2602360D4
:10549000AFE72068B846BA46BB4655E76269206860
:1054A000216902EB4208A0EB010A08EBD8780AF167
:1054B00001004FEA680838444045424684BF8046B0
:1054C00042465B0544D51146009800F021F9834619
:1054D000002855D05246216900F032FCA38923F4FC
:1054E000906343F08003A3810BEB0A00A8EB0A034F
:1054F000C4F810B0C4F814802060A360B846BA465F
:10550000BB4621E76FF00041B94228BF39464A4601
:1055100091FBF3F10098666A03FB01F3E169B04780
:10552000B0F1000A3FF71BAF38E71A46294601934E
:1055300000F0A0FC2268019B00981A4422602146DA
:10554000FFF74AFC019B00287FF428AF1F4650E775
:10555000009800F0FFFC83460028C5D1009D21691A
:105560002846FFF7B7FDB4F90C300C2223F0800376
:105570002A6015E706F1010922E74FF0FF30BFE688
:10558000009A0C231360B4F90C3009E700FCFF7F8C
:105590002DE9F84310F538771FD0884606464FF0BE
:1055A00000097D68BC68013D11D4A389012B05F178
:1055B000FF3508D9B4F90E3001332146304602D008
:1055C000C04749EA00096B1C04F16804EDD13F684B
:1055D000002FE6D14846BDE8F883B9464846BDE805
:1055E000F88300BF044B054A1B685B6B002B08BFA8
:1055F000134693F82801704710000020440400204F
:10560000704700BF704700BF704700BF704700BFC2
:1056100070B50C46B1F90E10002990B015461E4623
:1056200014DB01AA01F00EF800280FDB029A02F445
:105630007042A2F50052B2FA82F252094FF480632E
:105640004FF4006032602B6010B070BDA28900235F
:1056500012F08000336004D0402218462A6010B057
:1056600070BD4FF480632B6010B070BD8A899207C3
:105670000B4606D501F1430201211A601A615961F6
:105680007047F0B583B001AB6A460C460646FFF79B
:10569000BFFF00990546304600F03AF8B4F90C30E7
:1056A000D8B1019A154F0099F76343F08003A381A5
:1056B0002060206161611AB92B43A38103B0F0BD62
:1056C0003046B4F90E1000F0D1FFA0B1A38923F049
:1056D000030343F001031BB2EEE79A05EED423F077
:1056E000030304F1430243F002030121A38122607A
:1056F00022616161E2E7B4F90C30DDE72D4E400034
:10570000024B0146186800F003B800BF10000020EB
:105710002DE9F04F01F10B06162E83B0054640F23D
:105720009E8036F0070600F1BD80B14200F2BA80DB
:1057300000F004FCB6F5FC7FC0F09382730A00F021
:10574000B880042B00F27981B30903F1390003F129
:10575000380EC300BF4F3B44A3F108015C68A1426F
:1057600006D10CE0002A80F2AA80E468A14206D0AB
:10577000636823F003039A1B0F2AF3DD70463C692C
:10578000DFF8E4E2744500F0AB81636823F00303C3
:105790009A1B0F2A00F39081002AC7F814E0C7F87B
:1057A00010E080F29D80B3F5007F80F06181DB081E
:1057B00003F1010C99107A6857F83C80C4F808800E
:1057C00001238B4007EBCC0113430839E1607B6078
:1057D00047F83C40C8F80C408210012494409C4299
:1057E00000F28B801C4206D120F0030064001C42B2
:1057F00000F10400FAD007EBC009CC468046DCF883
:105800000C309C4507D16DE1002A80F27B81DB687A
:105810009C4500F06781596821F003018A1B0F2A1B
:10582000F2DDD3F80CC0D3F8088000939C19284609
:1058300046F0010642F001055E60C8F80CC0CCF8E5
:1058400008807C613C61C4F80CE0C4F808E0656045
:105850005A5000F079FB009B03F108041EE0102968
:1058600020D800F06BFB102618230220794F3B4410
:10587000A3F108025C68944200F03D816368E1682E
:10588000A66823F00303234428465A68F16042F0D7
:1058900001028E605A6000F057FB0834204603B0C6
:1058A000BDE8F08F00240C2320462B6003B0BDE838
:1058B000F08F40204FF400734FF03F0E4AE723442F
:1058C000E1685A68A66842F00102F16028468E60DD
:1058D0005A6000F039FB0834204603B0BDE8F08F71
:1058E000234428465A6842F001025A6000F02CFB1B
:1058F0000834204603B0BDE8F08FBC68636823F02D
:105900000308B04504D3A8EB06030F2B00F38580F2
:10591000DFF85891504BD9F800201B68013233440E
:1059200004EB080A00F0558103F580530F3323F48C
:105930007F6B2BF00F0B5946284600F0B1FC411C41
:10594000024600F0FC80824500F2F780434B196864
:105950005944196000F04D81D9F8000001301BBF97
:10596000A2EB0A0A5144C9F80020196012F007019D
:1059700000F01581C1F10800C1F5805102440831E1
:1059800002EB0B09C9F30B09A1EB090949462846AB
:105990000193009200F084FC431C9DE80C0000F091
:1059A0004381801A484440F001001968BA604944B4
:1059B000BC425060196017D0B8F10F0F40F2FB8065
:1059C0006068A8F10C0222F0070204EB020E00F05E
:1059D00001004FF0050C10430F2A6060CEF804C0A0
:1059E000CEF808C000F217811D4BBC681A689142BE
:1059F00088BF19601B4B1A689142626888BF1960A2
:105A000022F003029642A2EB060301D80F2B04DC1E
:105A1000284600F099FA002440E7A21943F0010358
:105A200046F0010666602846BA60536000F08CFAC2
:105A30000834204603B0BDE8F08F142B71D9542BE5
:105A400000F2A380330B03F16F0003F16E0EC3006D
:105A500080E600BFB0050020248D0020F48C0020DB
:105A60001C8D0020208D0020B8050020B8090020E2
:105A70005A0A042A5BD9142A00F2AE8002F15C01B2
:105A8000C9005B3207EB010C7958ACF1080C8C456E
:105A900000F088804A6822F00302934273D289683A
:105AA0008C45F7D1DCF80C207B68E260C4F808C0B4
:105AB0009460CCF80C408FE6A11946F0010C42F03E
:105AC0000106C4F804C0284679613961C1F80CE0C8
:105AD000C1F808E04E60E25000F036FA0834DDE626
