S01E000042504D5F4469676974697A65725F416E616C797365722E737265637F
S2144000006000012001184000FD174000FD17400029
S214400010FD174000FD174000FD174000000000009F
S214400020000000000000000000000000FD17400037
S214400030FD17400000000000FD174000FD1740007F
S214400040FD174000FD174000FD174000FD1740001B
S214400050FD174000FD174000FD174000A10D400071
S214400060FD174000FD174000FD174000FD174000FB
S214400070FD174000FD174000951A4000FD17400050
S214400080FD174000FD174000FD174000FD174000DB
S214400090FD174000FD174000C11C4000FD17400002
S2144000A0FD174000FD174000FD174000FD174000BB
S2144000B0FD174000FD174000411440005514400015
S2144000C0FD174000A11B4000FD174000FD174000F3
S2144000D0FD174000FD174000FD174000FD1740008B
S2144000E0FD174000FD174000FD174000FD1740007B
S2144000F0FD174000FD17400010B5054C237833B976
S214400100044B13B10448AFF300800123237010BDA5
S2144001108408002000000000343D40000C4B43B1F2
S2144001200C480D4910B5AFF300800C48036823B95E
S21440013010BD0A48036833B97047094B002BF7D007
S214400140BDE810401847064B002BF5D0184700BFB7
S21440015000000000343D400088080020343D400048
S2144001600000000030B488421DD203460F4A126891
S21440017002EB40000024254630F8022B03FB0255D4
S214400180144401339AB29142F6D807EE905AB8EE2C
S214400190677A07EE904AF8EE677AC7EE276A16EE59
S2144001A0900A30BC704700242546EEE73400002015
S2144001B070B40E4681B1811E002318461C469DB27F
S2144001C031F8022FA24284BF2846144601339AB221
S2144001D09642F4D870BC70470846FBE7884212D275
S2144001E00A4B1A6802EB40030139091A013010FA2B
S2144001F081F102EB4101002033F8022B104480B21B
S2144002008B42F9D170470020704700BF3400002071
S2144002102DE9F0410546464B1C68464B1E88314644
S2144002202046DFF81C81C0470746314604EB4600AF
S214400230C047304480B2404B1A88404B23F8127077
S21440024002F1300123F81100394634F81730AB423A
S21440025057D3002301339BB29F425ED3A1EB030EDC
S21440026034F81EE0AE45F5D202F1100EFB1ADFF868
S214400270CCC02CF81E30F61B14D434F81730AB42E2
S21440028041D3002301339BB2B3420BDC03EB010E98
S21440029034F81EE0AE45F5D202F120011F44274E49
S2144002A026F81170014634F81030AB422DD30023A7
S2144002B001339BB2984233D3CE1A34F81660AE421E
S2144002C0F6D202F14006C31A1C4F27F81630C0F586
S2144002D002570E37002F1ADB34F81030AB4218D3D3
S2144002E0002301339BB2BB4215DC5E1834F816601F
S2144002F0AE42F6D250320344104921F81230BDE8DF
S214400300F0810023B0E70023C6E70023D9E7BDE825
S214400310F0810023EEE7BDE8F081F61BB1D5C1E7DA
S214400320C0F502570E37002FDADABDE8F08100BF7D
S21440033034000020080000204A0900208C090020D4
S214400340B1014000F0B41D4C24881D4D002645F8F0
S214400350246004F1100745F82760884214D2194DEE
S2144003602F6807EB40050139091A013010FA81F170
S21440037007EB4107124835F8026B50F82410314419
S21440038040F82410BD42F6D19A4215D20D490D6868
S21440039005EB4201013B9B1A013212FA83F305EB4F
S2144003A04305074A103431F8020B52F82430034410
S2144003B042F82430A942F6D1F0BC70474A090020E2
S2144003C0A4080020340000202DE9F04FBDF824504A
S2144003D0BDF82840404ED6F8008008EB450638F871
S2144003E015707F0885426CD9B246A9464FF0000C7E
S2144003F041F2883B3AF802E9AEEB070EBEF1000F39
S214400400B8BFCEF1000E1FFA8EFEDE459CBFCC462E
S214400410F34609F1FF391FFA89F94845EAD18D427A
S21440042052D24FF0000E41F2883936F8020BC01B0C
S2144004300028B8BF404280B248459CBFAE46814681
S2144004400135ADB2A942F0D124490888AEEB0C0E76
S214400450234921F810E008EB440E38F814506D0894
S214400460944234D9F4462746002641F288383CF870
S2144004700219491B0029B8BF494289B241459CBF71
S2144004803E468846013FBFB2BA42F0D19C4220D297
S214400490002741F288313EF8022B521B002AB8BF93
S2144004A0524292B28A429CBF274611460134A4B2B9
S2144004B0A342F0D11030BE1B094B23F81060BDE8B4
S2144004C0F08F4FF0000CAAE74FF0000EBCE7002676
S2144004D0DCE70027EEE700BF340000204A09002092
S2144004E04C0900202DE9F0412DED048B06460F46C1
S2144004F014461D46DFF87881C04709EE100A2946A3
S2144005002046C04708EE100A39463046DFF8648178
S214400510C04709EE900A29462046C04708EE900A92
S214400520BE4280F28C8033463A464A49086800EB21
S21440053046009FED496AF0EE465A30F8021B07EE39
S214400540101AB8EE477A07EE903AF8EEE77A77EE6A
S214400550C97A67EEA76A67EEA67A67EE877A75EE7F
S214400560A75A27EE267A36EE076A01339342E4D13D
S214400570F8EEE97A85EEA79A86EE277A67EE077A4E
S21440058067EE877A17EE900A344B9847344B984775
S214400590344B1B88344E06EB8306344B984707EEA5
S2144005A0100AC9EE077AC6ED007A23462946AC42C1
S2144005B04ADA284A126802EB44029FED276AF0EEB8
S2144005C0465A32F8020B07EE100AB8EE477A07EEA4
S2144005D0903AF8EEE77A77EEC87A67EEA76A67EE63
S2144005E0A67A67EE877A75EEA75A27EE267A36EE13
S2144005F0076A01338B42E4D1F8EEE88A85EEA88A92
S214400600C6EE287A27EEA77A67EE277A17EE900A84
S214400610124B9847124B9847124B1C8804F1100314
S214400620114C04EB8304114B984707EE100AC8EEB2
S214400630077AC4ED007ABDEC048BBDE8F0819FEDEF
S214400640066AF0EE465A93E79FED036AF0EE465A86
S214400650D2E700BF3400002000000000092540001B
S214400660092040004A0900206C0A0020612B400007
S21440067065014000DD0140002DE9F84F2DED028B6D
S21440068067480024674E684DA0F12003002233F8E7
S214400690021F0A448342FAD1326012092B681A5369
S2144006A0023420300C2CEFD1032600255F4C9FED02
S2144006B0608A5D4F0FF26019D9E9008919E05D4BF9
S2144006C0D3F800A0B2EE0E7AC7EE876A16EE900A0E
S2144006D0594B9847594B984742464B46DFF894B19A
S2144006E0D847574B9847CAF800000335EDB2033653
S2144006F0F6B284ED008A3B6803EB450E6801514B29
S214400700811E19441E30184431F8023FBEF80020BE
S2144007109B1A03FB03F307EE903AF8EEE77A94ED64
S214400720007A77EE877AC4ED007A8142ECD1002DCC
S214400730C5D0404BD3F800A0B2EE0E7AC7EE876A1B
S21440074016EE900A3C4B98473C4B984742464B46E1
S214400750DFF820B1D8473A4B9847CAF80400032E32
S214400760C3D93948021F3C30002352F8041F0B44BB
S2144007708242FAD1344800F14002803052F8041BDD
S2144007800B448242FAD1314A1360314A12685B09FF
S21440079013603048831E1E30002233F8021F0A447E
S2144007A08342FAD12C4B1B6812091A80294800F163
S2144007B020034030002233F8021B0A448342FAD119
S2144007C0264B1A60244B1B6812095A80244B002182
S2144007D0244C25489FED256ADFED256A03F140024B
S2144007E0DFED137AB3EC017A77EE877A9342F9D14C
S2144007F0C4ED007A67EE867A67EEA67AFDEEE77A73
S214400800036817EE905A5D50043113460829E5D127
S214400810BDEC028BBDE8F88F000000000088C340A6
S214400820AA09002030CF0020140000203CCF002032
S214400830000000001C000020092540000920400060
S214400840112B40008C090020A408002040CF002037
S2144008500C0000204C090020040000202CCF002073
S2144008606C0A002044CF0020180000200000803D85
S21440087000401C46B125400030B41E4B1B881E4A23
S21440088003F1200132F81150403332F81340A542AC
S21440089020D21A4B186800EB4503621E521B691C97
S2144008A011FA82F200EB4200002233F8021B0A449F
S2144008B08342FAD1641BB2FBF4F2114B1A60114B1F
S2144008C01B689A4208D89A420AD20F4A1388013BBC
S2144008D0138005E00022EDE70B4A138801331380AE
S2144008E0094B1B88094A06215166C3F30B03D3669E
S2144008F030BC70474A0900208C0900203400002094
S214400900A0080020100000200000002000000B403F
S214400910F0B4204B1A88204902F1100331F8133006
S21440092002F1200031F81010994213D91B4F1C4E8B
S214400930184D194C396831F813203068121A21F8CE
S214400940132001339BB22A8802F1200134F811109B
S2144009509942EFD81049403231F812300D4A128889
S214400960503231F812209A4212D90C4F0C4E0D4696
S214400970084C396831F813203068121A21F81320D1
S21440098001339BB22288503235F812209A42F0D872
S214400990F0BC70474A0900208C0900203400002033
S2144009A0A0080020F0B4204B1A88204902F110031A
S2144009B031F8133002F1200031F81010994213D963
S2144009C01B4F1C4E184D194C396831F813003268CD
S2144009D0024421F8132001339BB22A8802F12001F9
S2144009E034F811109942EFD81049403231F812309D
S2144009F00D4A1288503231F812209A4212D90C4FC2
S214400A000C4E0D46084C396831F8130032680244E3
S214400A1021F8132001339BB22288503235F8122039
S214400A209A42F0D8F0BC70474A0900208C09002052
S214400A3034000020A0080020F0B583B03B4B1B7963
S214400A40FF2B66D0394C6078394B1B88C01A00F5AE
S214400A50006080B2374B98472379FF2B5CD0364EE8
S214400A603388364C03F1500503F1400203F1200170
S214400A7003F1100034F8153034F8122034F8111011
S214400A8034F810002E4DA847358805F1500334F849
S214400A90133005F1400234F8122005F1200134F8F5
S214400AA0111005F1100034F8100005F1300734F845
S214400AB01770019734F815500095224DA847338893
S214400AC003F1500503F1400203F1200103F1100049
S214400AD034F8153034F8122034F8111034F8100079
S214400AE0194CA047114B1B79FF2B18D0174A0623E9
S214400AF053664FF40063D3660D4A13800E4B1B8833
S214400B0001339BB20F2B0DD900220B4B1A8003B03A
S214400B10F0BD0F4B984795E70E4B98479FE70E4B17
S214400B209847EBE7044A1380F1E700BF2000002017
S214400B3000000020110240004A0900208C090020D5
S214400B4045034000C9034000E504400000000B4058
S214400B507908400011094000A50940000B4619B12C
S214400B60096881605B68C3601AB113688361536823
S214400B70C36170470B4619B1096801605B68436002
S214400B801AB11368036153684361704721F0FE0150
S214400B90C905C90D01627047014B0360704700BF2D
S214400BA0050000A5F0B583B005460C46002301932A
S214400BB0184B98420AD0184B98420FD0174B984281
S214400BC014D0174B9D421BD003B0F0BD1F46154EA8
S214400BD021463846B0470028FAD1F2E71E46114D66
S214400BE021463046A8470028FAD1EDE71E460E4D6E
S214400BF001A93046A8470028FAD1019B2370E3E7B5
S214400C001E46094D01A93046A8470028FAD1019B47
S214400C102370D9E700060E400006064000000A4052
S214400C2000400A40A3174000E517400070B50C4648
S214400C30184B98420AD0184B984210D0174B9842FF
S214400C4016D0174B98421CD0002070BD1E46154D3E
S214400C5021463046A8470028FAD1012070BD1E46DE
S214400C60104D21463046A8470028FAD1012070BDD5
S214400C701E460D4D21463046A8470028FAD1012091
S214400C8070BD1E46084D21463046A8470028FAD17A
S214400C90012070BD00060E400006064000000A40D7
S214400CA000400A4093174000D117400030B585B049
S214400CB00720124DA847124C124B1C60124A134B89
S214400CC01A60134A134B1A60134B01934FF4E133E7
S214400CD002934FF4006303930720A84701A92046D8
S214400CE00E4B98470E4D2B68002198680D4CA04738
S214400CF02B6800215868A04705B030BD4D1640000F
S214400D0000060E407CCF00202D0C400078CF0020FF
S214400D10A50B400074CF002000D8B80553174000FC
S214400D2040000020F92C400008B50222064907483A
S214400D30074B984700220749074B1868074B9847C8
S214400D400022074BDA7008BD2600002000060E4041
S214400D50290F400058CF002060CF00205D0B400098
S214400D602000002010B5084B9847084B26221A70E2
S214400D7000245C7022460649064B1868064B984786
S214400D80064B9C7010BD00BF790640002409002029
S214400D9048CF002060CF00205D0B400020000020A0
S214400DA010B51448144B984710F4805F00D110BD1E
S214400DB000221249124B1868124B9847124B1B7868
S214400DC0FF2BF4D1104B59789878104B58548B1E03
S214400DD0DBB2012BEBD90E4B05221A7000225A705B
S214400DE0FF249C70D97018710A49054B18680A4B45
S214400DF09847DCE700060E408F17400050CF002093
S214400E0060CF0020750B4000EC0A00202000002038
S214400E1034CF002064CF00205D0B400070B5184BE7
S214400E209847184D2846184B9847184E3060184C2F
S214400E30184B236003236360174B184A1A60262218
S214400E405A60174B174A12681A6044F21C125A60CE
S214400E50154B164A1A6005225A6040F20111144B8F
S214400E609847002221463068124B98474FF48051ED
S214400E702846114B98478022104B1A6070BD00BF21
S214400E80AD0C400000060E40B517400060CF002075
S214400E9050CF0020EC0A002048CF00202409002034
S214400EA058CF00203800002064CF002034CF0020E8
S214400EB08D0B4000750B40008B17400000E100E0B2
S214400EC010B50E480E4B98473E2100200D4B9847D4
S214400ED00D4CA0470028FCD00C4B98470C4A0D4BB5
S214400EE09A620D4CA0470028FCD010200B4B984728
S214400EF00B4B98470B48024B984710BD000E2707F0
S214400F00D5194000C91540001D1640002D1640005A
S214400F10013F0F2000040E403D164000651540007E
S214400F20C918400000D8B805002A37D02DE9F84F38
S214400F30934605460F468B44DFF87080184EDFF820
S214400F40709006E021464046B0470028FAD1BB459F
S214400F5021D017F8014B4545F4D04D450DD0114BE7
S214400F609D4210D0104B9D42F1D1DFF848A021465B
S214400F700D48D0470028FAD1E9E721464846B04711
S214400F800028FAD1E3E7DFF82CA021460548D047F1
S214400F900028FAD1DBE70020BDE8F88F0020704734
S214400FA09317400000000A4000400A4000060E40EA
S214400FB000060640D1174000002A3FD02DE9F04FEA
S214400FC083B006460C4693468B441D4F1D4DDFF8B6
S214400FD080A00DE021463846A8470028FAD110E008
S214400FE021465046A8470028FAD101345C4521D016
S214400FF000230193BE42EDD05645F1D0124B9E429F
S2144010000DD0124B9E42F0D19946DFF8488001A998
S2144010104846C0470028FAD1019B2370E5E7994629
S214401020DFF8308001A94846C0470028FAD1019B26
S2144010302370DAE7002003B0BDE8F08F0020704749
S21440104000060E40A317400000000A4000400A4039
S21440105000060640E51740002DE9F04180B90C46F1
S2144010609046002A0FDD8F18084E094D30682146FD
S2144010702B6898470134BC42F8D14046BDE8F08121
S2144010804FF0FF38F9E78046F7E700BF7CCF0020F7
S21440109074CF00200138022815D82DE9F0410E46BD
S2144010A014469AB10D46DFF838800C4FD8F8000049
S2144010B015F8011B3B68984700280ADBA81B013C33
S2144010C0F4D1BDE8F0814FF0FF3070471046BDE8E0
S2144010D0F0814FF0FF30BDE8F08100BF78CF0020B0
S2144010E07CCF002010B54FF40042214B5A600920B7
S2144010F0204CA0470A20A0470B20A0470C20A04722
S2144011000D20A0471C4B4FF480021A61C3F8A02064
S2144011101A63A3F5C06304225A61C3F8A0205A6636
S214401120C3F890205A651A62C3F88420196F21F0DC
S21440113004011967596F21F004015967C3F8C020AC
S214401140C3F8D420C3F8B0204FF4C0621A66C3F880
S21440115090205A655A62C3F88020196F21F4C06106
S2144011601967596F21F4C06159675A6010BD00BFB6
S21440117050180E404D16400000140E4010B404683F
S21440118044F001040460019C04F4805444F48074E8
S21440119003F4C0631C4302F00702144301F07001DD
S2144011A00C4344600323C0F89430036B002BFCDBF5
S2144011B05DF8044B70474368006B13F4805F18BFBC
S2144011C080F00200C0F3400070470123436270473E
S2144011D0006B704770B582B0026BC36A13400193D0
S2144011E00024214DA84214BF002501256E002E4440
S2144011F00BE0142C24D8019A04F1080101238B40FB
S214401200134213D10134172C2BD00F2CF1D8019A4E
S2144012100123A3401342F5D0C5EBC6032344134A2B
S21440122052F82330002BEDD09847EBE7C5EBC603CA
S21440123023440E4A52F82330002BE3D09847E1E788
S214401240019A04F1090101238B401342DAD0C5EB21
S214401250C6032344054A52F82330002BD2D0984781
S214401260D0E702B070BD00BF00400B4080CF0020EA
S21440127030B4046E01238B4024EA03041578002D15
S21440128008BF002323430366446D4B000321994067
S21440129024EA0104517899402143416530BC7047A7
S2144012A000220260084B4360084B83604FF4802363
S2144012B0C360026102230375012343758375C275BB
S2144012C0037643768376704700D8B805808D5B00FA
S2144012D0002303700123437070470000036B13F034
S2144012E0807F01D01920704770B401230360CB7D06
S2144012F0002B14BF4FF0004500258B7D002B14BFFC
S2144013004FF4000400240B7D1B0603F070630A694B
S214401310CE68324313434A7D120702F040521343CD
S2144013208A6856004A68B2FBF6F2013A120292B256
S21440133013432B43234343600B7E002B14BF4FF0D5
S214401340807300230A6813434A7E002A14BF4FF076
S21440135000720022134383608B7E1B0203F44073AB
S214401360C0F894300E4B984205D00E4B98420CD0A5
S214401370002070BC70470C4B03F15C01002243F820
S214401380042F8B42FBD10020F3E7084B03F15C01AE
S214401390002243F8042F8B42FBD10020E9E700BF30
S2144013A000000B4000400B407CCF0020D8CF0020F0
S2144013B00C4B994207D00F290BD806D0012303FACD
S2144013C001F141627047436270474FF40043436205
S2144013D07047142994BF08310931012303FA01F1FB
S2144013E041627047FFFF00DF38B5114CA0420CBF8A
S2144013F0172400240C440F4D45F824200AD10E4AE9
S2144014004FF00044C2F880411B01DBB282F81F3324
S214401410146009E0084A4FF08044C2F880411B013E
S214401420DBB282F81E331460044B984738BD00BFC9
S21440143000400B4080CF002000E100E0B1134000A8
S21440144008B50248024B984708BD00BF00000B4055
S214401450D511400008B50248024B984708BD00BF6A
S21440146000400B40D511400000B583B0134B984266
S2144014700CBF1F201E20124B9847124B9B78FF2B09
S2144014801AD0EFF31083B3FA83F35B09019372B675
S214401490BFF35F8F00220C4B1A700199094A93786C
S2144014A00133937029B10122074B1A70BFF35F8F47
S2144014B062B603B05DF804FBFEE700BF00400B4099
S2144014C04D1640006CCF002028000020012303600A
S2144014D07047436823F001034360704749B9436847
S2144014E043F480734360436823F010034360002056
S2144014F07047436843F480734360436843F0100387
S2144015004360F4E7016270474368012901D901202E
S214401510704723F4981343EA014141600020704726
S214401520436841B907491940120602F07C520A4303
S21440153042600020704723F07C5323F47F4343F4FB
S2144015400011F1E7FF00DFC0012901D901207047F3
S214401550012303FA01F1016100207047C0F894109E
S21440156000207047174A136B23F07003184310632C
S214401570936E13F0080F0AD14FF4006311498A6E38
S21440158012F0080F03D1013BF9D1012070470D4AF4
S214401590136B23F0030343F002031363936E13F0BD
S2144015A0080F0AD14FF4006306498A6E12F0080FFE
S2144015B005D1013BF9D1012070470020704700203B
S2144015C0704700BF00040E40C8B9114A136A0902AA
S2144015D089B223F45C1323F0030343F45C1343F013
S2144015E001030B431362936E13F0010FFBD0084ABE
S2144015F0136A43F09B7343F4803313627047044985
S2144016000B6A044A1A40044B13430B62704700BFF0
S21440161000040E40FCFFC8FE02003701024B986EE5
S21440162000F48030704700BF00040E404FF0005278
S214401630014B9A62704700BF00040E40024B986E02
S21440164000F00200704700BF00040E402F281ED84E
S2144016501F280CD8114B9A6901238340934318D016
S214401660012303FA00F00D4B186100207047203824
S2144016700A4BD3F808210123834093430BD0012320
S21440168003FA00F0054BC3F8000100207047012024
S2144016907047002070470020704700BF00040E408F
S2144016A010B489014318022444504FF0FF31996228
S2144016B0196A5A605DF8044B704789010523435008
S2144016C07047890102234350704700EB8111CA617D
S2144016D0704700EB81114A62704700EB81118A62C5
S2144016E07047F0B486B00224019408240294202463
S2144016F00394802404940A9CE40B0594B0EB510FA9
S21440170014D84C0CA04217D2012501AF57F82540FB
S214401710B1FBF4F4260C84420AD386420DD9013537
S214401720052DF3D1002006B0F0BC70470020FAE744
S2144017300020F8E70120F6E700252AB106A901EBCC
S214401740850151F8141C1160002BF3D01D60012058
S214401750E9E710B4AC2303600B684A68B3FBF2F3C6
S2144017601B095C1E4FF6FE7294420CD803628B68CF
S214401770436040F20223C0F820315023036000202B
S2144017805DF8044B70470120FAE781607047406976
S2144017907047436913F0020F1ABFC1610020012051
S2144017A07047436913F0010F1DBF83690B7000201B
S2144017B001207047034B044A0449884214BF104630
S2144017C0184670470007064000070E4000060640D1
S2144017D0436913F0020F1DBFC1F30801C161002029
S2144017E001207047436913F0010F05D08369C3F3A6
S2144017F008030B600020704701207047FEE700009A
S21440180000B583B0254B264A9A4210D0254B234A32
S2144018109A420CD2013B9B1A23F003030433134431
S2144018201F4951F8040B42F8040B9A42F9D11E4B5B
S2144018301E4A9A420AD2013B9B1A23F00303043302
S2144018401344002142F8041B9342FBD1184A194B1B
S21440185023F07F039360EFF31083B3FA83F35B09BF
S214401860019372B6BFF35F8F0022134B1A70019933
S214401870124A136843F470031360BFF34F8FBFF3ED
S2144018806F8F29B101220C4B1A70BFF35F8F62B67F
S2144018900B4B98470B4B9847FEE700BF00000020D5
S2144018A0343D40008408002060D00020840800209A
S2144018B000ED00E0000040002800002088ED00E039
S2144018C00D2C4000951D40003B4B1B6B03F0030363
S2144018D0012B1DD083B1022B36D0374B1B6B03F048
S2144018E07003702B5FD0344B1A6B3449C2F302122C
S2144018F00B68D3400B607047314B5B6913F0800F29
S21440190014BF4FF400424FF4FA422C4B1A60E4E7FF
S214401910294B1B6A13F0807F03D02A4A274B1A6054
S214401920DBE7294A254B1A60234B1B6A03F07003FA
S214401930102B05D0202BD0D1224A204B1A60CCE762
S214401940224A1E4B1A60C8E71B4B1B6A13F0807F67
S21440195016D01C4A194B1A60174B1B6B03F0030337
S214401960022BBAD1144A916A926A1448C1F30A41CA
S214401970036801FB0333D2B2B3FBF2F30360ACE778
S214401980114A0E4B1A600C4B1B6A03F07003102B67
S21440199005D0202BE0D10B4A084B1A60DCE70B4AF7
S2144019A0064B1A60D8E7054A13680949A1FB03139A
S2144019B05B081360704700BF00040E402C000020F8
S2144019C010180E40001BB70000093D0000127A00B8
S2144019D0ABAAAAAA124B984211D9124B984213D9D5
S2144019E0114B984214D9114B984215D9104B984236
S2144019F094BF4FF004220F4A0F4B1A6070474FF0C7
S214401A0080620D4B1A6070470C4A0B4B1A60704749
S214401A100B4A094B1A6070470A4A074B1A607047D0
S214401A20FF2C3101FF596202FF869303FFB3C404C3
S214401A30FFE0F50500050004000A0E400001000422
S214401A4000020004000300040A4B1B6853B1094B14
S214401A501B681A180849914208DB1046054A106070
S214401A6018467047054A034B1A60F0E74FF0FF30C0
S214401A70704700BFF00A0020FCFF012060000120F4
S214401A804FF0FF3070474FF400534B6000207047D4
S214401A900020704700B583B001220DF107011048C1
S214401AA0104B984772B6BFF35F8F00220E4B1A70EA
S214401AB00E4B1B789DF807100D4AD1549B2B0BD02C
S214401AC001330A4A13700122074B1A70BFF35F8F27
S214401AD062B603B05DF804FB0022044B1A70F2E7CE
S214401AE000000A40B90F400028000020900B00205C
S214401AF0F40A0020074B1B8842F28D02934207D817
S214401B00054A126822F81300024A138801331380EC
S214401B10704700BFE8CE0020300000200D4B1B88E9
S214401B2001339BB2102B0BD80A4A13800A4A11681D
S214401B300A4B1868106019600022094B1A807047DB
S214401B400022044B1A80054A1168064B186810603C
S214401B501960EBE7EACE0020300000203400002079
S214401B60E8CE002038000020F8B50A4B1B8842F229
S214401B708D0293420AD81C4608DC0027064E42F2E5
S214401B808E053846B0470134AC42FAD1034B9847ED
S214401B90F8BD00BFE8CE0020F51A40001D1B4000EF
S214401BA070B584B0354B1B783C2B09D8344A13703B
S214401BB03448354B984710F0010F05D104B070BD3E
S214401BC03C222F4B1A70F3E72E48304B984700289C
S214401BD04CD02F4B1B78002BF0D101222C4B1A7087
S214401BE0274B1A784AB901222A4B1A7000212A48F4
S214401BF02A4B98472A4B9847E0E70021029104ABCE
S214401C0043F8041D4FF47A7696FBF2F6254C009482
S214401C1002AA21463046244DA8471F4D039A42F457
S214401C20804201212846214B9847029AB4FBF2F2A3
S214401C30B2FBF6F2012128461D4B98471D4B4FF448
S214401C408004C3F88040BFF34F8FBFF36F8FC3F855
S214401C5080411C60102201212846174B98470121DD
S214401C6028460E4B9847154B5C63A7E7084B1B78F6
S214401C70002BA3D00022064B1A709FE720000020BE
S214401C80F5CE002000C00B40D1114000B7114000F7
S214401C90F6CE0020F4CE002000000940BB164000DF
S214401CA0691B400000D8B805E3164000A116400066
S214401CB0CB16400000E100E0D316400000140E4072
S214401CC010B54FF48003124A13634FF08071A2F5AB
S214401CD0C06211630F4AC2F88030BFF34F8FBFF324
S214401CE06F8FC2F880310C4C1022012120460B4BDE
S214401CF09847012120460A4B98470122094B1A7003
S214401D00094B984700212046084B984710BD00BF16
S214401D1000140E4000E100E000000940DB164000E1
S214401D20C3164000F4CE0020691B4000BB1640009E
S214401D300C4BDB6B13F0807F0FD00B4B1B68632B79
S214401D4007DD0022084B1A604FF08072054B5A633D
S214401D5070470133044A136070470022024B1A60F2
S214401D60704700BF000E0E40F0CE002008B5054B71
S214401D70186A80B2044B1880044B9847044B984727
S214401D8008BD00BF00000B40ECCE0020F51A400016
S214401D90311D400080B58CB0724B9847724B9847C7
S214401DA0724B9847724C2046724B984705A8724B28
S214401DB0984702A8714B984705A92046704B98470C
S214401DC002AA062120466F4B98476F4B1B88062277
S214401DD06266C3F30B03E366002703970CAE46F830
S214401DE0207D1520694DA8471620A847684D0095C8
S214401DF0334603AA29466748674EB047674E049A5B
S214401E0042F4D82239463046654B9847039BB5FB8B
S214401E10F3F3644AA2FB03231A0C7261DB0BF361F3
S214401E20636823F08F0343F00303636040236361DA
S214401E3001235D4A102120465C4DA847E369E365CF
S214401E40636813F0800F01D108222260484B1A6B5A
S214401E50002AFCDA20204D4DA847554C2046554BCD
S214401E6098472046544B984700212046534B984766
S214401E700F2200212046524B984700212046514BC6
S214401E80984700212046504B98474FF4857120468E
S214401E904E4B984740F61C4120464D4B98474D497F
S214401EA04FF480000861C1F8A0004B4B4FF080749F
S214401EB01C61C3F8A0404FF000725A61C3F8A020DE
S214401EC05C635A66C3F890205A651A62C3F8842049
S214401ED01C6F24F000741C675C6F24F000745C6711
S214401EE0C3F8C020C3F8D420C3F8B0200861C1F8B6
S214401EF0A0002120A847394C002300934FF480636C
S214401F00022270212046364DA8470222354B5A60A1
S214401F102046354B9847354D354E04F5133404F579
S214401F200074344F05E0344B9847E36B13F0007F62
S214401F3013D02B78002BF8D000232B70B0474FF0EF
S214401F40807323632D4B9B78002BECD12B4BDB7897
S214401F50002BEAD02A4B9847E7E73846294B984764
S214401F60E7E700BFC10E4000E51040001D0E4000F0
S214401F7000000B4069144000A1124000D1124000FE
S214401F80DD12400071124000000000204D16400057
S214401F9000D8B80548E80100E316400000000940B4
S214401FA0A116400083DE1B436D1D4000E913400030
S214401FB000800B40CD144000D3144000DD14400098
S214401FC02115400009154000491540005D154000A8
S214401FD00515400000140E40000E0E4000C00B4099
S214401FE07D11400000E100E0CB114000F4CE00201F
S214401FF0390A400000180E40650D400020000020C1
S214402000290D4000990B40002DE9F04F8BB0044657
S2144020100D4600F057F8294B93F900A0BAF1FF3F60
S21440202006460F4612D022462B462046294600F04A
S21440203059FD834650B94FF000084FF0000942461C
S2144020404B462046294600F025FD20B93046394605
S2144020500BB0BDE8F08F1A4BCDF820B00122CDE989
S2144020600445CDE902458DE80C00BAF1000F17D0C3
S21440207042464B464046494600F0C4FBBAF1020F82
S214402080CDE906010ED100F0BBFD21230360089B7D
S21440209073B9DDE90667304639460BB0BDE8F08FC8
S2144020A0CDE90689684600F0C9F80028EFD1EAE78E
S2144020B000F0A6FD089B0360EBE700BF3C00002055
S2144020C0043D40002DE9F8435B4F8F4305460C46E0
S2144020D000F0928000290B4602466FDD0F157BD03C
S2144020E0A7F2FF37C3F31303F80743F480135CD417
S2144020F003EBD27100260B447F105200B6461620E2
S2144021004FF400110EEB01049C424FEAD2754FEAA1
S214402110420203DC1B1B04EB010E0E44013805EBA8
S21440212043034FEA5101EDD1844620244FF000414D
S21440213009E020D003EBD275013C4FEA51012B4415
S2144021404FEA420220D0734501EB0C05F1DD002D2D
S21440215005EB010C09DBF0469542A3EB0E0300D9D4
S214402160013B521B0844C646E4E7BCF1000FF2DBD5
S2144021700EF10108F0E79542DCD8002D05EB010C86
S21440218044DB98460023ECE7134313D14008731012
S21440219003F17F5303F50013F20703EB075948BFDB
S2144021A040F000404946BDE8F8835B0003EBD2733D
S2144021B052009DE7411C2DD00130E7E7064621F04E
S2144021C000473E43EFD069BB0F46D30A153F520542
S2144021D0002BFAD0DE0220D4002400E004465B0048
S2144021E0DD0204F10100F9D5C0F1200122FA01F127
S2144021F00B433F1B824073E702460B4600F0D8F97C
S2144022002A46234600F022F8BDE8F883BCF1000FCA
S214402210AEDAB6E701362046B9E7002020214FF077
S214402220FF34E3E702460B4600F00EF802460B4644
S21440223000F0E8FAB7E700BF0000F07F00207047E4
S21440224081F0004102E000BF83F0004330B54FEA22
S21440225041044FEA430594EA050F08BF90EA020F8F
S2144022601FBF54EA000C55EA020C7FEA645C7FEA22
S214402270655C00F0E2804FEA5454D4EB5555B8BF45
S2144022806D420CDD2C4480EA020281EA030382EAB6
S214402290000083EA010180EA020281EA0303362D48
S2144022A088BF30BD11F0004F4FEA01314FF4801C1B
S2144022B04CEA113102D0404261EB410113F0004F2D
S2144022C04FEA03334CEA133302D0524263EB4303E4
S2144022D094EA050F00F0A780A4F10104D5F1200E82
S2144022E00DDB02FA0EFC22FA05F2801841F10001DD
S2144022F003FA0EF2801843FA05F359410EE0A5F1B1
S21440230020050EF1200E012A03FA0EFC28BF4CF0E1
S214402310020C43FA05F3C01851EBE37101F0004597
S21440232007D54FF0000EDCF1000C7EEB00006EEBA4
S2144023300101B1F5801F1BD3B1F5001F0CD349082E
S2144023405FEA30004FEA3C0C04F101044FEA445285
S21440235012F5800F80F09A80BCF1004F08BF5FEA0C
S214402360500C50F1000041EB045141EA050130BDEC
S2144023705FEA4C0C404141EB010111F4801FA4F18F
S2144023800104E9D191F0000F04BF01460020B1FAE4
S21440239081F308BF2033A3F10B03B3F120020CDA1C
S2144023A00C3208DD02F1140CC2F10C0201FA0CF0FA
S2144023B021FA02F10CE002F11402D8BFC2F1200C5F
S2144023C001FA02F120FA0CFCDCBF41EA0C01904015
S2144023D0E41AA2BF01EB0451294330BD6FEA04045E
S2144023E01F3C1CDA0C340EDC04F11404C4F1200249
S2144023F020FA04F001FA02F340EA030021FA04F35B
S21440240045EA030130BDC4F10C04C4F1200220FAB1
S21440241002F001FA04F340EA0300294630BD21FAEF
S21440242004F0294630BD94F0000F83F4801306BFB5
S21440243081F480110134013D4EE77FEA645C18BFA9
S2144024407FEA655C29D094EA050F08BF90EA020F40
S21440245005D054EA000C04BF1946104630BD91EA38
S214402460030F1EBF0021002030BD5FEA545C05D13B
S2144024704000494128BF41F0004130BD14F580047A
S2144024803CBF01F5801130BD01F0004545F0FE41EE
S21440249041F470014FF0000030BD7FEA645C1ABF23
S2144024A0194610467FEA655C1CBF0B46024650EA5A
S2144024B0013406BF52EA033591EA030F41F4002186
S2144024C030BD00BF90F0000F04BF0021704730B50C
S2144024D04FF4806404F132044FF000054FF00001E1
S2144024E050E700BF90F0000F04BF0021704730B5A2
S2144024F04FF4806404F1320410F0004548BF404277
S2144025004FF000013EE700BF42004FEAE2014FEACB
S21440251031014FEA02701FBF12F07F4393F07F4FA6
S21440252081F06051704792F0000F14BF93F07F4FD8
S214402530704730B54FF4607401F0004521F000411B
S21440254020E700BF50EA010208BF704730B54FF0A1
S21440255000050AE050EA010208BF704730B511F0A6
S214402560004502D5404261EB41014FF4806404F1DE
S21440257032045FEA915C3FF4DCAE4FF003025FEA60
S214402580DC0C18BF03325FEADC0C18BF033202EBE8
S214402590DC02C2F1200300FA03FC20FA02F001FA42
S2144025A003FE40EA0E0021FA02F11444C1E600BFE1
S2144025B070B54FF0FF0C4CF4E06C1CEA11541DBF94
S2144025C01CEA135594EA0C0F95EA0C0F00F0DEF85F
S2144025D02C4481EA030621EA4C5123EA4C5350EA44
S2144025E0013518BF52EA033541F4801143F4801395
S2144025F038D0A0FB02CE4FF00005E1FB02E506F026
S2144026000042E0FB03E54FF00006E1FB03569CF07A
S214402610000F18BF4EF0010EA4F1FF04B6F5007F80
S21440262064F5407404D25FEA4E0E6D4146EB0606F2
S21440263042EAC62141EA55514FEAC52040EA5E507B
S2144026404FEACE2EB4F1FD0C88BFBCF5E06F1ED825
S214402650BEF1004F08BF5FEA500E50F1000041EB5C
S214402660045170BD06F0004646EA010140EA020009
S21440267081EA0301B4EB5C04C2BFD4EB0C0541EA2B
S214402680045170BD41F480114FF0000E013C00F340
S214402690AB8014F1360FDEBF002001F0004170BD64
S2144026A0C4F10004203C35DA0C341BDC04F114047D
S2144026B0C4F1200500FA05F320FA04F001FA05F209
S2144026C040EA020001F0004221F0004110EBD370D6
S2144026D021FA04F642EB06015EEA430E08BF20EA02
S2144026E0D37070BDC4F10C04C4F1200500FA04F3A5
S2144026F020FA05F001FA04F240EA020001F0004137
S21440270010EBD37041F100015EEA430E08BF20EAA9
S214402710D37070BDC4F1200500FA05F24EEA020EF1
S21440272020FA04F301FA05F243EA020321FA04F020
S21440273001F0004121FA04F220EA020000EBD370D7
S2144027405EEA430E08BF20EAD37070BD94F0000FD7
S2144027500FD101F00046400041EB010111F4801F0B
S21440276008BF013CF7D041EA060195F0000F18BFBC
S214402770704703F00046520043EB030313F4801FF8
S21440278008BF013DF7D043EA0603704794EA0C0FB2
S2144027900CEA135518BF95EA0C0F0CD050EA4106C8
S2144027A018BF52EA4306D1D181EA030101F0004145
S2144027B04FF0000070BD50EA410606BF104619466D
S2144027C052EA430619D094EA0C0F02D150EA013679
S2144027D013D195EA0C0F05D152EA03361CBF1046BA
S2144027E019460AD181EA030101F0004141F0FE4159
S2144027F041F470014FF0000070BD41F0FE4141F4DD
S214402800780170BD70B54FF0FF0C4CF4E06C1CEADC
S21440281011541DBF1CEA135594EA0C0F95EA0C0F91
S21440282000F0A7F8A4EB050481EA030E52EA03354C
S2144028304FEA013100F088804FEA03334FF080556D
S21440284045EA131343EA12634FEA022245EA11159A
S21440285045EA10654FEA00260EF000419D4208BF4B
S214402860964244F1FD0404F5407402D25B084FEAF8
S2144028703202B61A65EB03055B084FEA32024FF4A4
S21440288080104FF4002CB6EB020E75EB030E22BF01
S214402890B61A754640EA0C005B084FEA3202B6EBC1
S2144028A0020E75EB030E22BFB61A754640EA5C0070
S2144028B05B084FEA3202B6EB020E75EB030E22BF00
S2144028C0B61A754640EA9C005B084FEA3202B6EB01
S2144028D0020E75EB030E22BFB61A754640EADC00C0
S2144028E055EA060E18D04FEA051545EA16754FEA22
S2144028F006164FEAC30343EA52734FEAC2025FEA40
S2144029001C1CC0D111F4801F0BD141EA00014FF0CE
S21440291000004FF0004CB6E711F4801F04BF01439F
S2144029200020B4F1FD0C88BFBCF5E06F3FF6AFAEBB
S214402930B5EB030C04BFB6EB020C5FEA500C50F14B
S214402940000041EB045170BD0EF0004E4EEA1131CE
S21440295014EB5C04C2BFD4EB0C0541EA045170BDD5
S21440296041F480114FF0000E013C90E645EA060E19
S2144029708DE60CEA135594EA0C0F08BF95EA0C0F47
S2144029803FF43BAF94EA0C0F0AD150EA01347FF48F
S21440299034AF95EA0C0F7FF425AF104619462CE766
S2144029A095EA0C0F06D152EA03353FF4FDAE1046C9
S2144029B0194622E750EA410618BF52EA43067FF41A
S2144029C0C5AE50EA41047FF40DAF52EA43057FF4AA
S2144029D0EBAE12E74FF0FF3C06E000BF4FF0010CB5
S2144029E002E000BF4FF0010C4DF804CD4FEA410C19
S2144029F07FEA6C5C4FEA430C18BF7FEA6C5C1BD0E6
S214402A0001B050EA410C0CBF52EA430C91EA030F66
S214402A1002BF90EA020F0020704710F1000F91EAC3
S214402A20030F58BF994208BF90422CBFD8176FEA91
S214402A30E37040F0010070474FEA410C7FEA6C5C5F
S214402A4002D150EA013C07D14FEA430C7FEA6C5C66
S214402A50D6D152EA033CD3D05DF8040B704700BF92
S214402A608446104662468C461946634600E000BFE0
S214402A7001B5FFF7B7FF002848BF10F1000F01BDB2
S214402A804DF808EDFFF7F4FF0CBF012000205DF87D
S214402A9008FB00BF4DF808EDFFF7EAFF34BF012002
S214402AA000205DF808FB00BF4DF808EDFFF7E0FF9B
S214402AB094BF012000205DF808FB00BF4DF808EDEC
S214402AC0FFF7CEFF94BF012000205DF808FB00BF53
S214402AD04DF808EDFFF7C4FF34BF012000205DF835
S214402AE008FB00BF4FEA410C7FEA6C5C02D150EA1B
S214402AF0013C0AD14FEA430C7FEA6C5C02D152EAB1
S214402B00033C02D14FF0000070474FF00100704781
S214402B104FEA410212F5001215D211D56FF47873C0
S214402B20B3EB625212D94FEAC12343F0004343EA63
S214402B30505311F0004F23FA02F018BF404270473E
S214402B404FF00000704750EA013005D111F00040C8
S214402B5008BF6FF0004070474FF00000704700BF5E
S214402B604FEA4102B2F1E04324BFB3F5001CDCF16A
S214402B70FE5C0DD901F0004C4FEAC0024CEA5070A2
S214402B80B2F1004F40EB830008BF20F001007047D1
S214402B9011F0804F21D113F13872BCBF01F00040D4
S214402BA0704741F480114FEA5252C2F11802C2F106
S214402BB0200C10FA0CF320FA02F018BF40F0010087
S214402BC04FEAC1234FEAD32303FA0CFC40EA0C0039
S214402BD023FA02F34FEA4303CCE77FEA625307D176
S214402BE050EA01331EBF4FF0FE4040F440007047AD
S214402BF001F0004040F0FE4040F40000704700BF47
S214402C00014B1868704700BF4000002070B50F4E5B
S214402C100F4D761BB61018BF002405D0013455F86A
S214402C20043B9847A642F9D10A4E0B4D761B01F05D
S214402C306FF8B61018BF002406D0013455F8043B90
S214402C409847A642F9D170BD70BD00BF1C3D4000FC
S214402C501C3D4000243D40001C3D400070B48607AB
S214402C6046D0541E002A41D0CAB2034602E014F1B0
S214402C70FF343BD303F8012B9D07F8D1032C2ED904
S214402C80CDB245EA05250F2C45EA054519D903F18D
S214402C9010022646103E0F2E42F8105C42F80C5C9E
S214402CA042F8085C42F8045C02F11002F2D8A4F143
S214402CB0100222F00F0204F00F041032032C1344CB
S214402CC00DD91E462246043A032A46F8045BFAD833
S214402CD0221F22F003020432134404F003042CB1F2
S214402CE0C9B21C4403F8011B9C42FBD170BC704720
S214402CF014460346C2E700BF00290CBF022200224A
S214402D004FF4806300F000B82DE9F043614C25682D
S214402D1083B004460F4690461E4615B1AB6B002B5B
S214402D2064D0B8F1020F06D0B8F1010F00F29F80D0
S214402D30002EC0F29C80636ED80734D521462846C4
S214402D4000F05AF9216B41B104F14003994202D098
S214402D50284600F04BFA00232363B4F90C300022D7
S214402D60A26162601A063AD423F44A6323F003034E
S214402D70B8F1020FA3811DD001AB6A462146284612
S214402D8000F04CFBA3891843A081002E32D1009E50
S214402D90304600F071FB074600286BD0A38943F00D
S214402DA08003A38128E0A3899905C7D4A06D00F0CD
S214402DB031FBC3E70025616E002604F1430243F071
S214402DC002030120A660CE07A381226022616061D3
S214402DD001D498053ED5284603B0BDE8F083216966
S214402DE0284600F003FAB4F90C30BDE7284600F058
S214402DF05BF996E7002FCBD0AB6B002B33D0009B14
S214402E00B4F90C2027609E421CBF42F40062A281A7
S214402E10B8F1010F04BF42F00102A28192B212F053
S214402E200803276166610ED0D1071AD5656E7642D3
S214402E30002315F00105A661A36009D000252846A9
S214402E4003B0BDE8F083A360656E15F00105F5D1CB
S214402E509305C0D4A06D00F0DFFA284603B0BDE865
S214402E60F083A660F0E7284600F01EF9C7E74FF06B
S214402E70FF35B0E7DDF80090B14504D0484600F095
S214402E80FBFA074620B9B4F90C304FF0FF3592E70D
S214402E904E4683E740000020024B13B1024800F044
S214402EA005B8704700000000193140000023014675
S214402EB01A46184600F010BEB1F90C309AB22DE909
S214402EC0F0410D46110780463AD46A6843F40063E1
S214402ED0002AAB816FDDAC6A002C49D000229BB241
S214402EE0D8F80060C8F8002013F4805267D02A6DE6
S214402EF05F0705D569682B6B521A0BB1EB6BD21A7C
S214402F000023E9694046A047441C3CD0B5F90C3044
S214402F102A692A6023F400630022AB81DB046A60DE
S214402F2047D4296BC8F8006011B305F140039942B5
S214402F3002D0404600F05AF900202863BDE8F081F0
S214402F402E69AEB12C682E6091070CBF6B690023CA
S214402F50A41BAB600AE0234632466F6AE9694046E6
S214402F60B8470028A4EB0004064404DD002CF2DC3D
S214402F700020BDE8F081AB8943F04003AB814FF0C1
S214402F80FF30BDE8F081D8F800401D2CF3D8194B2F
S214402F90E340DB4313F00103EDD1B5F90C206B6041
S214402FA022F400632969AB81DA042960B9D5002C84
S214402FB0B7D12865B5E7EA6B002A8CDCD8E7012351
S214402FC0E9694046A047431C024602D0AB89AC6A3A
S214402FD08EE7D8F80030002BF8D01D2B01D0162BEA
S214402FE002D1C8F80060C3E7AB8943F04003AB8129
S214402FF0BDE8F0810100402038B50D46044608B1D2
S214403000836BBBB1B5F90C0088B16B6EDB0701D49E
S214403010810517D520462946FFF74EFF6B6EDA0727
S214403020044602D4AB899B0507D5204638BD0446E6
S214403030204638BD00F038F8E4E7A86D00F0ECF91B
S214403040204638BDA86D00F0E5F9E3E7014900F0F9
S214403050B3B900BFC13B400010B500230446818190
S214403060C28103604360836043660361436183615A
S214403070194608225C30FFF7F1FD07480749084A21
S214403080084B2062E4616162A262E36204F1580088
S214403090BDE8104000F0BAB9253A4000493A400031
S2144030A0853A4000A53A400010B50446124800F064
S2144030B0B1F9A26BD2B904F53B731048C4F8E832B4
S2144030C00321C4F8E022E063C4F8E41260680421F7
S2144030D0FFF7C2FF01220921A068FFF7BDFF0222C9
S2144030E01221E068FFF7B8FF0123A3630248BDE85A
S2144030F0104000F091B900BF44D000204D30400051
S214403100014800F087B900BF58D00020014800F0C1
S21440311083B900BF58D0002038B50A4C0A4D641B0E
S214403120A4100AD004F18043013B05EB8305013C23
S21440313055F804399847002CF9D1BDE8384000F0DE
S214403140F1BD00BF343D4000303D4000F8B5244F4F
S2144031500C46064600F048FCBB685D68C4F57E61D8
S2144031600F3125F00305294421F47F6121F00F013A
S214403170A1F58054B4F5805F07DB0021304600F0AF
S2144031803FFCBB682B44984204D0304600F032FCEB
S2144031900020F8BD6142304600F032FC01300DD0D0
S2144031A0104BBA6819682D1B45F001053046091BBF
S2144031B05560196000F01EFC0120F8BD0021304625
S2144031C000F01EFCBA68831A0F2BDEDD064C05495C
S2144031D0246843F00103001B53600860D5E700BF36
S2144031E074040020F8CE00207C080020002944D03B
S2144031F02DE9F0410D46804600F0F6FB55F8047C7C
S214403200694927F00103A5F10804E2188E68506862
S214403210B24220F003005ED0FE0750600BD455F853
S214403220087CE41B01F1080EA56875453B446DD04B
S214403230E768EF60BD6015186D68ED073ED543F052
S21440324001026260E350B3F5007F17D2DB08581CDA
S2144032509A104D6851F83070A7600123934001EBF7
S214403260C0022B43083AE2604B6041F83040FC60B5
S2144032704046BDE8F04100F0BDBB70475A0A042AFC
S21440328052D89A0902F13907FF0002F13805C819E9
S214403290CA59083890424FD0516821F003018B42FA
S2144032A032D292689042F7D1C368A060E3609C60D7
S2144032B0C4604046BDE8F04100F09CBB95683B4F7B
S2144032C0BD42034440D0D068E86043F001028560C8
S2144032D06260E350B7E7FF07034407D455F8082C6D
S2144032E0A41A1344A068E268C2609060304A12682C
S2144032F043F00100934260608C60B9D32D4B40464A
S2144033001968FFF723FFB3E71046CDE71118496861
S214403310C90744D49168D268CA60034443F00100A8
S21440332091606060E350A3E7142A16D802F15C0768
S214403330FF0002F15B05AAE7AA1001234D689340FF
S2144033402B434B600346B0E743F001024C610C61EF
S214403350E560A5606260E3508AE7542A06D81A0BF7
S21440336002F16F07FF0002F16E0590E7B2F5AA7F03
S21440337006D8DA0B02F17807FF0002F1770586E7F8
S21440338040F25450824206D89A0C02F17D07FF0064
S21440339002F17C057BE74FF47E777E2577E743F0A6
S2144033A001016160136063E7740400207C04002020
S2144033B08008002028CF00202DE9F84310F5387704
S2144033C01FD0884606464FF000097D68BC68013D20
S2144033D011D4A389012B05F1FF3508D9B4F90E3075
S2144033E001332146304602D0C04749EA00096B1CEB
S2144033F004F16804EDD13F68002FE6D14846BDE8A9
S214403400F883B9464846BDE8F88300BF704700BF1A
S214403410704700BF704700BF704700BF70B50C468E
S214403420B1F90E10002990B015461E4614DB01AACD
S21440343000F028FC00280FDB029A02F47042A2F546
S2144034400052B2FA82F252094FF480634FF40060A1
S21440345032602B6010B070BDA289002312F080004D
S214403460336004D0402218462A6010B070BD4FF436
S21440347080632B6010B070BD024B0146186800F0A8
S21440348003B800BF400000202DE9F04F01F10B06C5
S214403490162E83B0054640F29E8036F0070600F1B1
S2144034A0BD80B14200F2BA8000F09EFAB6F5FC7FCD
S2144034B0C0F09382730A00F0B880042B00F2798142
S2144034C0B30903F1390003F1380EC300BF4F3B4444
S2144034D0A3F108015C68A14206D10CE0002A80F204
S2144034E0AA80E468A14206D0636823F003039A1BCF
S2144034F00F2AF3DD70463C69DFF8E4E2744500F0DD
S214403500AB81636823F003039A1B0F2A00F3908174
S214403510002AC7F814E0C7F810E080F29D80B3F5A3
S214403520007F80F06181DB0803F1010C99107A6816
S21440353057F83C80C4F8088001238B4007EBCC0149
S21440354013430839E1607B6047F83C40C8F80C40BC
S2144035508210012494409C4200F28B801C4206D18B
S21440356020F0030064001C4200F10400FAD007EB90
S214403570C009CC468046DCF80C309C4507D16DE14E
S214403580002A80F27B81DB689C4500F067815968A1
S21440359021F003018A1B0F2AF2DDD3F80CC0D3F8C2
S2144035A0088000939C19284646F0010642F0010523
S2144035B05E60C8F80CC0CCF808807C613C61C4F8FA
S2144035C00CE0C4F808E065605A5000F013FA009B1F
S2144035D003F108041EE0102920D800F005FA102652
S2144035E018230220794F3B44A3F108025C689442BA
S2144035F000F03D816368E168A66823F00303234436
S21440360028465A68F16042F001028E605A6000F027
S214403610F1F90834204603B0BDE8F08F00240C23AF
S21440362020462B6003B0BDE8F08F40204FF4007377
S2144036304FF03F0E4AE72344E1685A68A66842F0D6
S2144036400102F16028468E605A6000F0D3F90834D3
S214403650204603B0BDE8F08F234428465A6842F01F
S21440366001025A6000F0C6F90834204603B0BDE8AF
S214403670F08FBC68636823F00308B04504D3A8EB1A
S21440368006030F2B00F38580DFF85891504BD9F88E
S21440369000201B680132334404EB080A00F05581D1
S2144036A003F580530F3323F47F6B2BF00F0B5946F3
S2144036B0284600F0A5F9411C024600F0FC808245F1
S2144036C000F2F780434B19685944196000F04D8169
S2144036D0D9F8000001301BBFA2EB0A0A5144C9F8D2
S2144036E00020196012F0070100F01581C1F10800B2
S2144036F0C1F580510244083102EB0B09C9F30B09AE
S214403700A1EB0909494628460193009200F078F952
S214403710431C9DE80C0000F04381801A484440F06A
S21440372001001968BA604944BC425060196017D01D
S214403730B8F10F0F40F2FB806068A8F10C0222F04F
S214403740070204EB020E00F001004FF0050C104398
S2144037500F2A6060CEF804C0CEF808C000F2178189
S2144037601D4BBC681A68914288BF19601B4B1A688B
S2144037709142626888BF196022F003029642A2EB2B
S214403780060301D80F2B04DC284600F033F900244A
S21440379040E7A21943F0010346F00106666028465A
S2144037A0BA60536000F026F90834204603B0BDE8FE
S2144037B0F08F142B71D9542B00F2A380330B03F1F6
S2144037C06F0003F16E0EC30080E600BF7404002055
S2144037D028CF0020F8CE002020CF002024CF002085
S2144037E07C0400207C0800205A0A042A5BD9142A4C
S2144037F000F2AE8002F15C01C9005B3207EB010CBF
S2144038007958ACF1080C8C4500F088804A6822F064
S2144038100302934273D289688C45F7D1DCF80C20BA
S2144038207B68E260C4F808C09460CCF80C408FE631
S214403830A11946F0010C42F00106C4F804C028461F
S21440384079613961C1F80CE0C1F808E04E60E25099
S21440385000F0D0F80834DDE67B6879E608F1010828
S21440386018F0030F0CF1080C7FF485AE2DE0DC68F1
S214403870A34208BF02303FF43EAEBBE619441C46A6
S2144038804A68DB6854F8086F42F001024A602846EE
S214403890F3609E6000F0AEF8BCE603F15C0003F116
S2144038A05B0EC30012E69A0902F13901C9003832AC
S2144038B0A4E7BC4254D0BC68626822F003025DE7CD
S2144038C059F80839994540F0868010F0030F00F10A
S2144038D0FF30F5D17B6823EA04037B6064009C429A
S2144038E03FF6C7AE002C3FF4C4AE1C4240467FF4C1
S2144038F03EAE64001C4200F10400FAD037E68C4627
S2144039008CE7B3F5AA7F15D8F30B03F1780003F1E3
S214403910770EC300DAE54FF48051EDE67B689210EF
S214403920012101FA02F213437B60624679E70123E4
S214403930536029E740F25452934222D8B30C03F125
S2144039407D0003F17C0EC300C0E503F1100BAEE62C
S214403950542A29D81A0B02F16F01C9006E324DE77E
S214403960204B196859441960B2E6CAF30B00002888
S2144039707FF4AEAE08EB0B03BA6843F00103536026
S214403980EEE67F204FF47E734FF07E0E9EE504F108
S214403990080128460093FFF729FC009B1968DFE6DC
S2144039A001204FF00009BCE6B2F5AA7F05D8DA0B35
S2144039B002F17801C900773220E740F254518A423A
S2144039C005D89A0C02F17D01C9007C3216E74FF407
S2144039D07E717E2212E77B6880E7F00806F10803D6
S2144039E000E600BFF8CE00200148FFF713BD00BF39
S2144039F048D000200148FFF70FBD00BF48D0002048
S214403A0038B5074C0023054608462360FEF71CF8E9
S214403A10431C00D038BD2368002BFBD02B6038BD3C
S214403A205CD0002010B50C46B1F90E1000F054F9E9
S214403A30002803DB236D0344236510BDA38923F4CC
S214403A408053A38110BD00BF2DE9F0411646B1F961
S214403A500C201F46D3050C46054607D500220223F8
S214403A60B1F90E1000F022F9B4F90C20B4F90E109A
S214403A7022F48052A2813B4632462846BDE8F041B9
S214403A8000F014B810B50C46B1F90E1000F00EF95F
S214403A90A389421C0EBF23F4805343F48053206511
S214403AA0A38110BDB1F90E1000F078B870B50D4680
S214403AB0084C114606461A46284600232360FDF762
S214403AC0E9FA431C00D070BD2368002BFBD033605E
S214403AD070BD00BF5CD000202DE9F8432C4D064653
S214403AE0286898460F469146FFF794FC294B1C6879
S214403AF0D4F84831002B3ED05A681F2A1CDC02F10D
S214403B00010E76B103EB82010124C1F88890D3F808
S214403B10880194402043022EC3F88801C1F80881EA
S214403B2023D00232C3F804E0286843F82270FFF737
S214403B3073FC0020BDE8F883174B0BB34FF4C870F6
S214403B40FFF79AFC0346D8B1D4F84821026000211A
S214403B5041600A46C4F848014FF0010EC0F888118B
S214403B60C0F88C11002EDCD0CCE7D3F88C110C4377
S214403B70C3F88C41D5E704F5A673C4F84831BBE7D3
S214403B802868FFF749FC4FF0FF30BDE8F88300BFD8
S214403B90700400200C3D40007934400038B5074C96
S214403BA00023054608462360FDF76AFF431C00D005
S214403BB038BD2368002BFBD02B6038BD5CD000207E
S214403BC070B559B105460C4610B1836B002B3CD0FE
S214403BD0636ED80705D5B4F90C302BB900263046AD
S214403BE070BDA38999053CD521462846FFF764F960
S214403BF0E36A064633B1E169284698470028B8BFCD
S214403C004FF0FF36A3891A0622D4216B41B104F146
S214403C104003994202D02846FFF7E8FA0023236380
S214403C20616C21B12846FFF7E1FA00236364FFF791
S214403C3067FA636E0022DB07A2810ED5A06DFFF700
S214403C40E7FBFFF763FA304670BDFFF72DFABFE794
S214403C5021692846FFF7CAFAD7E7A06DFFF7DCFBD5
S214403C60ECE7A06DFFF7D6FBB4F90C30002BBBD1C8
S214403C70666E16F00106B1D1A06DFFF7CDFB30465B
S214403C8070BD00BF38B50B46074C05461146184672
S214403C9000232360FDF7F7FE431C00D038BD2368A1
S214403CA0002BFBD02B6038BD5CD0002070B50D4695
S214403CB0084C114606461A46284600232360FDF760
S214403CC0E7FE431C00D070BD2368002BFBD033605A
S214403CD070BD00BF5CD0002070B50D46084C114644
S214403CE006461A46284600232360FDF7B5F9431CCE
S214403CF000D070BD2368002BFBD0336070BD00BF82
S214403D005CD00020737172740000000048000020F0
S214403D10F8B500BFF8BC08BC9E467047992E4000D8
S214403D201D014000F8B500BFF8BC08BC9E46704771
S208403D30F900400011
S214403D340008000036090020461000003209002022
S214403D4414000000260900203A09002042090020F9
S214403D540014000000001E410100000000093D0060
S214403D64940B0020B04C0020CC8D002001000000B5
S214403D74480000200000000000000000340300203B
S214403D849C03002004040020000000000000000003
S214403D9400000000000000000000000000000000DA
S214403DA400000000000000000000000000000000CA
S214403DB400000000000000000000000000000000BA
S214403DC400000000000000000000000000000000AA
S214403DD4000000000000000000000000000000009A
S214403DE4000000000000000000000000000000008A
S214403DF4000000000000000000000000000000007A
S214403E040000000000000000000000000000000069
S214403E140000000000000000000000000000000059
S214403E2401000000000000000E33CDAB34126DE6F6
S214403E34ECDE05000B00000000000000000000005F
S214403E440000000000000000000000000000000029
S214403E540000000000000000000000000000000019
S214403E640000000000000000000000000000000009
S214403E7400000000000000000000000000000000F9
S2144041A438D0002000000000000000007404002006
S2144041B4740400207C0400207C0400208404002036
S2144041C4840400208C0400208C04002094040020E6
S2144041D4940400209C0400209C040020A404002096
S2144041E4A4040020AC040020AC040020B404002046
S2144041F4B4040020BC040020BC040020C4040020F6
S214404204C4040020CC040020CC040020D4040020A5
S214404214D4040020DC040020DC040020E404002055
S214404224E4040020EC040020EC040020F404002005
S214404234F4040020FC040020FC04002004050020B4
S214404244040500200C0500200C0500201405002061
S214404254140500201C0500201C0500202405002011
S214404264240500202C0500202C05002034050020C1
S214404274340500203C0500203C0500204405002071
S214404284440500204C0500204C0500205405002021
S214404294540500205C0500205C05002064050020D1
S2144042A4640500206C0500206C0500207405002081
S2144042B4740500207C0500207C0500208405002031
S2144042C4840500208C0500208C05002094050020E1
S2144042D4940500209C0500209C050020A405002091
S2144042E4A4050020AC050020AC050020B405002041
S2144042F4B4050020BC050020BC050020C4050020F1
S214404304C4050020CC050020CC050020D4050020A0
S214404314D4050020DC050020DC050020E405002050
S214404324E4050020EC050020EC050020F405002000
S214404334F4050020FC050020FC05002004060020AF
S214404344040600200C0600200C060020140600205C
S214404354140600201C0600201C060020240600200C
S214404364240600202C0600202C06002034060020BC
S214404374340600203C0600203C060020440600206C
S214404384440600204C0600204C060020540600201C
S214404394540600205C0600205C06002064060020CC
S2144043A4640600206C0600206C060020740600207C
S2144043B4740600207C0600207C060020840600202C
S2144043C4840600208C0600208C06002094060020DC
S2144043D4940600209C0600209C060020A40600208C
S2144043E4A4060020AC060020AC060020B40600203C
S2144043F4B4060020BC060020BC060020C4060020EC
S214404404C4060020CC060020CC060020D40600209B
S214404414D4060020DC060020DC060020E40600204B
S214404424E4060020EC060020EC060020F4060020FB
S214404434F4060020FC060020FC06002004070020AA
S214404444040700200C0700200C0700201407002057
S214404454140700201C0700201C0700202407002007
S214404464240700202C0700202C07002034070020B7
S214404474340700203C0700203C0700204407002067
S214404484440700204C0700204C0700205407002017
S214404494540700205C0700205C07002064070020C7
S2144044A4640700206C0700206C0700207407002077
S2144044B4740700207C0700207C0700208407002027
S2144044C4840700208C0700208C07002094070020D7
S2144044D4940700209C0700209C070020A407002087
S2144044E4A4070020AC070020AC070020B407002037
S2144044F4B4070020BC070020BC070020C4070020E7
S214404504C4070020CC070020CC070020D407002096
S214404514D4070020DC070020DC070020E407002046
S214404524E4070020EC070020EC070020F4070020F6
S214404534F4070020FC070020FC07002004080020A5
S214404544040800200C0800200C0800201408002052
S214404554140800201C0800201C0800202408002002
S214404564240800202C0800202C08002034080020B2
S214404574340800203C0800203C0800204408002062
S214404584440800204C0800204C0800205408002012
S214404594540800205C0800205C08002064080020C2
S2144045A4640800206C0800206C080020FFFFFFFF12
S2084045B400000200BC
S804401801A2
